:020000040800F2
:10000000000003202122020871AD010891AD010812
:10001000B1AD0108D1AD0108F1AD0108000000004B
:10002000000000000000000000000000F1360008A1
:1000300011AE010800000000A937000831AE010828
:10004000712202087122020871220208712202083C
:10005000712202087122020871220208712202082C
:1000600071220208ED410008712202087122020883
:10007000712202087122020871220208712202080C
:1000800071220208712202087122020871220208FC
:1000900071220208712202087122020871220208EC
:1000A00071220208712202087122020871220208DC
:1000B00071220208712202087122020871220208CC
:1000C00071220208712202087122020871220208BC
:1000D00071220208712202087122020871220208AC
:1000E000712202087122020871220208712202089C
:1000F000712202087122020871220208712202088C
:10010000712202087122020871220208712202087B
:10011000712202087122020871220208712202086B
:10012000712202087122020871220208712202085B
:100130007122020841AE01087122020871220208F0
:10014000712202087122020871220208712202083B
:10015000712202087122020871220208712202082B
:10016000712202087122020871220208712202081B
:1001700071220208712202087122020800000000A8
:1001800071220208712202087122020871220208FB
:1001900071220208712202087122020871220208EB
:0C01A0007122020871220208712202087C
:1001C000044B05481B1A062B02D9044B03B11847F0
:1001D000704700BF2F0900202C09002000000000FC
:1001E00005490648091A891001EBD171491002D05E
:1001F000034B03B1184770472C0900202C0900203D
:100200000000000010B5064C237843B9FFF7D8FF73
:10021000044B13B10448AFF300800123237010BDD9
:100220002C090020000000008822020808B5084BB5
:100230001BB108490848AFF300800848036813B9A8
:10024000BDE80840CCE7064B002BF9D09847F7E70C
:100250000000000030090020882202082809002040
:1002600000000000134B002B08BF114B9D46A3F567
:10027000803A00218B460F461148124A121A1AF092
:100280006FFF0D4B002B00D098470C4B002B00D07C
:1002900098470020002104000D000B481AF06EFE64
:1002A0001AF09CFE2000290000F010F81AF072FEEF
:1002B0000000080000000000000000000000000036
:1002C0002C0900205CF00020B5AF010810B51AF031
:1002D000D5FC4FF0500383F31188BFF36F8FBFF34A
:1002E0004F8F1AF0CBFB02201AF02AFC002484F373
:1002F000118804F08BFF04F0E5FC05F0B3FE04F078
:10030000D1FB02F0D1F9204610BD00BF08B5022094
:100310001AF016FC08BD00BF08B502201AF010FC48
:10032000074C022502F016FA2368C01AB0F57A7F4E
:10033000F8D902F00FFA206028461AF01DFCF1E708
:100340004809002008B502201AF0FAFBFEE700BFBA
:10035000134B00E013461A688242FBD310B459686D
:100360005C18A04203D140680144596018464468B3
:1003700001198A420CD10A4A9268914206D04A6811
:10038000144444601A681268026002E0016000E0F0
:100390000260984218BF18605DF8044B704700BFB8
:1003A0004C090020F8B5044602F0CAF9464B9B6898
:1003B00023BB464A12F0070F07D0D11D21F00701D9
:1003C00002F55C435B1A0A4601E04FF45C433E4889
:1003D0000260002141601344083B23F0070383605F
:1003E00059601960991A51601360394B43F88C1C9D
:1003F00043F8881C4FF0004243F8842C344B53F8E8
:10040000847C274256D1002C58D004F1080313F005
:10041000070F1CBF23F007030833002B4AD02C4AD8
:1004200052F8886CB34245D8274A146801E0224646
:100430000C4661688B4202D921680029F7D1224914
:1004400089688C4236D01568216811606268D21ABA
:10045000102A10D9E01810F0070F08D04FF0500301
:1004600083F31188BFF36F8FBFF34F8FFEE74260B6
:100470006360FFF76DFF6268B31A154941F8883C65
:1004800051F88C1C8B423CBF114941F88C3C08351B
:100490003A4362600023236002F00CFA15F0070F64
:1004A0000FD04FF0500383F31188BFF36F8FBFF36A
:1004B0004F8FFEE702F0FEF9002502E002F0FAF9A4
:1004C00000252846F8BD00BF4C090020580900202F
:1004D000E4E5002090B310B5044650F8043C184AF7
:1004E00052F8842C134208D14FF0500383F3118843
:1004F000BFF36F8FBFF34F8FFEE750F8081C41B179
:100500004FF0500383F31188BFF36F8FBFF34F8F0A
:10051000FEE723EA020340F8043C02F011F9084A1E
:1005200054F8041C52F8883C0B4442F8883CA4F16F
:100530000800FFF70DFF02F0BDF910BD704700BFC6
:10054000E4E50020014B53F8880C7047E4E50020F7
:10055000014B53F88C0C7047E4E50020704700BF56
:1005600010B5044603F0E8F8A46B03F007F9B4FAF9
:1005700084F0400910BD00BF70B504461646856B77
:10058000026C3AB9036843BB806802F063FD002344
:10059000A36029E06EB940681AF048FD6268236CD8
:1005A00013446360A268934219D3236863600020F8
:1005B0001AE0C0681AF03AFD236C5B42E2681A4404
:1005C000E26021688A4202D2A2681344E360022EEC
:1005D00007D145B1013D002006E0002004E00020E5
:1005E00002E0002000E000200135A56370BD00BFDF
:1005F00070B582B00190846C44B94FF0500383F31E
:100600001188BFF36F8FBFF34F8FFEE7A26BE36BD1
:100610009A4208D34FF0500383F31188BFF36F8FD2
:10062000BFF34F8FFEE7A26B93421AD90A4694F8A4
:1006300045506DB201A92046FFF79EFF0646B5F171
:10064000FF3F09D1636A6BB104F1240002F0CAFADA
:10065000002818BF012605E06B1C5BB284F845300A
:1006600000E00026304602B070BD00BF026C72B1DF
:1006700010B50346C4681444C4608068844224BF33
:100680001868D8600846D9681AF0D0FC10BD7047C9
:10069000F8B5054603F050F895F8454064B2002CD3
:1006A00018DD002605F12407AB6C3BB13146284626
:1006B000FFF79EFF50B102F07BFB07E06B6A4BB186
:1006C000384602F08FFA08B102F072FB013C64B2C6
:1006D000002CE9D1FF2385F8453003F04FF803F0F3
:1006E0002BF895F8444064B2002C11DD2B6905F11C
:1006F00010061BB90CE02B6903B909E0304602F083
:1007000071FA08B102F054FB013C64B2002CF2D142
:10071000FF2385F8443003F031F8F8BD38B540B90F
:100720004FF0500383F31188BFF36F8FBFF34F8FE8
:10073000FEE704460D4602F0FFFF2268216CE36BE2
:1007400003FB01F3D018A0600020A06362605B1A75
:100750001344E360FF2384F8443084F845307DB9C6
:100760002369ABB104F1100002F03CFA80B14FF004
:100770008052094B1A60BFF34F8FBFF36F8F07E0B2
:1007800004F1100000F022FE04F1240000F01EFE2F
:1007900002F0F4FF012038BD04ED00E0F8B540B9E7
:1007A0004FF0500383F31188BFF36F8FBFF34F8F68
:1007B000FEE7064617460D4601FB00F05430FFF7F2
:1007C000F1FD044678B10DB9206002E000F1540358
:1007D0000360E663256401212046FFF79FFF84F84C
:1007E00050700023A3642046F8BD00BF40B94FF00D
:1007F000500383F31188BFF36F8FBFF34F8FFEE772
:10080000884208D24FF0500383F31188BFF36F8FF3
:10081000BFF34F8FFEE710B50C4602220021FFF711
:10082000BDFF034600B18463184610BD2DE9F04FAB
:1008300085B0019240B94FF0500383F31188BFF3A4
:100840006F8FBFF34F8FFEE7044651B9026C42B180
:100850004FF0500383F31188BFF36F8FBFF34F8FB7
:10086000FEE7022B0BD1E26B012A08D04FF05003B8
:1008700083F31188BFF36F8FBFF34F8FFEE71D46E1
:100880000E4602F073FB50B9019B53B14FF0500379
:1008900083F31188BFF36F8FBFF34F8FFEE70027FD
:1008A00000E000274FF00109DFF8488102F044FF23
:1008B000A26BE36B9A4202D3022D36D18BE0A76B79
:1008C0002A4631462046FFF757FEA36C83B1022D1E
:1008D00000D137BB29462046FFF78AFE08B34FF008
:1008E0008052444B1A60BFF34F8FBFF36F8F18E0F5
:1008F000636A6BB104F1240002F074F988B14FF01F
:1009000080523C4B1A60BFF34F8FBFF36F8F08E0EC
:1009100038B14FF08052374B1A60BFF34F8FBFF39F
:100920006F8F02F02BFF012060E0019B1BB902F0EA
:1009300025FF00205AE01FB902A802F0EFF94F4648
:1009400002F01CFF01F0FCFE02F0F6FE94F84430C9
:100950005BB2B3F1FF3F04BF002384F8443094F846
:1009600045305BB2B3F1FF3F04BF002384F845304C
:1009700002F004FF01A902A802F0DAF920BB02F09C
:10098000DBFED4F838B0D4F83CA002F0F7FED34533
:1009900014D1019904F1100002F0DCF82046FFF7B1
:1009A00077FE01F087FF002880D14FF08053C8F810
:1009B0000030BFF34F8FBFF36F8F77E72046FFF70D
:1009C00067FE01F077FF71E72046FFF761FE01F057
:1009D00071FF00200AE0A76B022231462046FFF794
:1009E000CBFDA36C002B7FF474AF81E705B0BDE8AD
:1009F000F08F00BF04ED00E010B502460021012099
:100A0000FFF7CCFE044638B1002181600160C1606F
:100A10000B460A46FFF70AFF204610BD38B540B91D
:100A20004FF0500383F31188BFF36F8FBFF34F8FE5
:100A3000FEE70446856802F093FA85420AD1E3682E
:100A4000013BE36043B91A4619462046FFF7EEFE24
:100A5000012038BD002038BD012038BD2DE9F84304
:100A600040B94FF0500383F31188BFF36F8FBFF38A
:100A70004F8FFEE7044651B9006C40B14FF0500370
:100A800083F31188BFF36F8FBFF34F8FFEE7022B05
:100A90000BD1E06B012808D04FF0500383F311888D
:100AA000BFF36F8FBFF34F8FFEE71F469046894617
:100AB00002F06AFFEFF311864FF0500383F31188C1
:100AC000BFF36F8FBFF34F8FA26BE36B9A4201D3DB
:100AD000022F2CD194F845506DB23A464946204633
:100AE000FFF74AFDB5F1FF3F1BD1A36C5BB139465F
:100AF0002046FFF77DFDE0B1B8F1000F1BD00120CB
:100B0000C8F800001EE0636ABBB104F1240002F0E3
:100B100069F8A0B1B8F1000F13D00120C8F80000A7
:100B200010E06B1C5BB284F8453001200AE0002025
:100B300008E0012006E0012004E0012002E001209D
:100B400000E0012086F31188BDE8F88340B94FF03A
:100B5000500383F31188BFF36F8FBFF34F8FFEE70E
:100B600070B50446036C43B14FF0500383F3118812
:100B7000BFF36F8FBFF34F8FFEE7036853B98368EE
:100B800043B14FF0500383F31188BFF36F8FBFF36E
:100B90004F8FFEE70E4602F0F7FEEFF311854FF0A0
:100BA000500383F31188BFF36F8FBFF34F8FA26B96
:100BB000E36B9A4223D294F845305BB20132A263D0
:100BC000B3F1FF3F15D1A36C43B100212046FFF7DD
:100BD0000FFDB0B1BEB1012030601BE0636AA3B16C
:100BE00004F1240001F0FEFF88B196B101203060CD
:100BF00010E001335BB284F8453001200AE00020A8
:100C000008E0012006E0012004E0012002E00120CC
:100C100000E0012085F3118870BD00BF2DE9F0438D
:100C200085B0019240B94FF0500383F31188BFF3B0
:100C30006F8FBFF34F8FFEE7044651B9036C43B18A
:100C40004FF0500383F31188BFF36F8FBFF34F8FC3
:100C5000FEE70E4602F08AF950B9019B53B14FF0FE
:100C6000500383F31188BFF36F8FBFF34F8FFEE7FD
:100C7000002700E000274FF00109DFF8EC8002F0C8
:100C80005BFDA56BC5B131462046FFF7EFFC013D8A
:100C9000A563236963B104F1100001F0A3FF38B12B
:100CA0004FF08052304B1A60BFF34F8FBFF36F8FFE
:100CB00002F064FD012053E0019B1BB902F05EFDD0
:100CC00000204DE01FB902A802F028F84F4602F0BC
:100CD00055FD01F035FD02F02FFD94F844305BB274
:100CE000B3F1FF3F04BF002384F8443094F845304B
:100CF0005BB2B3F1FF3F04BF002384F8453002F03C
:100D00003DFD01A902A802F013F8F0B92046FFF753
:100D100027FCA0B1019904F1240001F01BFF20463B
:100D2000FFF7B6FC01F0C6FD0028A8D14FF08053B4
:100D3000C8F80030BFF34F8FBFF36F8F9FE7204697
:100D4000FFF7A6FC01F0B6FD99E72046FFF7A0FCEF
:100D500001F0B0FD2046FFF703FC00288FD00020F3
:100D600005B0BDE8F08300BF04ED00E02DE9F041DF
:100D700084B0019140B94FF0500383F31188BFF361
:100D80006F8FBFF34F8FFEE70446036C43B14FF004
:100D9000500383F31188BFF36F8FBFF34F8FFEE7CC
:100DA00002F0E4F850B9019B5BB14FF0500383F3BC
:100DB0001188BFF36F8FBFF34F8FFEE700252E46DC
:100DC00001E000252E464FF001084E4F02F0B4FC22
:100DD000A36BCBB1013BA363236813B902F00AFAFA
:100DE000A060236963B104F1100001F0FBFE38B18B
:100DF0004FF08052434B1A60BFF34F8FBFF36F8F9A
:100E000002F0BCFC012079E0019B6BB945B14FF0C9
:100E1000500383F31188BFF36F8FBFF34F8FFEE74B
:100E200002F0ACFC002069E01EB902A801F076FFD8
:100E3000464602F0A3FC01F083FC02F07DFC94F82E
:100E400044305BB2B3F1FF3F04BF002384F8443069
:100E500094F845305BB2B3F1FF3F04BF002384F840
:100E6000453002F08BFC01A902A801F061FF38BBFC
:100E70002046FFF775FBE8B123683BB902F05CFC44
:100E8000A06802F083F8054602F078FC019904F1AD
:100E9000240001F05FFE2046FFF7FAFB01F00AFD97
:100EA000002893D14FF080533B60BFF34F8FBFF3C7
:100EB0006F8F8BE72046FFF7EBFB01F0FBFC85E72C
:100EC0002046FFF7E5FB01F0F5FC2046FFF748FB65
:100ED00000283FF47BAF85B102F02EFC636A23B19A
:100EE000236B1968C1F1070100E00021A06802F03E
:100EF0000DF902F043FC002000E0002004B0BDE842
:100F0000F08100BF04ED00E040B94FF0500383F3DF
:100F10001188BFF36F8FBFF34F8FFEE770B50446A4
:100F20000D46866802F01CF8864204D1E36801335E
:100F3000E360012208E029462046FFF717FF02463A
:100F400010B1E3680133E360104670BD2DE9F04154
:100F500084B0019240B94FF0500383F31188BFF37E
:100F60006F8FBFF34F8FFEE7044651B9036C43B157
:100F70004FF0500383F31188BFF36F8FBFF34F8F90
:100F8000FEE70D4601F0F2FF50B9019B53B14FF05F
:100F9000500383F31188BFF36F8FBFF34F8FFEE7CA
:100FA000002600E000264FF001083A4F02F0C4FB93
:100FB000A36BC3B1E66829462046FFF757FBE660FE
:100FC000636A63B104F1240001F00CFE38B14FF004
:100FD0008052304B1A60BFF34F8FBFF36F8F02F018
:100FE000CDFB012052E0019B1BB902F0C7FB0020A2
:100FF0004CE01EB902A801F091FE464602F0BEFB8D
:1010000001F09EFB02F098FB94F844305BB2B3F120
:10101000FF3F04BF002384F8443094F845305BB2AE
:10102000B3F1FF3F04BF002384F8453002F0A6FB74
:1010300001A902A801F07CFEE8B92046FFF790FA6A
:1010400098B1019904F1240001F084FD2046FFF7D6
:101050001FFB01F02FFC0028A8D14FF080533B600C
:10106000BFF34F8FBFF36F8FA0E72046FFF710FB52
:1010700001F020FC9AE72046FFF70AFB01F01AFC7A
:101080002046FFF76DFA002890D0002004B0BDE89C
:10109000F08100BF04ED00E02DE9F84340B94FF0C6
:1010A000500383F31188BFF36F8FBFF34F8FFEE7B9
:1010B000044651B9036C43B14FF0500383F31188D8
:1010C000BFF36F8FBFF34F8FFEE71746894602F0DD
:1010D0005BFCEFF311864FF0500383F31188BFF3ED
:1010E0006F8FBFF34F8FD4F83880B8F1000F1DD049
:1010F00094F844506DB249462046FFF7B7FA08F11C
:10110000FF33A363B5F1FF3F0AD1236983B104F133
:10111000100001F067FD68B177B1012038600CE084
:101120006B1C5BB284F84430012006E0002004E030
:10113000012002E0012000E0012086F31188BDE8D3
:10114000F88300BFF8B540B94FF0500383F311881E
:10115000BFF36F8FBFF34F8FFEE7044651B9036CA7
:1011600053B14FF0500383F31188BFF36F8FBFF378
:101170004F8FFEE7036C43B94FF0500383F31188A0
:10118000BFF36F8FBFF34F8FFEE70D4602F0FCFBFE
:10119000EFF311864FF0500383F31188BFF36F8F85
:1011A000BFF34F8FA36B3BB1E76829462046FFF79B
:1011B0005DFAE760012000E0002086F31188F8BDA9
:1011C00040B94FF0500383F31188BFF36F8FBFF323
:1011D0004F8FFEE710B5044602F0AEFAA46B02F0A2
:1011E000CDFA204610BD00BF40B94FF0500383F345
:1011F0001188BFF36F8FBFF34F8FFEE710B5044622
:1012000002F09AFAA26BE36B9C1A02F0B7FA20463E
:1012100010BD00BF40B94FF0500383F31188BFF3F6
:101220006F8FBFF34F8FFEE7806B7047C06C7047C6
:10123000C164704790F85000704700BF40B94FF04C
:10124000500383F31188BFF36F8FBFF34F8FFEE717
:10125000806BB0FA80F04009704700BF40B94FF092
:10126000500383F31188BFF36F8FBFF34F8FFEE7F7
:10127000826BC06B904214BF00200120704700BFFA
:1012800010B40B4B1B682BB10123094C54F83320CD
:1012900042B900E00023064A42F8331002EBC303D0
:1012A000586002E00133082BF0D15DF8044B704721
:1012B0006CE800200A4B5B68984205D0084B01227D
:1012C000D968814205D100E00022054B53F8320075
:1012D000704701320833082AF2D10020704700BF5E
:1012E0006CE800200B4B5B68984205D0094A01234B
:1012F000D168814209D100E00023064A002142F86A
:10130000331002EBC3035960704701330832082BD6
:10131000EED170476CE8002040B94FF0500383F3E2
:101320001188BFF36F8FBFF34F8FFEE710B50446F0
:10133000FFF7D8FF2046FFF7CDF810BD08B5002213
:101340000421FFF72BFA08BD38B504460D4602F01C
:10135000F3F9A36C23B9A36B23B9A564012402E0BC
:10136000002400E0002402F009FA204638BD00BF46
:10137000836C8B420BD1836B5BB910B5044602F0D2
:10138000DBF90023A36402F0F9F9012010BD00206D
:1013900070470020704700BF00B583B002AB002249
:1013A00043F8042D0A461946FFF738FC019803B0AC
:1013B0005DF804FB00B583B0002202A941F8042DBA
:1013C000FFF76AFE019803B05DF804FB00F1080323
:1013D00043604FF0FF328260C3600361002303600B
:1013E000704700BF00230361704700BF43684B6034
:1013F0009A688A609A68516099600861036801334D
:101400000360704730B40D68B5F1FF3F01D1026948
:1014100007E000F1080200E01A4653681C68A54284
:10142000FAD253684B6099608A6051600861036822
:101430000133036030BC7047036942688168916082
:101440008268416851605A68904204BF82685A605D
:10145000002202611A68013A1A601868704700BFDA
:101460008268436813440068181A824298BF801A41
:10147000704700BFF8B504460D4617461E46552175
:10148000284619F06DFE854208D04FF0500383F3D3
:101490001188BFF36F8FBFF34F8FFEE72422002127
:1014A000204619F05DFEA561A760E6609DF8183042
:1014B0002377F8BD42B94FF0500383F31188BFF38F
:1014C0006F8FBFF34F8FFEE72DE9F0411746466857
:1014D0008368C6EB0308904528BF904606EB0802D8
:1014E000934208D24FF0500383F31188BFF36F8FFC
:1014F000BFF34F8FFEE70D460446806942463044F5
:1015000019F094FD474512D9C8EB0702A3689A4227
:1015100008D94FF0500383F31188BFF36F8FBFF3E7
:101520004F8FFEE705EB0801A06919F07FFDBB199D
:10153000A268934228BF9B1A63603846BDE8F081D9
:1015400030B583B00192ABB11A460D460446037F15
:1015500013F0010F05D1019B9A4228BF1A46019250
:101560000CE0069B9A4207D304220DEB0201FFF721
:10157000A1FF03E0002006E0002004E0019A2946D4
:101580002046FFF797FF03B030BD00BF2DE9F843B9
:1015900090469A4228BF9846B8F1000F3ED00468A2
:1015A00083681F1B474528BF4746BA4208D24FF001
:1015B000500383F31188BFF36F8FBFF34F8FFEE7A4
:1015C000E519AB4208D24FF0500383F31188BFF303
:1015D0006F8FBFF34F8FFEE791460E460546816938
:1015E0003A462144304619F021FDB84510D9C1458D
:1015F00008D24FF0500383F31188BFF36F8FBFF30E
:101600004F8FFEE7C7EB0802A969F01919F00EFD2C
:101610004444AB689C4228BFE41A2C604046BDE8B5
:10162000F88300BFF0B583B00C46012A0AD1042824
:1016300012D84FF0500383F31188BFF36F8FBFF3BD
:101640004F8FFEE750B94FF0500383F31188BFF37B
:101650006F8FBFF34F8FFEE7012600E00026A04208
:1016600008D24FF0500383F31188BFF36F8FBFF39D
:101670004F8FFEE7002C08BF0124471C2530FEF7E2
:1016800091FE054630B1009623463A4600F124010A
:10169000FFF7F0FE284603B0F0BD00BF08B540B923
:1016A0004FF0500383F31188BFF36F8FBFF34F8F59
:1016B000FEE7037F13F0020F02D1FEF70BFF08BD18
:1016C0002422002119F04CFD08BD00BF40B94FF0A5
:1016D000500383F31188BFF36F8FBFF34F8FFEE783
:1016E00030B583B00446056A02F026F8236963B971
:1016F000636963B9E368A268A169207F009020460E
:10170000FFF7B8FE2562012402E0002400E0002477
:1017100002F034F8204603B030BD00BF40B94FF0AE
:10172000500383F31188BFF36F8FBFF34F8FFEE732
:10173000002908BF0121826891429ABFC16001203F
:101740000020704740B94FF0500383F31188BFF376
:101750006F8FBFF34F8FFEE78268036840681344C2
:10176000013B181A824298BF801A704708B540B9E9
:101770004FF0500383F31188BFF36F8FBFF34F8F88
:10178000FEE7FFF76DFE08BD2DE9F04387B0039338
:1017900041B94FF0500383F31188BFF36F8FBFF34C
:1017A0004F8FFEE7884640B94FF0500383F311880E
:1017B000BFF36F8FBFF34F8FFEE7037F13F0010F6F
:1017C0000BD0171DBA4209D34FF0500383F3118891
:1017D000BFF36F8FBFF34F8FFEE7174616460446E1
:1017E000039B8BB304A801F07FFA4FF0000901F0CE
:1017F000A3FF2046FFF7A6FF0546874221D94846AA
:1018000001F00EFF636943B14FF0500383F3118879
:10181000BFF36F8FBFF34F8FFEE701F0A1FB606155
:1018200001F0ACFF039B4A464946484601F032FDB1
:10183000C4F8149003A904A801F07AFA0028D6D0BD
:1018400001E001F09BFF1DB92046FFF77BFF054635
:1018500000972B46324641462046FFF771FE05466B
:1018600098B12046FFF7FCFDE36898420DD300F0E5
:1018700067FF23693BB1206900231A46194601F02E
:101880005BFD0023236101F015F8284607B0BDE891
:10189000F08300BF41B94FF0500383F31188BFF3C9
:1018A0006F8FBFF34F8FFEE72DE9F04182B00E46F8
:1018B00040B94FF0500383F31188BFF36F8FBFF32C
:1018C0004F8FFEE7017F11F0010F14BF02F10408F2
:1018D00090461F4615460446FFF734FFCDF80080BA
:1018E00003462A4631462046FFF72AFE0546E0B168
:1018F0002046FFF7B5FDE368984216D3EFF3118653
:101900004FF0500383F31188BFF36F8FBFF34F8FF6
:10191000236943B12069009700231A46194601F054
:1019200087FD0023236186F31188284602B0BDE8B5
:10193000F08100BF41B94FF0500383F31188BFF32A
:101940006F8FBFF34F8FFEE72DE9F04383B004465E
:1019500017469946884640B94FF0500383F31188E3
:10196000BFF36F8FBFF34F8FFEE7057F05F00105D3
:10197000AD003BB301F0E0FE2046FFF771FD0646E7
:1019800085424ED3002001F04BFE236943B14FF056
:10199000500383F31188BFF36F8FBFF34F8FFEE7C0
:1019A00001F0DEFA206101F0E9FE4B46002211460B
:1019B000104601F06FFC002323612046FFF750FD25
:1019C000064602E0FFF74CFD0646AE4298BF0025F2
:1019D0002AD97DB1D4F8009033462A4601A9204681
:1019E000FFF7D4FD019B761B9F423ABFC4F80090DD
:1019F00000271F4633463A4641462046FFF7C6FDBC
:101A0000054688B100F09CFE63693BB16069002324
:101A10001A46194601F090FC0023636100F04AFF6A
:101A200002E001F0ABFED4E7284603B0BDE8F08346
:101A300040B94FF0500383F31188BFF36F8FBFF3AA
:101A40004F8FFEE730B583B00446037F13F0010FDC
:101A500018D0FFF705FD0346042809D9256804229C
:101A60000DEB02012046FFF791FD019825600CE087
:101A700050B14FF0500383F31188BFF36F8FBFF362
:101A80004F8FFEE7002000E0002003B030BD00BF14
:101A900041B94FF0500383F31188BFF36F8FBFF349
:101AA0004F8FFEE72DE9F04385B004461646984671
:101AB000894640B94FF0500383F31188BFF36F8F0D
:101AC000BFF34F8FFEE7037F13F0010F35D12DE0F9
:101AD00027682B46042203A92046FFF757FD039AE7
:101AE0002B1F96423ABF27600026164632464946CB
:101AF0002046FFF74BFD054628B3EFF311864FF064
:101B0000500383F31188BFF36F8FBFF34F8F636967
:101B10004BB16069CDF8008000231A46194601F0E8
:101B200087FC0023636186F311880CE0FFF798FCC3
:101B300003460028DAD1002505E0FFF791FC0546B1
:101B40000428C5D80025284605B0BDE8F08300BFAD
:101B5000034640B94FF0500383F31188BFF36F8FF2
:101B6000BFF34F8FFEE700685B68984214BF002008
:101B70000120704740B94FF0500383F31188BFF341
:101B80006F8FBFF34F8FFEE710B5047F04F00104A1
:101B9000A400FFF7D7FD844234BF0020012010BD10
:101BA00040B94FF0500383F31188BFF36F8FBFF339
:101BB0004F8FFEE730B583B00446EFF311854FF049
:101BC000500383F31188BFF36F8FBFF34F8F036907
:101BD00053B10069009100231A46194601F028FC10
:101BE00000232361012000E0002085F3118803B069
:101BF00030BD00BF40B94FF0500383F31188BFF3ED
:101C00006F8FBFF34F8FFEE730B583B00446EFF31D
:101C100011854FF0500383F31188BFF36F8FBFF32B
:101C20004F8F436953B14069009100231A4619460A
:101C300001F0FEFB00236361012000E0002085F33A
:101C4000118803B030BD00BF006A70470162704761
:101C5000007F00F00100704710B51C20FEF7A2FBCA
:101C6000044620B1002340F8043BFFF7AFFB2046B9
:101C700010BD00BF2DE9F843DDF8209040B94FF0CA
:101C8000500383F31188BFF36F8FBFF34F8FFEE7CD
:101C9000064611F07F4F08D04FF0500383F31188B0
:101CA000BFF36F8FBFF34F8FFEE741B94FF0500383
:101CB00083F31188BFF36F8FBFF34F8FFEE7984612
:101CC00017460C4601F052F958B9B9F1000F08D087
:101CD0004FF0500383F31188BFF36F8FBFF34F8F23
:101CE000FEE700F02DFD3568B8F1000F04D12C425D
:101CF00014BF0123002304E034EA05030CBF0123D1
:101D000000232BB1002F40D025EA040434603CE0CE
:101D1000B9F1000F39D0002F0CBF00214FF08071B6
:101D2000B8F1000F01D041F080614A462143301DD7
:101D300000F02AFF00F0BEFD38B94FF08052154B7D
:101D40001A60BFF34F8FBFF36F8F01F043FA054660
:101D500010F0007F16D101F0EFFC3568B8F1000FEC
:101D600004D12C4214BF0123002304E034EA05030C
:101D70000CBF012300231BB117B125EA0404346012
:101D800001F0FCFC25F07F4501E000F093FD2846C2
:101D9000BDE8F88304ED00E040B94FF0500383F351
:101DA0001188BFF36F8FBFF34F8FFEE770B5054605
:101DB00011F07F4F08D04FF0500383F31188BFF329
:101DC0006F8FBFF34F8FFEE70C4601F0B5FC2E6816
:101DD00026EA0401296001F0D1FC304670BD00BF45
:101DE000EFF311834FF0500282F31188BFF36F8F2E
:101DF000BFF34F8F006883F311887047F8B540B97F
:101E00004FF0500383F31188BFF36F8FBFF34F8FF1
:101E1000FEE7044611F07F4F08D04FF0500383F3E4
:101E20001188BFF36F8FBFF34F8FFEE70D4600F1B0
:101E30000C0600F085FC2069216829432160864258
:101E400021D000254768026822F07F4312F0806F9E
:101E500005D121680B4214BF0121002105E0216852
:101E600033EA01010CBF0121002141B112F0807F52
:101E700018BF1D43216841F0007100F0F5FE38469F
:101E8000BE42DFD100E00025236823EA050323607A
:101E900000F010FD2068F8BD12F07F4F08D04FF021
:101EA000500383F31188BFF36F8FBFF34F8FFEE7AB
:101EB00042B94FF0500383F31188BFF36F8FBFF324
:101EC0004F8FFEE72DE9F0411F4616460C460546AA
:101ED00001F04CF850B9002F46D04FF0500383F377
:101EE0001188BFF36F8FBFF34F8FFEE700F028FC20
:101EF000D5F8008021462846FFF780FF48EA040411
:101F000036EA040304D12B6823EA06032B6028E099
:101F10004FB13A4646F0A061281D00F035FE00F0B2
:101F2000C9FC10B109E02C681BE04FF08052164B41
:101F30001A60BFF34F8FBFF36F8F01F04BF9044668
:101F400010F0007F0AD101F0F7FB2C6836EA040399
:101F500004BF24EA06062E6001F010FC24F07F4442
:101F60000EE000F0A7FC0BE000F0EAFB2F68214632
:101F70002846FFF743FF3C4336EA0403D3D1C2E7C8
:101F80002046BDE8F08100BF04ED00E070B50446D6
:101F900000F0D6FB6368CBB1206904F10C05A842C0
:101FA00005D04FF000760BE02069A84208D14FF031
:101FB000500383F31188BFF36F8FBFF34F8FFEE79A
:101FC000314600F051FE6368002BEDD12046FEF74C
:101FD00081FA00F06FFC70BD08B5FFF70FFF08BD78
:101FE00008B5FFF7D9FE08BD08B180697047002029
:101FF000704700BF8161704740B94FF0500383F3D1
:102000001188BFF36F8FBFF34F8FFEE74169084A16
:10201000914208D1806A02F11403984205D0B0FAC7
:1020200080F040097047002070470020704700BFD3
:1020300064E50020074B9B6A1B6823B94FF0FF3211
:10204000044BDA627047034B9A6AD268D2685268CE
:10205000DA62704764E5002008B5134C134E236B19
:10206000BBB101F069FB236CDD68281DFFF7E4F9C3
:10207000A36C013BA364236B013B236301F07EFB54
:10208000286BFEF727FA2846FEF724FA236B002B6D
:10209000E7D1E36C012BE2D94FF080533360BFF3FB
:1020A0004F8FBFF36F8FDAE764E5002004ED00E0A7
:1020B00070B504460E461E4BD3F8D850D3F8DC005A
:1020C0000430FFF7B9F958B9194BD3F8DC20D3F82D
:1020D000E010D06A0122824021EA0202C3F8E02027
:1020E000B4F1FF3F07D136B11148D0F8DC1004310C
:1020F000FFF77CF970BD2C440D4BD3F8DC305C60ED
:10210000A54208D90A4BD3F8E400D3F8DC10043117
:10211000FFF778F970BD064DA86AD5F8DC100431D8
:10212000FFF770F9EB6A9C423CBF2B46DC6270BD46
:1021300064E500202DE9F04F83B001900F469846EA
:102140000D9E95002846FEF72DF9002800F0C58069
:1021500082465C20FEF726F9044668B1C0F830A03C
:102160002A46A521504618F0FBFF043D236B1D4471
:1021700025F0070527B919E05046FEF7ABF9ACE0AA
:102180003B7884F834303B7863B13B4604F1340249
:1021900007F10F0113F8010F02F8010F187808B1C9
:1021A0008B42F7D1002384F8433002E0002384F807
:1021B00034300C9B062B28BF06239946E362E36468
:1021C0000027276504F1040B5846FFF70BF904F1CB
:1021D0001800FFF707F92461C9F10703A3616462DE
:1021E000676584F8587042460199284601F06AFAFA
:1021F000206006B1346001F09FFA3A4B9A6C0132CC
:102200009A64D3F8DC304BBB364BC3F8DC409B6C94
:10221000012B31D1334E06F14C05D8362846FFF755
:10222000D5F81435AE42F9D12E4D05F1E807384600
:10223000FFF7CCF805F1FC063046FFF7C7F805F1CB
:102240001400FFF7C3F805F13400FFF7BFF8284684
:10225000FFF7BCF8AF62C5F8E4600DE0214BD3F89E
:1022600010314BB91F4BD3F8DC30DA6AE36A9A427B
:102270009CBF1C4BC3F8DC401A4DD5F81431013318
:10228000C5F814316364E36AD5F8E01001229A407E
:102290000A43C5F8E02005F14C0003EB83035946DF
:1022A00000EB8300FFF7A2F801F068FAD5F81031CF
:1022B0007BB1D5F8DC30DA6AE36A9A420BD24FF090
:1022C0008052094B1A60BFF34F8FBFF36F8F01200D
:1022D00005E0012003E0012001E04FF0FF3003B0F2
:1022E000BDE8F08F64E5002004ED00E070B5044621
:1022F00001F022FA14B9304BD3F8DC40261D3046E9
:10230000FFF79AF880B9E16A01EB81022A4B03EBEF
:102310008203DB6C43B92848D0F8E03001228A40C0
:1023200023EA0203C0F8E030A36A1BB104F11800ED
:10233000FFF782F8204BD3F814210132C3F814219F
:10234000D3F8DC309C4209D11B4D314605F13400F5
:10235000FFF74CF82B6B01332B630BE0164A936CA1
:10236000013B9364206BFEF7B5F82046FEF7B2F808
:10237000FFF760FE01F002FA0F4BD3F81031CBB13A
:102380000D4BD3F8DC309C4214D10B4BD3F81831F1
:1023900043B14FF0500383F31188BFF36F8FBFF346
:1023A0004F8FFEE74FF08052044B1A60BFF34F8F00
:1023B000BFF36F8F70BD00BF64E5002004ED00E047
:1023C000F8B540B94FF0500383F31188BFF36F8F16
:1023D000BFF34F8FFEE70446184BD3F8DC3098422A
:1023E00021D001F0A9F96569144B9F6AD3F8E46024
:1023F00001F0C4F9BD4218D0B54218D00F4B9D4230
:1024000009D1A36AABB994F85830DBB2012B0CBFE9
:1024100002200320F8BD0A4B9D420CD0002D0CBFBA
:1024200004200120F8BD0020F8BD0220F8BD0220E4
:10243000F8BD0220F8BD0420F8BD00BF64E500200F
:1024400098E5002010B5044601F076F914B9044B64
:10245000D3F8DC40E46A01F091F9204610BD00BFDA
:1024600064E5002010B5044601F08EFAEFF3118305
:102470004FF0500282F31188BFF36F8FBFF34F8F7D
:1024800014B9034AD2F8DC40E06A83F3118810BD26
:1024900064E50020F8B5062908D94FF0500383F30E
:1024A0001188BFF36F8FBFF34F8FFEE704460629F5
:1024B00028BF06210D4601F03FF914B92E4BD3F881
:1024C000DC40E36CAB4253D00DD22B4AD2F8DC2077
:1024D000944210D0284AD2F8DC20D66AAE428CBF93
:1024E0000026012608E0244AD2F8DC60B44214BF7A
:1024F0000026012600E00026E76ABB4208BFE5622D
:10250000E564A369002BA4BFC5F10705A56107EB2E
:1025100087021A4B03EB820362699A421FD1251D81
:102520002846FEF789FF48B91349D1F8E030012267
:1025300002FA07F723EA0703C1F8E030E06A0E4B1E
:10254000D3F8E020012181400A43C3F8E0204C3356
:1025500000EB8000294603EB8000FEF747FF3EB109
:102560004FF08052064B1A60BFF34F8FBFF36F8F4F
:1025700001F004F9F8BD00BF64E50020B0E50020DB
:1025800004ED00E040B94FF0500383F31188BFF32E
:102590006F8FBFF34F8FFEE770B50446184BD3F82B
:1025A000DC3098422BD001F0C7F82046FFF724FD1D
:1025B00018B3261D3046FEF73FFFE36A104DD5F8ED
:1025C000E020012199400A43C5F8E02005F14C00C4
:1025D00003EB8303314600EB8300FEF707FFD5F8DA
:1025E000DC30E26ADB6A9A4207D34FF08052054B37
:1025F0001A60BFF34F8FBFF36F8F01F0BFF870BD4C
:1026000064E5002004ED00E040B94FF0500383F38F
:102610001188BFF36F8FBFF34F8FFEE72DE9F041B5
:10262000044601F0B1F9EFF311884FF0500383F342
:102630001188BFF36F8FBFF34F8F2046FFF7DCFC8D
:1026400040B3174BD3F81831EBB9154DD5F8DC3042
:10265000E66ADB6A9E4234BF00260126271D384603
:10266000FEF7EAFEE06AD5F8E0300122824013432B
:10267000C5F8E0304C3500EB8000394605EB8000B2
:10268000FEF7B4FE07E004F118010648FEF7AEFEBF
:10269000002600E0002688F311883046BDE8F0816E
:1026A00064E5002078E5002000B583B0174B019366
:1026B00000230093802216491648FFF73BFD0128AE
:1026C00014D14FF0500383F31188BFF36F8FBFF322
:1026D0004F8F114B4FF0FF32DA620122C3F8102105
:1026E0000022C3F8D82001F0C7F80BE0B0F1FF3F9B
:1026F00008D14FF0500383F31188BFF36F8FBFF3FE
:102700004F8FFEE703B05DF804FB00BF80E60020BA
:10271000982402085920000864E5002008B54FF00D
:10272000500383F31188BFF36F8FBFF34F8F0022E5
:10273000024BC3F8102100F0EDFF08BD64E5002056
:10274000034AD2F818310133C2F81831704700BF7C
:1027500064E50020014BD3F8D800704764E5002001
:1027600008B501F011F9024BD3F8D80008BD00BF3D
:1027700064E50020014B986C704700BF64E50020C1
:10278000034660B9074BD3F8DC3043B94FF0500330
:1027900083F31188BFF36F8FBFF34F8FFEE703F111
:1027A0003400704764E500202DE9F047404BD3F832
:1027B0001831002B6CD13E4BD3F8D8600136C3F8EA
:1027C000D860CEB99B6A1B6843B14FF0500383F3C6
:1027D0001188BFF36F8FBFF34F8FFEE7344B9A6AB8
:1027E000D3F8E4109962C3F8E420D3F82021013231
:1027F000C3F82021FFF71EFC2D4BDB6A9E4201D25D
:10280000002438E000242A4D4FF0010A05F14C095C
:10281000AB6A1B6823B94FF0FF32254BDA622AE01E
:10282000AB6ADB68DF687B689E4202D2204AD362D3
:1028300021E007F104084046FEF7FEFDBB6A1BB12C
:1028400007F11800FEF7F8FDF86AD5F8E0300AFA4B
:1028500000F21343C5F8E03000EB8000414609EB7D
:102860008000FEF7C3FDD5F8DC30FA6ADB6A9A42D5
:1028700028BF0124CCE70E4BD3F8DC20D26A02EB50
:10288000820203EB8203DB6C022B28BF012406E0EB
:10289000074AD2F824310133C2F824310024044B12
:1028A000D3F82831002B0CBF20460120BDE8F0876B
:1028B00064E50020394BD3F8183143B94FF0500389
:1028C00083F31188BFF36F8FBFF34F8FFEE72DE9BE
:1028D000F04100F031FF314BD3F81821013AC3F831
:1028E0001821D3F81831002B50D12C4B9B6C1BBBFB
:1028F00000244EE0236ADD6805F11800FEF79CFD18
:102900002F1D3846FEF798FDE86AD4F8E03006FA45
:1029100000F21343C4F8E03000EB8000394608EBC6
:102920008000FEF763FDD4F8DC30EA6ADB6A9A4285
:1029300007D3C4F8286104E00025184C012604F1EF
:102940004C086369002BD5D10DB1FFF773FB134B16
:10295000D3F8244164B11E460125FFF725FF08B1D5
:10296000C6F82851013CF8D100220C4BC3F82421B1
:102970000A4BD3F828315BB14FF08052084B1A60F4
:10298000BFF34F8FBFF36F8F012402E0002400E0FC
:10299000002400F0F3FE2046BDE8F08164E500204D
:1029A00004ED00E010B5B0B104460F4BD3F8183178
:1029B00043B14FF0500383F31188BFF36F8FBFF320
:1029C0004F8FFEE7FFF7BCFE00212046FFF770FBAC
:1029D000FFF770FF38B94FF08052044B1A60BFF315
:1029E0004F8FBFF36F8F10BD64E5002004ED00E052
:1029F000214BD3F8183123B101221F4BC3F82821F2
:102A000070471D4A0023C2F82831D2F8E030B3FAEB
:102A100083F3DBB2C3F11F0303EB830102EB8102FB
:102A2000D26C42B94FF0500383F31188BFF36F8F1C
:102A3000BFF34F8FFEE710B40F4A9900C81802EB9E
:102A40008000046D6468046502465432944206D1E5
:102A5000606803EB8301084A02EB81021065064AB5
:102A600003EB830302EB83031B6DDB68C2F8DC30EE
:102A70005DF8044B704700BF64E5002038B504469C
:102A800000F05AFE14B9314BD3F8DC40251D28461E
:102A9000FEF7D2FC80B9E16A01EB81022B4B03EB1C
:102AA0008203DB6C43B92948D0F8E03001228A4028
:102AB00023EA0203C0F8E030A36A1BB104F1180056
:102AC000FEF7BAFC29462148FEF790FC94F85830EE
:102AD000DBB2012B04BF002384F8583000F04EFE17
:102AE0001A4BD3F810312BB100F026FEFFF7A2FAF3
:102AF00000F044FE154BD3F8DC309C4225D1134B3B
:102B0000D3F81031ABB1114BD3F8183143B14FF0BA
:102B1000500383F31188BFF36F8FBFF34F8FFEE72E
:102B20004FF080520A4B1A60BFF34F8FBFF36F8F85
:102B300038BD064B1A689B6C9A4204D10022034BA5
:102B4000C3F8DC2038BDFFF753FF38BD64E5002033
:102B500004ED00E040B94FF0500383F31188BFF358
:102B60006F8FBFF34F8FFEE710B50C46054BD3F8C0
:102B7000DC101831FEF746FC01212046FFF798FAD9
:102B800010BD00BF64E5002040B94FF0500383F34F
:102B90001188BFF36F8FBFF34F8FFEE703461048D6
:102BA000D0F8180140B94FF0500383F31188BFF3F8
:102BB0006F8FBFF34F8FFEE710B5184614460B46D4
:102BC000074AD2F8DC1043F000438B61D2F8DC10E6
:102BD0001831FEF70BFC01212046FFF769FA10BD02
:102BE00064E5002038B5C368DC6844B94FF0500391
:102BF00083F31188BFF36F8FBFF34F8FFEE704F1AC
:102C000018052846FEF718FC154BD3F81831ABB958
:102C1000251D2846FEF710FCE06A114BD3F8E02092
:102C2000012181400A43C3F8E0204C3300EB8000CF
:102C3000294603EB8000FEF7D9FB03E0294609484B
:102C4000FEF7D4FB064BD3F8DC30E26ADB6A9A422B
:102C500083BF0120024BC3F82801002038BD00BF0C
:102C600064E5002078E500201E4BD3F8183143B905
:102C70004FF0500383F31188BFF36F8FBFF34F8F73
:102C8000FEE770B541F000430360C46844B94FF0FB
:102C9000500383F31188BFF36F8FBFF34F8FFEE7AD
:102CA000FEF7CAFB261D3046FEF7C6FBE36A0D4D54
:102CB000D5F8E020012199400A43C5F8E02005F14C
:102CC0004C0003EB8303314600EB8300FEF78EFBE1
:102CD000D5F8DC30E26ADB6A9A4202D90122C5F8F3
:102CE000282170BD64E5002040B94FF0500383F304
:102CF0001188BFF36F8FBFF34F8FFEE710B5044607
:102D000000F01AFD044BD3F820212260D3F8D8300C
:102D1000636000F033FD10BD64E50020034BD3F881
:102D200020210260D3F8D8304360704764E500206A
:102D300040B94FF0500383F31188BFF36F8FBFF397
:102D40004F8FFEE770B5054641B94FF0500383F34E
:102D50001188BFF36F8FBFF34F8FFEE70C4600F073
:102D6000EBFC124BD3F8D82069682368B3F1FF3F1E
:102D700015D00E48D0F820012E68864201D08A4234
:102D80000FD2521A9A4206D29B1A23602846FFF7A6
:102D9000C5FF002406E000232360012402E0002494
:102DA00000E0012400F0EAFC204670BD64E500204C
:102DB0000122024BC3F82821704700BF64E50020C0
:102DC00008B1806C70470020704700BF00B181647B
:102DD000704700BF70B50C461646054610B91F4A2D
:102DE000D2F8DC50256005F134026260EA6A2261A3
:102DF0002A6BE2616A6CA260EA6C62610022A261E5
:102E0000052B13D0154AD2F8DC20954202D10023BD
:102E100023730FE02373032B0CD1FFF791FCAB6AF4
:102E20000BB102232373FFF745FD03E02846FFF7AC
:102E3000C7FA207376B1286B0378A52B06D1431C03
:102E4000191A13F8012BA52AFAD000E000218908ED
:102E5000218470BD0023238470BD00BF64E5002081
:102E60002DE9F84F0B682BB34B685B684B6001F1A1
:102E700008094B4504BF5B684B6090460C464B68A5
:102E8000D3F80CB0054600274FF0010A63685B6871
:102E90006360994504BFE36863606368DE68434626
:102EA000524629463046FFF795FF01372435B34592
:102EB000ECD100E000273846BDE8F88F2DE9F84353
:102EC00007460C461646FFF73BFC244B9B6CA3427F
:102ED0003ED8224B03F1C40503F1380800244FF01B
:102EE000010904EBC4004A46294607EB8000FFF7BE
:102EF000B7FF0444143D4545F3D1184DA96A04EBCE
:102F0000C400022207EB8000FFF7AAFF0444D5F8B3
:102F1000E41004EBC400022207EB8000FFF7A0FFDF
:102F2000044404EBC400042205F1340107EB8000E3
:102F3000FFF796FF044404EBC4000322294607EB85
:102F40008000FFF78DFF04441EB10023336000E0D2
:102F50000024FFF7AFFC2046BDE8F88364E50020BD
:102F6000014BD3F8DC00704764E50020064BD3F832
:102F700010313BB1044BD3F81831002B0CBF0220A9
:102F8000002070470120704764E5002000285AD0D7
:102F900038B50346C26A2D49D1F8DC10C96A8A42A5
:102FA00047D28169002906DB2849D1F8DC10C96ABB
:102FB000C1F10701816102EB8202254901EB820226
:102FC000596991422ED11C461D1D2846FEF734FA40
:102FD00088B9E26A02EB82011C4B03EB8103DB6CD4
:102FE0004BB91A48D0F8E030012101FA02F223EA85
:102FF0000202C0F8E020154BD3F8DC20D06AE06272
:10300000D3F8E020012404FA00F10A43C3F8E020D9
:103010004C3300EB8000294603EB8000FEF7E6F915
:10302000204638BD094AD2F8DC20D26ADA62012093
:1030300038BD064AD2F8DC20C36CD06A83422CBF6C
:103040000020012038BD0020704700BF64E500204B
:10305000B0E50020002851D038B503462A4AD2F8FE
:10306000DC20904208D04FF0500383F31188BFF367
:103070006F8FBFF34F8FFEE7026D42B94FF05003E1
:1030800083F31188BFF36F8FBFF34F8FFEE7013AD1
:103090000265C06AD96C884232D09ABB1C461D1D9D
:1030A0002846FEF7C9F980B9E16A01EB8102164BA7
:1030B00003EB8203DB6C43B91348D0F8E030012204
:1030C0008A4023EA0203C0F8E030E36CE362C3F114
:1030D0000702A2610C4AD2F8E010012404FA03F0BE
:1030E0000143C2F8E01002F14C0003EB83032946D0
:1030F00000EB8300FEF77AF9204638BD00207047C8
:10310000002038BD002038BD64E5002000285BD0D9
:1031100038B50346006D40B94FF0500383F3118872
:10312000BFF36F8FBFF34F8FFEE7DA6C8A4238BF71
:103130000A46D96A914246D0012844D12348D0F8A2
:10314000DC00834208D14FF0500383F31188BFF3B2
:103150006F8FBFF34F8FFEE7DA6298690028A4BF34
:10316000C2F107029A6101EB8101194A02EB810168
:103170005A698A4227D11C461D1D2846FEF75CF974
:1031800080B9E16A01EB8102104B03EB8203DB6C37
:1031900043B90E48D0F8E03001228A4023EA020306
:1031A000C0F8E030E06A094BD3F8E020012181400B
:1031B0000A43C3F8E0204C3300EB8000294603EBC0
:1031C0008000FEF713F938BD704700BF64E50020AA
:1031D000B0E50020064BD3F8DC209069D3F8DC2062
:1031E000D3F8DC30DB6AC3F107039361704700BF9B
:1031F00064E50020064BD3F8DC302BB1044BD3F848
:10320000DC20136D01331365014BD3F8DC007047EC
:1032100064E5002038B505460C4600F08DFA1B4BDE
:10322000D3F8DC305B6D93B9184BD3F8DC30012256
:1032300083F858205CB111462046FEF739FF4FF065
:103240008052134B1A60BFF34F8FBFF36F8F00F0A4
:1032500095FA00F071FA0D4BD3F8DC305C6D5CB17F
:103260002DB10A4BD3F8DC3000225A6504E0074B3D
:10327000D3F8DC30621E5A65044BD3F8DC300022F0
:1032800083F8582000F07AFA204638BD64E5002023
:1032900004ED00E0F8B507460D4614461E4600F062
:1032A0004BFA234BD3F8DC3093F85830DBB2022BC7
:1032B00018D01F4BD3F8DC20506D20EA0700506572
:1032C000D3F8DC30012283F858205EB11146304635
:1032D000FEF7EEFE4FF08052164B1A60BFF34F8F91
:1032E000BFF36F8F00F04AFA00F026FA24B1104BBA
:1032F000D3F8DC305B6D23600D4BD3F8DC3093F8F2
:103300005830DBB2022B08D1094BD3F8DC20536DC7
:1033100023EA05055565012400E00024044BD3F899
:10332000DC30002283F8582000F028FA2046F8BD4F
:1033300064E5002004ED00E0F8B540B94FF050031B
:1033400083F31188BFF36F8FBFF34F8FFEE70446FF
:103350001F4616460D4600F0EFF90FB1636D3B6056
:1033600094F85830DBB2022284F85820042E12D888
:10337000DFE806F01E03070B0D00626D154365655F
:1033800016E0626D0132626512E0656510E0022BA5
:1033900041D065650CE0626DB2F1FF3F08D04FF09F
:1033A000500383F31188BFF36F8FBFF34F8FFEE796
:1033B000012B32D1251D2846FEF73EF8E06A1A4B54
:1033C000D3F8E020012181400A43C3F8E0204C33C8
:1033D00000EB8000294603EB8000FEF707F8A36AA4
:1033E00043B14FF0500383F31188BFF36F8FBFF3E6
:1033F0004F8FFEE70C4BD3F8DC30E26ADB6A9A426F
:103400000DD94FF08052094B1A60BFF34F8FBFF3B5
:103410006F8F012404E0002402E0012400E0012475
:1034200000F0ACF92046F8BD64E5002004ED00E0B2
:103430002DE9F843089F40B94FF0500383F31188FA
:10344000BFF36F8FBFF34F8FFEE704469946904658
:103450000E4600F099FAEFF311854FF0500383F315
:103460001188BFF36F8FBFF34F8FB9F1000F02D0F8
:10347000636DC9F8003094F85830DBB2022284F84A
:103480005820B8F1040F12D8DFE808F01E03070B2C
:103490000D00626D1643666516E0626D013262656D
:1034A00012E0666510E0022B49D066650CE0626DA3
:1034B000B2F1FF3F08D04FF0500383F31188BFF300
:1034C0006F8FBFF34F8FFEE7012B3AD1A36A43B151
:1034D0004FF0500383F31188BFF36F8FBFF34F8F0B
:1034E000FEE71B4BD3F81831ABB9261D3046FDF76C
:1034F000A3FFE06A164BD3F8E020012181400A4384
:10350000C3F8E0204C3300EB8000314603EB800031
:10351000FDF76CFF04E004F118010E48FDF766FFAB
:103520000B4BD3F8DC30E26ADB6A9A420BD90FB15D
:1035300001233B600120064BC3F8280104E0002072
:1035400002E0012000E0012085F31188BDE8F88346
:1035500064E5002078E50020F8B540B94FF050034D
:1035600083F31188BFF36F8FBFF34F8FFEE70446DD
:103570000D4600F009FAEFF311874FF0500383F383
:103580001188BFF36F8FBFF34F8F94F85830DBB2C1
:10359000022284F85820626D01326265012B37D116
:1035A000A36A43B14FF0500383F31188BFF36F8FC9
:1035B000BFF34F8FFEE7184BD3F81831ABB9261D78
:1035C0003046FDF739FFE06A134BD3F8E0200121C4
:1035D00081400A43C3F8E0204C3300EB80003146C1
:1035E00003EB8000FDF702FF04E004F118010B4833
:1035F000FDF7FCFE084BD3F8DC30E26ADB6A9A4246
:1036000006D90DB101232B600122034BC3F82821F9
:1036100087F31188F8BD00BF64E5002078E500203D
:1036200010B5044610B9094BD3F8DC4000F084F81B
:1036300094F85830DBB2022B03BF002384F85830D3
:103640000124002400F09AF8204610BD64E5002013
:1036500082B0002301930D4B1B68B3F1FF3F08D0EC
:103660004FF0500383F31188BFF36F8FBFF34F8F79
:10367000FEE74FF0500383F31188BFF36F8FBFF362
:103680004F8F019B002BFCD002B07047040000203C
:10369000D3480068006880F308884FF0000080F38A
:1036A000148862B661B6BFF34F8FBFF36F8F00DF30
:1036B00000BF00BFDFF82C03016841F47001016016
:1036C000704700BF4FF0807340F8043C21F00101C7
:1036D00040F8081C054B40F80C3C40F8202C6FF0DB
:1036E000020340F8243C4438704700BF51360008BC
:1036F000074B19680868B0E8F04F80F30988BFF3FA
:103700006F8F4FF0000080F311887047AFF3008097
:1037100040E60020074B1B68B3F57A7F08D04FF0D6
:10372000500383F31188BFF36F8FBFF34F8FFEE712
:10373000704700BF040000204FF0500383F311884E
:10374000BFF36F8FBFF34F8F0A4A136801331360C3
:10375000012B0DD1084B1B6813F0FF0F08D04FF061
:10376000500383F31188BFF36F8FBFF34F8FFEE7D2
:10377000704700BF0400002004ED00E0094B1B6807
:1037800043B94FF0500383F31188BFF36F8FBFF33A
:103790004F8FFEE7013B034A13600BB983F3118897
:1037A000704700BF04000020EFF30980BFF36F8F64
:1037B000174B1A681EF0100F08BF20ED108A20E981
:1037C000F04F10602DE909004FF0500080F3118890
:1037D000BFF34F8FBFF36F8FFFF70AF94FF0000071
:1037E00080F3118809BC19680868B0E8F04F1EF032
:1037F000100F08BFB0EC108A80F30988BFF36F8FF9
:10380000704700BFAFF30080AFF30080AFF30080DC
:1038100040E6002008B54FF0500383F31188BFF352
:103820006F8FBFF34F8FFEF7BFFF18B14FF080527D
:10383000024B1A60002383F3118808BD04ED00E0F9
:10384000084A0023136008490B60084B1B680849AD
:10385000A1FB03139B09013B06490B60072313607F
:10386000704700BF10E000E018E000E064000020B6
:10387000D34D621014E000E03B4B1A683B4B9A4278
:1038800008D14FF0500383F31188BFF36F8FBFF35C
:103890004F8FFEE7344B1A68354B9A4208D14FF0F0
:1038A000500383F31188BFF36F8FBFF34F8FFEE791
:1038B00010B582B02F4B1A78D2B20192FF221A7043
:1038C0001B78DBB28DF803309DF803302A4A03F0F1
:1038D00050031370072353609DF8033013F0800FDB
:1038E00012D0062300E00B469DF803205200D2B20E
:1038F0008DF803209DF80320591E12F0800FF2D19D
:103900001D4A5360032B08D04FF0500383F31188F6
:10391000BFF36F8FBFF34F8FFEE71B0203F4E0632B
:10392000154A5360019BDBB2124A1370134B1A689D
:1039300042F470021A601A6842F070421A60FFF78F
:103940007FFF00240E4B1C60FFF7B4FE0D4A136886
:1039500043F040431360FFF79BFEFFF749F8FFF782
:1039600077FE204602B010BD00ED00E071C20F41AD
:1039700070C20F4100E400E090E6002020ED00E07E
:103980000400002034EF00E0EFF305830F2B0FD984
:10399000104A9B5CDBB2104A12789A4208D94FF069
:1039A000500383F31188BFF36F8FBFF34F8FFEE790
:1039B0000A4B1B6803F4E063074A5268934208D934
:1039C0004FF0500383F31188BFF36F8FBFF34F8F16
:1039D000FEE77047F0E300E090E600200CED00E029
:1039E00008ED00E088ED00E038B50A46084B1B689A
:1039F00013B90849064B1960054C25682B685968AE
:103A000017F07CFD68682060003018BF012038BDC9
:103A100098E600200800002038B540B94FF0500368
:103A200083F31188BFF36F8FBFF34F8FFEE7054617
:103A30000820FCF7B7FC044640B94FF0500383F36D
:103A40001188BFF36F8FBFF34F8FFEE7FFF774FE50
:103A5000256000236360044B9A6854609C60FFF704
:103A60008DFE012038BD00BF080000202DE9F04781
:103A7000064688469146334B5B68002B46D1324B55
:103A8000304A53601C46174600E01C46D4F800A09C
:103A9000DAF80050284617F073FC335C13F0DF0FA0
:103AA00024D102462946304617F0D8FCF0B99AF9DD
:103AB0000C50002D3DDB33789BB132460146044665
:103AC0000127202B04D121B9013040B2394600E052
:103AD000214612F8013F002BF3D119B1013840B251
:103AE00000E00020174B5B682BB91BE063687B602C
:103AF000002BCAD116E0854208D04A4613494046F9
:103B000017F0FCFC00230F4A536017E01B689B680A
:103B10003246494640469847034678B90021094A4B
:103B200051600BE04A460A49404617F0E7FC002383
:103B300004E0044B5B68002BF4D0E7E71846BDE8CF
:103B4000F08700BF98E6002008000020A0240208AB
:103B5000F824020800487047A0E600200023136004
:103B6000F9B91846704710F8013F33B3202BFAD14A
:103B700010F8013F202BFBD0DBB101318C4213D177
:103B8000037813F0DF0F16D001461368013313607A
:103B900011F8014F14F0DF0FF7D1002B08BF002000
:103BA0000DE010B40C460021037833B1202BDAD19C
:103BB000DEE7002003E0002001E00378DCE75DF8A9
:103BC000044B7047F0B595B007468E46104C0AADD1
:103BD00026460FCE0FC50FCE0FC596E8030085E829
:103BE00003006D4628340FCC0FC50FCC0FC594E8E9
:103BF000030085E8030014AB03EB8700724630F83E
:103C0000281C50F8500C0BF07FF915B0F0BD00BF28
:103C1000B822020838B50546002405F001016D08F8
:103C20002046FFF7CFFF01340A2CF6D138BD00BF84
:103C30002DE9F04190B000220192654B196B41F0E3
:103C400004011963196B01F00401019101990292B9
:103C5000196B41F002011963196B01F00201029125
:103C600002990392196B41F002011963196B01F07B
:103C70000201039103990492196B41F00201196347
:103C8000196B01F00201049104990592196B41F03E
:103C900001011963196B01F0010105910599069263
:103CA000196B41F004011963196B01F004010691CD
:103CB00006990792196B41F002011963196B01F023
:103CC0000201079107990892196B41F002011963EB
:103CD000196B01F00201089108990992196B41F0E2
:103CE00001011963196B01F00101099109990A9207
:103CF0001A6B42F002021A631B6B03F002030A9371
:103D00000A9B40230B9301250C9502240D940E94DD
:103D1000304F0BA938460AF043FF4FF40048CDF866
:103D20002C800C950D940E942B4E0BA930460AF066
:103D300037FF4FF400530B930C950D940E940BA981
:103D400030460AF02DFF4FF480530B930C950D94E1
:103D50000E940BA930460AF023FFCDF82C800C9569
:103D60000D940E94DFF874800BA940460AF018FFFA
:103D700080230B930C950D940E940BA938460AF0F2
:103D80000FFF20230B930C950D940E940BA9304636
:103D90000AF006FF08230B930C950D940E940BA9C3
:103DA00030460AF0FDFE10270B970C950D940E94EB
:103DB0000BA940460AF0F4FE0B970C950D940E9457
:103DC0000BA930460AF0ECFE10B0BDE8F08100BF50
:103DD0000038024000080240000402400000024097
:103DE000F0B583B0002202210520FCF7D7FC174B69
:103DF000186000273E461D460A2428680028FDD08A
:103E0000224601A9FCF70AFF0028F6D09DF80430ED
:103E1000722B06D19DF80560B0B21F2810D8FFF7AD
:103E2000F9FE9DF804306C2B05D19DF805707F01DB
:103E30003846FFF7EFFE47EA0600FFF7EBFEDBE749
:103E400006F01F063046FFF7E5FEEAE768E80020C7
:103E500000B583B000230193032200924FF48072D7
:103E600004490548FEF766F9FFF7E2FE03B05DF886
:103E700004FB00BF80250208E13D000884B010B5B6
:103E800002AC84E80F00204610F0B2FC0A24214660
:103E900002A810F069FD0028F9D102A810F0B2FFC5
:103EA00080B2BDE8104004B0704700BF2DE9F04378
:103EB00093B0002400944C4D2B6B43F020032B63F4
:103EC0002B6B03F020030093009B4FF00809CDF803
:103ED0003490464B0E9301270F97022310930DA9A0
:103EE00043480AF05DFE22460A21092005F054FAF3
:103EF000092005F083FA01942B6B43F004032B6334
:103F00002B6B03F004030193019B0D974FF0030803
:103F1000CDF838800F94374E0DA930460AF040FE98
:103F200002942B6B43F004032B632B6B03F004030D
:103F30000293029BCDF83490CDF838800F940DA9F0
:103F400030460AF02DFE03946B6C43F480736B646F
:103F50006B6C03F480730393039B274E274B3360F2
:103F60007460B4603461347686F820407462F46220
:103F7000B462F460F76186F83040746104946B6C4D
:103F800043F400736B646B6C03F400730493049B41
:103F90001B4D1C4B2B606C60AC602C612C7685F843
:103FA00020406C62EC62AC62EC60EF6185F83040FE
:103FB0006C61304610F03CFB284610F039FB0A23B8
:103FC00009930A970B940C940D2305930697079475
:103FD000089409A9304611F011F805A9284611F0F6
:103FE0000DF813B0BDE8F083003802400000111056
:103FF000001402400008024074E700200020014045
:10400000CCE700200021014070B58EB02A4E6C46EE
:1040100006F110050FCD0FC40FCD0FC40FCD0FC487
:1040200095E8030084E8030096E80F00FFF726FFF9
:10403000092803DC0022214B1A603BE0A0F10B03AE
:10404000B3F5777F03D801221C4B1A6032E0A0F24F
:10405000E933B3F5F97F03D80222184B1A6029E03F
:10406000A0F2DD53B3F5F97F03D80322134B1A6096
:1040700020E0A0F2D173622B03D804220F4B1A6008
:1040800018E0A0F6C513B3F5F97F03D805220B4B52
:104090001A600FE0A0F6B933B3F5886F03D8062293
:1040A000064B1A6006E040F6FA73984202DD0722DA
:1040B000024B1A600EB070BD74E7002004E70020C8
:1040C00070B58EB0224E6C4606F110050FCD0FC4B0
:1040D0000FCD0FC40FCD0FC495E8030084E8030093
:1040E00096E80F00FFF7CAFE092803DC0022194BEF
:1040F0005A602BE0A0F10B0240F2BA739A4203D847
:104100000122144B5A6021E0A0F2C773082B03D898
:104110000222104B5A6019E0A0F2D17240F2E6334D
:104120009A4203D803220B4B5A600FE0A0F6B93332
:10413000B3F5886F03D80422064B5A6006E040F6B8
:10414000FA73984202DD0522024B5A600EB070BD30
:10415000CCE7002004E7002030B583B0FFF7A6FECF
:10416000002208210A20FCF719FB0F4B18600F4CA6
:104170001D46FFF749FFFFF7A3FF2368009363681D
:104180000193286850B101230A226946FCF74EFBCF
:10419000012803D0FFF7D0FAFFF7F0FA4FF4FA70D6
:1041A000FEF700FCE5E700BFC8E7002004E70020B9
:1041B000082816D100B583B000230193094B186875
:1041C00060B101A9FCF7C2FC019B3BB14FF08052EA
:1041D000054B1A60BFF34F8FBFF36F8F03B05DF8CD
:1041E00004FB7047C4E7002004ED00E008B5082098
:1041F0000AF0B0FE08BD00BF30B583B000240194C2
:104200000325009523464FF4007206490648FDF742
:1042100091FF2A4621460120FCF7C0FA034B1860A3
:1042200003B030BD8025020859410008C4E70020D2
:104230000022014B1A607047B0E800200622014BB3
:104240001A607047B0E8002070B5044601281AD102
:10425000384E00224FF4006130460AF055FE364DCC
:1042600001224FF4804128460AF04EFE01224FF40D
:10427000005130460AF048FE01224FF40041284622
:104280000AF042FE39E002281AD12A4D01224FF4E9
:10429000006128460AF038FE274C00224FF4804186
:1042A00020460AF031FE01224FF4005128460AF060
:1042B0002BFE01224FF4004120460AF025FE70BD7E
:1042C00003281AD11B4D01224FF4006128460AF041
:1042D0001BFE194C01224FF4804120460AF014FEC7
:1042E00000224FF4005128460AF00EFE01224FF43E
:1042F000004120460AF008FE70BD042C19D10D4D76
:1043000001224FF4006128460AF0FEFD0A4C01220A
:104310004FF4804120460AF0F7FD01224FF400518E
:1043200028460AF0F1FD00224FF4004120460AF031
:10433000EBFD70BD001002400014024038B5114D75
:104340004FF4005128460AF0D9FD04464FF480513D
:1043500028460AF0D3FD18B1B4FA84F4640900E0E9
:1043600002244FF4004108480AF0C8FD002808BFA5
:104370000324202103480AF0C1FD002814BF204671
:10438000042038BD00140240000C024008B5264B42
:104390001B68052B47D8DFE803F003071019222B11
:1043A0000122214B1A6008BD0120204B1860FFF745
:1043B0004BFF05221C4B1A6008BD02201B4B1860E6
:1043C000FFF742FF0522184B1A6008BD0320174B68
:1043D0001860FFF739FF0522134B1A6008BD04204F
:1043E000124B1860FFF730FF05220F4B1A6008BD13
:1043F000FFF7A4FF0D4B1B68012B03D102210A4AD2
:1044000011600BE0022B03D10322074B1A6008BD99
:10441000032B03D10422044B1A6008BD042B02D1E4
:104420000122014B1A6008BDB0E8002010E700200F
:1044300008B5FFF783FF18B10122044B1A6002E0B0
:104440000022024B1A60014B186808BDB4E8002036
:1044500008B5FFF773FF0346264A1268012A0CD1FC
:10446000012805D002283AD0032815D0002000E00A
:104470000420042B08BF01201FE0022A0ED10128CE
:1044800005D002282DD003282FD0002000E00820DE
:10449000042B08BF052008BD022000E00020032AED
:1044A0000BD1012B04D0022B1DD0032B1FD000E019
:1044B0000C20042B08BF092008BD042A18D1012BA9
:1044C00004D0022B07D0032B07D000E01020042BD0
:1044D00008BF0D2008BD0F2008BD0E2008BD032019
:1044E000EBE7072008BD0B2008BD0620E5E70A2002
:1044F00008BD00BF10E7002008B5FFF7A9FF03467D
:10450000012805D0022807D0032809D0002000E0A8
:104510003120042B08D000E03420052B08D000E027
:104520003720062B08D000E03020072B08D000E011
:104530003220082B08D000E03520092B08D000E0FD
:1045400038200A2B08D000E046200B2B08D000E0D2
:1045500033200C2B08D000E036200D2B08D000E0D3
:1045600039200E2B09D000E045200F2B07D000E0AA
:104570004120102B08BF442008BD422008BD432025
:1045800008BD00BF2DE9F04F89B000260096544BBE
:104590001A6B42F010021A631A6B02F010020092BA
:1045A000009A01961A6B42F020021A631A6B02F00D
:1045B00020020192019A02961A6B42F010021A63CD
:1045C0001A6B02F010020292029A03961A6B42F0E2
:1045D00020021A631A6B02F020020392039A0496D7
:1045E0001A6B42F020021A631A6B02F02002049246
:1045F000049A05961A6B42F008021A631A6B02F0CD
:1046000008020592059A06961A6B42F020021A6378
:104610001A6B02F020020692069A07961A6B42F075
:1046200020021A631B6B03F020030793079B2D4C9A
:104630004FF40049C4F80090012767600225A56087
:10464000E560DFF8A880214640460AF0A9FA4FF459
:10465000005AC4F800A06760A560E560DFF890B07C
:10466000214658460AF09CFA4FF480432360676065
:10467000A560E560214640460AF092FA4FF40063D7
:1046800023606760A560E560214658460AF088FA15
:10469000C4F800A06660A760E560214640460AF0C5
:1046A0007FFA4FF4805323606660A760E56021467F
:1046B00040460AF075FAC4F800906660A760E560AD
:1046C000214609480AF06CFA202323606660A7603F
:1046D000E560214640460AF063FA09B0BDE8F08F74
:1046E0000038024014E80020000C02400014024090
:1046F0000010024008B5012016F022FAFFF798FEDC
:10470000012802D116F038FA08BD012016F018FA77
:1047100008BD00BFF8B5FDF79FFA614B18601D4654
:104720004FF400574FF48056FFF730FEFFF790FE2E
:104730000446FFF7DFFF012C08D101212868FDF7AF
:104740005DFBFEF7F9FFFFF719F8A4E0022C08D192
:1047500008212868FDF752FBFEF7EEFFFFF70EF881
:1047600099E0032C08D140212868FDF747FBFEF7AC
:10477000E3FFFFF703F88EE0042C09D14FF400713A
:104780002868FDF73BFBFEF7D7FFFEF7F7FF82E057
:10479000052C08D102212868FDF730FBFEF7CCFF7D
:1047A000FEF7ECFF77E0062C08D110212868FDF712
:1047B00025FBFEF7C1FFFEF7E1FF6CE0072C08D1F7
:1047C00080212868FDF71AFBFEF7B6FFFEF7D6FF3B
:1047D00061E0082C09D14FF400412868FDF70EFB79
:1047E000FEF7AAFFFEF7CAFF55E0092C08D1042105
:1047F0002868FDF703FBFEF79FFFFEF7BFFF4AE0C7
:104800000A2C08D120212868FDF7F8FAFEF794FF5A
:10481000FEF7B4FF3FE00B2C09D14FF480712868FC
:10482000FDF7ECFAFEF788FFFEF7A8FF33E00C2C4B
:1048300004D1FEF781FFFEF7A1FF2CE00D2C09D17A
:104840004FF480612868FDF7D9FAFEF775FFFEF78F
:1048500095FF20E00E2C09D14FF400612868FDF788
:10486000CDFAFEF769FFFEF789FF14E00F2C08D19F
:1048700031462868FDF7C2FAFEF75EFFFEF77EFFBD
:1048800009E0102C07D139462868FDF7B7FAFEF782
:1048900053FFFEF773FF4FF4FA70FEF783F843E718
:1048A000B8E8002000B583B00023019303220092F2
:1048B0004FF4007205490648FDF73CFCFFF762FE25
:1048C000FFF7B6FC03B05DF804FB00BF80250208CB
:1048D00015470008C0EB001001440422014B43F8C7
:1048E00021207047C8E800202DE9F843114816F050
:1048F000C1FA114816F0BEFA0025DFF848800F4FC4
:104900000F4EDFF8449010E0E3195B5958F823107C
:10491000304616F0AFFA3C34B4F5617FF4D1484626
:1049200016F0A8FA04353C2D01D00024ECE7BDE8D0
:10493000F88300BF8825020890250208C8E80020F7
:1049400094250208140000209C250208F8B5104B9D
:104950001E6A86420ED1F8BD5A19115911B1105173
:10496000664677463C33B3F5617FF5D104343C2C81
:1049700006D107E000242746064D84464FF0010E7D
:104980000023E9E70FB1024B1E62FFF7ADFFF8BD50
:1049900014000020C8E8002070B582B0FDF75CF973
:1049A0003F4B18601C460A26002500962B46012224
:1049B000FF212068FDF75EF910F0010F0AD0FEF725
:1049C000BBFE2846FFF7C2FFFEF7D8FE0121206894
:1049D000FDF7E2F910F0020F0AD0FEF7ADFE01205C
:1049E000FFF7B4FFFEF7CAFE02212068FDF7D4F9F5
:1049F00010F0040F0AD0FEF79FFE0220FFF7A6FF7B
:104A0000FEF7BCFE04212068FDF7C6F910F0080F80
:104A10000AD0FEF791FE0320FFF798FFFEF7AEFEE7
:104A200008212068FDF7B8F910F0100F0AD0FEF742
:104A300083FE0420FFF78AFFFEF7A0FE1021206806
:104A4000FDF7AAF910F0200F0AD0FEF775FE052039
:104A5000FFF77CFFFEF792FE20212068FDF79CF90E
:104A600010F0400F0AD0FEF767FE0620FFF76EFF3A
:104A7000FEF784FE40212068FDF78EF910F0800FCC
:104A80000AD0FEF759FE0720FFF760FFFEF776FE1B
:104A900080212068FDF780F96420FDF783FF84E71B
:104AA000C4E8002000B583B00023019303220092E4
:104AB0004FF4007203490448FDF73CFB03B05DF876
:104AC00004FB00BF802502089949000808B5304B57
:104AD0001B684BB901212F4B1868FDF78FF9FEF7C2
:104AE0002BFEFEF74BFE08BD012B09D10221294BFD
:104AF0001868FDF783F9FEF71FFEFEF73FFE08BDBD
:104B0000022B09D10421234B1868FDF777F9FEF732
:104B100013FEFEF733FE08BD032B09D108211D4B00
:104B20001868FDF76BF9FEF707FEFEF727FE08BDD4
:104B3000042B09D11021174B1868FDF75FF9FEF718
:104B4000FBFDFEF71BFE08BD052B09D12021114BF3
:104B50001868FDF753F9FEF7EFFDFEF70FFE08BDED
:104B6000062B09D140210B4B1868FDF747F9FEF7DA
:104B7000E3FDFEF703FE08BD072B08D18021054B9E
:104B80001868FDF73BF9FEF7D7FDFEF7F7FD08BD06
:104B900050EC0020C4E8002008B51E4B5B684BB900
:104BA00001211D4B1868FDF729F9FEF7C5FDFEF739
:104BB000E5FD08BD012B09D10221174B1868FDF74F
:104BC0001DF9FEF7B9FDFEF7D9FD08BD022B09D18D
:104BD0000421114B1868FDF711F9FEF7ADFDFEF742
:104BE000CDFD08BD032B09D108210B4B1868FDF73B
:104BF00005F9FEF7A1FDFEF7C1FD08BD042B08D1A4
:104C00001021054B1868FDF7F9F8FEF795FDFEF742
:104C1000B5FD08BD50EC00204CEC002008B5084B59
:104C20001B68012B0BD12021064B1868FDF7E6F815
:104C3000FEF782FD0022024B1A60FEF79FFD08BDC1
:104C400014E700204CEC002008B5FFF7D5FAFDF77B
:104C500003F8164B1860FCF7FFFF154B1860154D55
:104C6000154E164C286850B10A21FCF77FF8012830
:104C700005D1FEF761FD01233360FEF77FFD20685B
:104C800070B10A220E49FBF7C9FF48B1FEF754FD87
:104C9000FFF71CFFFFF780FFFFF7C0FFFEF76EFD79
:104CA00040F6B830FDF77EFEDCE700BF4CEC00209C
:104CB000C4E80020C4E7002014E70020C8E7002073
:104CC00050EC002000B583B0064B01930323009302
:104CD00000234FF4007204490448FDF72BFA03B097
:104CE0005DF804FB18E7002000260208494C000884
:104CF00008B5024B5868FDF7F9FA08BD14E7002023
:104D0000054B1B68032B03DC0133034A1360704718
:104D10000022014B1A60704760EC0020054B1B68B5
:104D2000032B03DC0133034A136070470022014B5D
:104D30001A6070475CEC002038B55D4B1D685D4B18
:104D40001C6815BB24B90020FEF764FF01200EE0AB
:104D5000012C04D10120FEF75DFF06200EE0022C9D
:104D600004D10220FEF756FF0B2058E00020032C50
:104D700004D10320FEF74EFF10202CE0042C4ED16E
:104D80000420FEF747FF152049E0012D22D124B968
:104D90002020FEF73FFF02200EE0012C04D121204D
:104DA000FEF738FF07200EE0022C04D12220FEF788
:104DB00031FF0C2057E00020032C04D12320FEF704
:104DC00029FF11202BE0042C4DD12420FEF722FFD7
:104DD000162048E00020022D21D124B94020FEF702
:104DE00019FF03200DE0012C04D14120FEF712FF32
:104DF00008200DE0022C04D14220FEF70BFF0D200D
:104E000038BD032C04D14320FEF704FF12202AE012
:104E1000042C4BD14420FEF7FDFE172038BD032D96
:104E200021D124B96020FEF7F5FE04200DE0012C0D
:104E300004D16120FEF7EEFE09200DE0022C04D122
:104E40006220FEF7E7FE0E2038BD032C04D163205C
:104E5000FEF7E0FE132038BD042C27D16420FEF7B6
:104E6000D9FE182038BD042D20D124B98020FEF7AA
:104E7000D1FE05200DE0012C04D18120FEF7CAFEF1
:104E80000A200DE0022C04D18220FEF7C3FE0F2081
:104E900038BD032C04D18320FEF7BCFE142038BD9E
:104EA000042C03D18420FEF7B5FE192038BD00BFC5
:104EB00060EC00205CEC002008B5FCF7CDFE104B48
:104EC0001860104B1B683BB92021FCF797FFFEF7D9
:104ED00033FCFEF753FC08BD012B07D14021FCF742
:104EE0008DFFFEF729FCFEF749FC08BD022B06D119
:104EF0008021FCF783FFFEF71FFCFEF73FFC08BD97
:104F00004CEC002058EC002070B586B0FCF7A4FEF5
:104F1000BA4B186000220C210A20FBF73FFCB84B6B
:104F20001860FFF7BFFCFEF793FF042015F024FE86
:104F3000B24CB34DB34EFFF7FFFE0A23009300239C
:104F400001224FF6FF712068FCF794FE10F0010F6C
:104F500016D0002304930593286868B101230A2220
:104F600003A9FBF763FC012806D0FEF7E5FB3046FA
:104F700015F080FFFEF702FC01212068FCF70CFF12
:104F800010F0020F17D00123049300230593286823
:104F900068B101230A2203A9FBF748FC012806D0C7
:104FA000FEF7CAFB304615F065FFFEF7E7FB02216E
:104FB0002068FCF7F1FE10F0040F17D002230493D1
:104FC00000230593286868B101230A2203A9FBF78F
:104FD0002DFC012806D0FEF7AFFB304615F04AFF46
:104FE000FEF7CCFB04212068FCF7D6FE10F0080F7A
:104FF00016D00023049301230593286860B10A2288
:1050000003A9FBF713FC012806D0FEF795FB3046F9
:1050100015F030FFFEF7B2FB08212068FCF7BCFE5C
:1050200010F0100F15D0012304930593286860B188
:105030000A2203A9FBF7FAFB012806D0FEF77CFB46
:10504000304615F017FFFEF799FB10212068FCF79A
:10505000A3FE10F0200F16D0022304930123059322
:10506000286860B10A2203A9FBF7E0FB012806D0FB
:10507000FEF762FB304615F0FDFEFEF77FFB2021B8
:105080002068FCF789FE10F0400F17D0002304932E
:1050900002230593286868B101230A2203A9FBF7BC
:1050A000C5FB012806D0FEF747FB304615F0E2FEAF
:1050B000FEF764FB40212068FCF76EFE10F0800FC5
:1050C00017D00123049302230593286868B10123B4
:1050D0000A2203A9FBF7AAFB012806D0FEF72CFB46
:1050E000304615F0C7FEFEF749FB80212068FCF72B
:1050F00053FE10F4807F14D0022304930593286894
:1051000050B101230A2203A9FBF790FB012803D029
:10511000FEF712FBFEF732FB4FF480712068FCF7BC
:105120003BFE10F4007F0AD0FEF706FBFFF7E8FD18
:10513000FEF724FB4FF400712068FCF72DFE10F4FD
:10514000806F0DD0FEF7F8FA01222F4B1A60FFF79F
:10515000B3FEFEF713FB4FF480612068FCF71CFEE2
:1051600010F4006F0DD0FEF7E7FA0222264B1A600A
:10517000FFF7A2FEFEF702FB4FF400612068FCF788
:105180000BFE10F4805F0DD0FEF7D6FA00221E4B06
:105190001A60FFF791FEFEF7F1FA4FF48051206894
:1051A000FCF7FAFD10F4005F08D0FEF7C5FAFEF731
:1051B000E5FA4FF400512068FCF7EEFD10F4804F43
:1051C00008D0FEF7B9FAFEF7D9FA4FF4804120680B
:1051D000FCF7E2FD10F4004F0AD0FEF7ADFAFFF73E
:1051E0009DFDFEF7CBFA4FF400412068FCF7D4FD9B
:1051F0004FF4FA70FDF7D6FB9DE600BFB8E800203B
:10520000C0E700201026020858EC002000B583B04B
:1052100000230193032200924FF4007203490448D3
:10522000FCF788FF03B05DF804FB00BF802502088F
:10523000094F0008704700BF00B583B000230193F9
:10524000032200924FF4807203490448FCF772FF76
:1052500003B05DF804FB00BF80250208355200084A
:105260002DE9F843114815F005FE114815F002FE2E
:105270000025DFF848800F4F0F4EDFF8449011E013
:1052800004EB080300225A513968304615F0F2FD4C
:105290003C34B4F5617FF3D1484615F0EBFD04359D
:1052A0003C2D01D00024EBE7BDE8F88388250208F7
:1052B000902502083800002094250208C8E8002044
:1052C0009C2502082DE9F04F83B00022394D3A4C5D
:1052D00014E059191819805888503C33B3F5617F90
:1052E000F7D104323C2A09D1334B0193DFF8CCB01B
:1052F0004FF0000CE246CDF800C03FE00023E8E7A5
:105300000CF1FF32BA424ADC5846DDF800E056465E
:10531000611C631E8B4210DC0E2A0BD81D460E2B1F
:1053200008D8944501D19C4204D050F825500DB1C5
:105330000136AE4601338B42EEDD01323C30BA42DB
:10534000E7DD59F8043F72469E45B8BF1A4603BBD5
:10535000032E04D1C8F8002001E0C8F800A00134F1
:1053600008F104080F2CCBD10CF1010C019B3C334C
:1053700001930BF13C0BBCF10F0F07D00BF1380977
:10538000DDF8048000240CF10107B9E7FFF7ACFA5F
:105390000DE0023E012EE0D8C8F80020DFE759F802
:1053A000043F23EAE372002BD9D00026F1E703B0D3
:1053B000BDE8F08F70EC0020C8E8002034EC00203D
:1053C00010B50346012822D121B9022A40F00484F5
:1053D00000F007BC01290BD1002A00F00584012A46
:1053E00000F0EC84022A40F00284022401203EE016
:1053F000022940F0FF83002A00F0FF83012A00F019
:10540000E184022A40F0FC830224204658E002286E
:105410002BD151B9002A00F0F683012A13D0022AB9
:1054200040F0F4830224032073E001290ED1002A06
:1054300000F0EF83012A00F0C984022A40F0EC83D7
:10544000022404203CE00124032001E00024204643
:1054500002295ED1002A00F0E283012A00F0BA841A
:10546000022A04BF0224052053E000242046032B17
:1054700026D149B9002A00F0D583012A11D0022A89
:1054800004BF022406206DE001290CD1002A00F09F
:10549000CC83012A00F0A284022A04BF0224072040
:1054A00037E00124062002295CD1002A00F0C083E5
:1054B000012A00F09784022A04BF0224082051E048
:1054C000042B26D149B9002A00F0B583012A11D056
:1054D000022A04BF022409206DE001290CD1002A10
:1054E00000F0AC83012A00F08184022A04BF022468
:1054F0000A2037E00124092002295CD1002A00F0AB
:10550000A083012A00F07684022A04BF02240B2023
:1055100051E0052B26D149B9002A00F09583012AD4
:1055200011D0022A04BF02240C206DE001290CD105
:10553000002A00F08C83012A00F06084022A04BF54
:1055400002240D2037E001240C2002295CD1002A1E
:1055500000F08083012A00F05484022A04BF022450
:105560000E2051E0062B26D149B9002A00F07583A0
:10557000012A11D0022A04BF052400206DE0012970
:105580000CD1002A00F06C83012A00F03E84022A2C
:1055900004BF0524012037E00424002002295CD147
:1055A000002A00F06083012A00F03284022A04BF3E
:1055B0000524022051E0072B26D149B9002A00F02A
:1055C0005583012A11D0022A04BF052403206DE06F
:1055D00001290CD1002A00F04C83012A00F01C8420
:1055E000022A04BF0524042037E0042403200229F2
:1055F0005CD1002A00F04083012A00F01084022AC6
:1056000054D10524204651E0082B26D149B9002A5F
:1056100000F03583012A11D0022A04BF0524062098
:105620006DE001290CD1002A00F02C83012A00F042
:10563000F983022A04BF0524072037E0042406204A
:1056400002295CD1002A00F02083012A00F0ED83BA
:10565000022A04BF0524082051E0092B26D149B9AC
:10566000002A00F01583012A11D0022A04BF052464
:1056700009206DE001290CD1002A00F00C83012AD9
:1056800000F0D683022A04BF05240A2037E0042450
:10569000092002295CD1002A00F00083012A00F0D1
:1056A000CA83022A04BF05240B2051E00A2B26D10D
:1056B00049B9002A00F0F582012A11D0022A04BF5C
:1056C00005240C206DE001290CD1002A00F0EC82A9
:1056D000012A00F0B383022A04BF05240D2037E01D
:1056E00004240C2002295CD1002A00F0E082012A67
:1056F00000F0A783022A04BF05240E2051E00B2BE3
:1057000026D149B9002A00F0D582012A11D0022AF7
:1057100004BF082400206DE001290CD1002A00F00C
:10572000CC82012A00F09083022A04BF08240120C1
:1057300037E00724002002295CD1002A00F0C08253
:10574000012A00F08483022A04BF0824022051E0C9
:105750000C2B26D149B9002A00F0B582012A11D0BC
:10576000022A04BF082403206DE001290CD1002A7D
:1057700000F0AC82012A00F06D83022A04BF0824E5
:10578000042037E00724032002295CD1002A00F01E
:10579000A082012A00F06183022A04BF08240520A8
:1057A00051E00D2B26D149B9002A00F09582012A3B
:1057B00011D0022A04BF082406206DE001290CD173
:1057C000002A00F08C82012A00F04A83022A04BFDA
:1057D0000824072037E00724062002295CD1002A8C
:1057E00000F08082012A00F03E83022A54D108246E
:1057F000204651E00E2B26D149B9002A00F07582CF
:10580000012A11D0022A04BF082409206DE00129D1
:105810000CD1002A00F06C82012A00F02783022AB2
:1058200004BF08240A2037E00724092002295CD19C
:10583000002A00F06082012A00F01B83022A04BFC4
:1058400008240B2051E00F2B26D149B9002A00F083
:105850005582012A11D0022A04BF08240C206DE0D1
:1058600001290CD1002A00F04C82012A00F00483A7
:10587000022A04BF08240D2037E007240C20022947
:105880005CD1002A00F04082012A00F0F882022A4E
:1058900004BF08240E2051E0102B26D149B9002A5C
:1058A00000F03582012A11D0022A04BF0B24002007
:1058B0006DE001290CD1002A00F02C82012A00F0B1
:1058C000E182022A04BF0B24012037E00A240020D1
:1058D00002295CD1002A00F02082012A00F0D58242
:1058E000022A04BF0B24022051E0112B26D149B912
:1058F000002A00F01582012A11D0022A04BF0B24CD
:1059000003206DE001290CD1002A00F00C82012A4D
:1059100000F0BE82022A04BF0B24042037E00A24D0
:10592000032002295CD1002A00F00082012A00F045
:10593000B282022A04BF0B24052051E0122B26D18B
:1059400049B9002A00F0F581012A11D0022A04BFCA
:105950000B2406206DE001290CD1002A00F0EC8117
:10596000012A00F09B82022A04BF0B24072037E0A3
:105970000A24062002295CD1002A00F0E081012AD5
:1059800000F08F82022A04BF0B24082051E0132B61
:1059900026D149B9002A00F0D581012A11D0022A66
:1059A00004BF0B2409206DE001290CD1002A00F06E
:1059B000CC81012A00F07882022A04BF0B240A203D
:1059C00037E00A24092002295CD1002A00F0C081B6
:1059D000012A00F06C82022A54D10B24204651E0A7
:1059E000142B26D149B9002A00F0B581012A11D023
:1059F000022A04BF0B240C206DE001290CD1002ADF
:105A000000F0AC81012A00F05582022A04BF0B2469
:105A10000D2037E00A240C2002295CD1002A00F076
:105A2000A081012A00F04982022A04BF0B240E2023
:105A300051E0152B26D149B9002A00F09581012AA1
:105A400011D0022A04BF0E2400206DE001290CD1E0
:105A5000002A00F08C81012A00F03282022A04BF61
:105A60000E24012037E00D24002002295CD1002AF9
:105A700000F08081012A00F02682022A04BF0E2451
:105A8000022051E0162B26D149B9002A00F0758179
:105A9000012A11D0022A04BF0E2403206DE001293F
:105AA0000CD1002A00F06C81012A00F00F82022A3A
:105AB00004BF0E24042037E00D24032002295CD10A
:105AC000002A00F06081012A00F00382022A04BF4C
:105AD0000E24052051E0172B26D149B9002A00F0E9
:105AE0005581012A11D0022A04BF0E2406206FE03E
