:020000040800F2
:1000000000000320C97A0108ED6601080D670108A8
:100010002D6701084D6701086D67010800000000A9
:10002000000000000000000000000000BD340008D7
:100030008D6701080000000079350008AD670108F0
:10004000197B0108197B0108197B0108197B01083C
:10005000197B0108197B0108197B0108197B01082C
:10006000197B0108197B0108197B0108197B01081C
:10007000197B0108197B0108197B0108197B01080C
:10008000197B0108197B0108197B0108197B0108FC
:10009000197B0108197B0108197B0108197B0108EC
:1000A000197B0108197B0108197B0108197B0108DC
:1000B000893F0008197B0108197B0108197B010899
:1000C000197B0108197B0108197B0108197B0108BC
:1000D000197B0108197B0108197B0108197B0108AC
:1000E000197B0108197B0108197B0108197B01089C
:1000F000197B0108197B0108197B0108197B01088C
:10010000197B0108197B0108197B0108197B01087B
:10011000197B0108197B0108197B0108197B01086B
:10012000197B0108197B0108197B0108197B01085B
:10013000197B0108BD670108197B0108197B0108BB
:10014000197B0108197B0108197B0108197B01083B
:10015000197B0108197B0108197B0108197B01082B
:10016000197B0108197B0108197B0108197B01081B
:10017000197B0108197B0108197B010800000000A8
:10018000197B0108197B0108197B0108197B0108FB
:10019000197B0108197B0108197B0108197B0108EB
:0C01A000197B0108197B0108197B01087C
:1001C00010B5054C237833B9044B13B10448AFF391
:1001D00000800123237010BDA00A00200000000051
:1001E00038E3010808B5034B1BB103490348AFF3DB
:1001F000008008BD00000000A40A002038E30108C8
:10020000154B002B08BF134B9D46A3F5803A0021E8
:100210008B460F461348144A121A17F0C1FC0F4BB5
:10022000002B00D098470E4B002B00D098470020A1
:10023000002104000D000D48002802D00C4817F0E2
:10024000D1FF17F089FC2000290000F087F817F093
:1002500073FC00BF00000800000000000000000068
:1002600000000000A00A0020BCEB0020E58101088E
:10027000058601082DE9F0479AB06422002101A803
:1002800017F08EFC03F04CFB05460026B1464FF0FC
:100290000A0A22E003F05AF9052002F09BFA9FB106
:1002A0004246294601A803F0CBFA074603F02CF991
:1002B0006C1E284616F0C4FB33199842EAD914F88C
:1002C000010F16F07CFAF4E76422494601A817F002
:1002D00067FC0026322002F07DFA16F075FA04461B
:1002E0000028F7D016F06BFA0D2C0DD1504616F001
:1002F00066FA16F068FA1AAB1E4406F8649C4FF0D2
:100300006408C5F10106CBE716F05DFA082C07D0AA
:10031000132EDFDC1AAB334403F8644C0136D9E703
:10032000002ED7DD013E1AAB334403F8649CD1E7BD
:1003300008B54FF0500383F31188BFF36F8FBFF3FD
:100340004F8F04F0CBF804F05FFF16F04FF8022057
:1003500016F0AEF8002383F3118808BD10B582B003
:1003600016F044F9FFF7E4FF002401940223009300
:1003700023464FF440720449044801F053FE02F052
:10038000D7F8204602B010BD88E3010875020008C6
:1003900008B5022016F08CF808BD08B5022016F04A
:1003A00087F8084C022505E002F016F9206028467F
:1003B00016F09AF802F010F92368C01AB0F57A7FA7
:1003C000F8D9F1E7BC0A002008B5022016F070F851
:1003D000FEE700BF70B5044602F0F4F82A4B9B68B4
:1003E0008BB1002C4AD004F1080111F0070F1CBF9B
:1003F00021F0070108314A1E4DF6F6339A423FD8E4
:10040000214C236813E0214A22F007021E4B1A6098
:1004100000255D604DF6F8301861194641F80C5F13
:100420005060116001229A60DBE71C4613465A684F
:100430008A4202D21A68002AF7D1154A934221D083
:10044000256808351A6822605A68521A102A0CD991
:100450005E187260596074680B4900E011460A68C2
:100460005068A042FAD332600E600A490A685B689D
:10047000D21A0A6002F048F9284670BD0025F9E753
:100480000025F7E70025F5E7C00A0020DC0A002078
:10049000CC0A002004000020D0B170B50546A0F1C0
:1004A000080602F08FF855F8044C0A4A00E01A4694
:1004B00013685968A142FAD345F8083C1660064A09
:1004C00055F8043C11680B44136002F01DF970BD2F
:1004D000704700BFC00A002004000020014B1868CC
:1004E000704700BF04000020704700BF10B50446ED
:1004F00003F00AF8A46B03F029F8B4FA84F0400979
:1005000010BD70B504461646856B026C5AB9036877
:100510001BB100200135A56370BD806802F0B4FCFA
:100520000023A360F6E76EB9406816F0EBF9636844
:10053000226C13446360A268934219D323686360FA
:100540000020E7E7C06816F0DDF9226C5242E3684C
:100550001344E36021688B4202D2A3681A44E2602C
:10056000022E01D00020D5E725B1013D0020D1E7C2
:100570000020CFE70020CDE770B582B00190846CF9
:1005800064B1A26BE36B9A4211D34FF0500383F333
:100590001188BFF36F8FBFF34F8FFEE74FF050030B
:1005A00083F31188BFF36F8FBFF34F8FFEE7A26B0A
:1005B000934203D80026304602B070BD0A4694F834
:1005C00045506DB201A92046FFF79BFF0646B5F1E5
:1005D000FF3F04D06B1C5BB284F84530EBE7636AE5
:1005E000002BE8D004F1240002F024FA002818BF00
:1005F0000126E0E7026C72B110B5C3681344C36012
:100600008468A34224BF0368C3600C46C1682046C7
:1006100016F078F910BD7047F8B5054602F074FF82
:1006200095F8454064B2002C1BDD05F12407002637
:1006300008E06B6AABB1384602F0FCF970B9013CD6
:1006400064B274B1AB6C002BF3D031462846FFF78F
:1006500093FF0028F3D002F0CDFAF0E702F0CAFAD7
:10066000EDE7FF2385F8453002F070FF02F04CFF04
:1006700095F8444064B2002C11DD2B697BB105F183
:10068000100606E002F0B6FA013C64B23CB12B69F8
:100690002BB1304602F0CEF90028F5D0F2E7FF2367
:1006A00085F8443002F052FFF8BD38B5E0B1044699
:1006B0000D4602F029FF2268216CE36B03FB01F376
:1006C000D018A0600020A06362605B1A1344E3604E
:1006D000FF2384F8443084F845309DB9236963B919
:1006E00002F034FF012038BD4FF0500383F311882E
:1006F000BFF36F8FBFF34F8FFEE704F1100002F0DE
:1007000099F9EDE704F1100000F0F4FD04F1240084
:1007100000F0F0FDE4E7F8B540B94FF0500383F383
:100720001188BFF36F8FBFF34F8FFEE70646174662
:100730000D4601FB00F05430FFF74CFE044678B143
:1007400015B100F1540300E003462360E66325641D
:1007500001212046FFF7A9FF84F850700023A3640D
:100760002046F8BD40B94FF0500383F31188BFF322
:100770006F8FBFF34F8FFEE7884208D24FF05003D0
:1007800083F31188BFF36F8FBFF34F8FFEE710B570
:100790000C4602220021FFF7BEFF034600B184632E
:1007A000184610BD2DE9F04784B0019278B1044697
:1007B000B1B1022B20D1E26B012A1DD04FF05003C2
:1007C00083F31188BFF36F8FBFF34F8FFEE74FF0B6
:1007D000500383F31188BFF36F8FBFF34F8FFEE792
:1007E000026C002AE5D04FF0500383F31188BFF369
:1007F0006F8FBFF34F8FFEE71E460F4602F0DAFA07
:1008000050B9019B73B14FF0500383F31188BFF3CC
:100810006F8FBFF34F8FFEE700254FF00008DFF822
:1008200014912BE00025F8E7A56B324639462046A7
:10083000FFF767FEA36C5BB1022E77D031462046EE
:10084000FFF79AFE02F082FE012004B0BDE8F087B7
:10085000636A002BF6D004F1240002F0EBF8F1E714
:1008600002F074FE0020F0E702A802F079F912E02D
:100870002046FFF7D1FE01F047FF012502F044FEBC
:10088000A26BE36B9A42CFD3022E46D0019B002B82
:10089000E6D0002DE8D002F059FE01F093FE02F000
:1008A00033FE94F844305BB2B3F1FF3F08BF84F8E5
:1008B000448094F845305BB2B3F1FF3F08BF84F841
:1008C000458002F043FE01A902A802F053F9E8B9FD
:1008D00002F01AFED4F838A0E56B02F037FEAA4504
:1008E000C6D1019904F1100002F060F82046FFF72C
:1008F00093FE01F009FF0028BFD14FF08053C9F8E3
:100900000030BFF34F8FBFF36F8FB6E72046FFF77E
:1009100083FE01F0F9FE002097E7A56B022239461D
:100920002046FFF7EEFDA36C002B91D0002D89D15E
:1009300084E700BF04ED00E010B50246002101206D
:10094000FFF7E9FE044638B1002181600160C16013
:100950000B460A46FFF726FF204610BD38B538B1D2
:100960000446856802F020FA85420AD0002038BD8E
:100970004FF0500383F31188BFF36F8FBFF34F8F96
:10098000FEE7E368013BE3600BB10120EFE71A46A5
:1009900019462046FFF706FF0120E8E72DE9F84356
:1009A00078B10446B1B1022B20D1E06B01281DD0F3
:1009B0004FF0500383F31188BFF36F8FBFF34F8F56
:1009C000FEE74FF0500383F31188BFF36F8FBFF33F
:1009D0004F8FFEE7006C0028E5D04FF0500383F303
:1009E0001188BFF36F8FBFF34F8FFEE71F4690460E
:1009F000894602F0B1FEEFF311864FF0500383F306
:100A00001188BFF36F8FBFF34F8FA26BE36B9A42D6
:100A100006D3022F04D0002086F31188BDE8F883A6
:100A200094F845506DB23A4649462046FFF769FDB5
:100A3000B5F1FF3F05D06B1C5BB284F84530012057
:100A4000EAE7A36C5BB139462046FFF795FDB0B1EC
:100A5000B8F1000F15D00120C8F80000DCE7636A88
:100A60000BB90120D8E704F1240001F0E3FF50B1F5
:100A7000B8F1000F09D00120C8F80000CCE7012030
:100A8000CAE70120C8E70120C6E70120C4E760B13A
:100A900070B50446036C8BB14FF0500383F311889B
:100AA000BFF36F8FBFF34F8FFEE74FF0500383F319
:100AB0001188BFF36F8FBFF34F8FFEE70368F3B169
:100AC0000E4602F049FEEFF311854FF0500383F319
:100AD0001188BFF36F8FBFF34F8FA26BE36B93420D
:100AE00031D994F845305BB20132A263B3F1FF3FD4
:100AF00011D001335BB284F84530012024E08368D3
:100B0000002BDDD04FF0500383F31188BFF36F8FBC
:100B1000BFF34F8FFEE7A36C43B100212046FFF7E0
:100B20002BFDA0B1AEB1012030600DE0636A0BB9BE
:100B3000012009E004F1240001F07CFF58B166B106
:100B40000120306000E0002085F3118870BD012095
:100B5000FAE70120F8E70120F6E70120F4E72DE9A4
:100B6000F04385B0019280B10446B9B10E4602F05F
:100B700021F9F8B9019B1BB34FF0500383F311889F
:100B8000BFF36F8FBFF34F8FFEE74FF0500383F338
:100B90001188BFF36F8FBFF34F8FFEE7036C002BFD
:100BA000E4D04FF0500383F31188BFF36F8FBFF38E
:100BB0004F8FFEE700274FF00008DFF8E8902DE0A8
:100BC0000027F8E731462046FFF714FD013DA563F5
:100BD00023692BB902F0BAFC012005B0BDE8F0830F
:100BE00004F1100001F026FFF4E702F0AFFC002052
:100BF000F3E702A801F0B4FF1AE02046FFF70CFD6E
:100C000001F082FD09E02046FFF706FD01F07CFDC2
:100C10002046FFF76BFC002842D1012702F074FC4C
:100C2000A56B002DCED1019B002BDED0002FE0D094
:100C300002F08CFC01F0C6FC02F066FC94F8443033
:100C40005BB2B3F1FF3F08BF84F8448094F84530AD
:100C50005BB2B3F1FF3F08BF84F8458002F076FC39
:100C600001A902A801F086FF0028CCD12046FFF799
:100C70003DFC0028C1D0019904F1240001F096FE4A
:100C80002046FFF7C9FC01F03FFD0028C5D14FF019
:100C90008053C9F80030BFF34F8FBFF36F8FBCE7AD
:100CA00000209AE704ED00E02DE9F04184B00191C5
:100CB00058B10446036C8BB14FF0500383F3118895
:100CC000BFF36F8FBFF34F8FFEE74FF0500383F3F7
:100CD0001188BFF36F8FBFF34F8FFEE702F06AF802
:100CE00050B9019B73B14FF0500383F31188BFF3E8
:100CF0006F8FBFF34F8FFEE700252E460027DFF8EA
:100D00003C8143E000252E46F8E7013BA3632368BE
:100D100043B1236953B902F019FC0125284604B0F8
:100D2000BDE8F08102F070F9A060F2E704F1100074
:100D300001F080FEEFE745B14FF0500383F31188D7
:100D4000BFF36F8FBFF34F8FFEE702F0FFFBE5E7C6
:100D500002A801F005FF23E002F0D6FBA06802F034
:100D600039F8054602F0F2FB40E02046FFF754FC5C
:100D700001F0CAFC09E02046FFF74EFC01F0C4FC7C
:100D80002046FFF7B3FB002845D1012602F0BCFB4B
:100D9000A36B002BB9D1019B002BCCD0002ED7D058
:100DA00002F0D4FB01F00EFC02F0AEFB94F84430EC
:100DB0005BB2B3F1FF3F08BF84F8447094F845304C
:100DC0005BB2B3F1FF3F08BF84F8457002F0BEFB91
:100DD00001A902A801F0CEFE0028CCD12046FFF7E1
:100DE00085FB0028C1D02368002BB5D0019904F100
:100DF000240001F0DBFD2046FFF70EFC01F084FC2F
:100E00000028C2D14FF08053C8F80030BFF34F8F95
:100E1000BFF36F8FB9E7002D80D002F075FB636AD6
:100E200053B1236B1968C1F10701A06802F082F881
:100E300002F08CFB002571E70021F6E704ED00E0ED
:100E400088B170B504460D46866801F0ADFF864254
:100E500012D029462046FFF727FF024680B1E368FB
:100E60000133E3600CE04FF0500383F31188BFF3CC
:100E70006F8FBFF34F8FFEE7E3680133E36001221A
:100E8000104670BD2DE9F04184B0019280B1044656
:100E9000B9B10D4601F08EFFF8B9019B13B34FF0C5
:100EA000500383F31188BFF36F8FBFF34F8FFEE7BB
:100EB0004FF0500383F31188BFF36F8FBFF34F8F51
:100EC000FEE7036C002BE4D04FF0500383F311884E
:100ED000BFF36F8FBFF34F8FFEE700260027DFF8C9
:100EE000E8802DE00026F9E7E66829462046FFF76E
:100EF00081FBE660636A2BB902F028FB012004B095
:100F0000BDE8F08104F1240001F094FDF4E702F063
:100F10001DFB0020F3E702A801F022FE1AE02046A4
:100F2000FFF77AFB01F0F0FB09E02046FFF774FBC6
:100F300001F0EAFB2046FFF7D9FA002842D101264A
:100F400002F0E2FAA36B002BCED1019B002BDED086
:100F5000002EE0D002F0FAFA01F034FB02F0D4FAED
:100F600094F844305BB2B3F1FF3F08BF84F844709B
:100F700094F845305BB2B3F1FF3F08BF84F8457089
:100F800002F0E4FA01A902A801F0F4FD0028CCD196
:100F90002046FFF7ABFA0028C1D0019904F12400E4
:100FA00001F004FD2046FFF737FB01F0ADFB002800
:100FB000C5D14FF08053C8F80030BFF34F8FBFF357
:100FC0006F8FBCE700209AE704ED00E02DE9F843BD
:100FD000C8B1044601B31746894602F0BDFBEFF3E2
:100FE00011864FF0500383F31188BFF36F8FBFF367
:100FF0004F8FD4F83880B8F1000F19D1002086F354
:101000001188BDE8F8834FF0500383F31188BFF3D4
:101010006F8FBFF34F8FFEE7036C002BDBD04FF0D9
:10102000500383F31188BFF36F8FBFF34F8FFEE739
:1010300094F844506DB249462046FFF7DBFA08F1B8
:10104000FF33A363B5F1FF3F05D06B1C5BB284F89F
:1010500044300120D3E723690BB90120CFE704F125
:10106000100001F0E7FC18B127B101203860C6E795
:101070000120C4E70120C2E7F8B560B1044699B188
:10108000036CEBB94FF0500383F31188BFF36F8FFC
:10109000BFF34F8FFEE74FF0500383F31188BFF388
:1010A0006F8FBFF34F8FFEE7036C002BEAD04FF03A
:1010B000500383F31188BFF36F8FBFF34F8FFEE7A9
:1010C0000D4602F049FBEFF311864FF0500383F316
:1010D0001188BFF36F8FBFF34F8FA36B1BB9002035
:1010E00086F31188F8BDE76829462046FFF782FAA3
:1010F000E7600120F4E740B110B5044602F004FABD
:10110000A46B02F023FA204610BD4FF0500383F386
:101110001188BFF36F8FBFF34F8FFEE750B110B54B
:10112000044602F0F1F9A36BE46BE41A02F00EFA44
:10113000204610BD4FF0500383F31188BFF36F8F2B
:10114000BFF34F8FFEE708B1806B70474FF050033D
:1011500083F31188BFF36F8FBFF34F8FFEE7C06C2F
:101160007047C164704790F85000704720B1806BA1
:10117000B0FA80F0400970474FF0500383F31188B4
:10118000BFF36F8FBFF34F8FFEE730B1826BC06B41
:10119000904214BF0020012070474FF0500383F3AA
:1011A0001188BFF36F8FBFF34F8FFEE710B40B4B67
:1011B0001B6853B10123094C54F8332032B1013379
:1011C000082BF9D15DF8044B70470023034A42F81D
:1011D000331002EBC3035860F4E700BF7CE9002042
:1011E000094B5B6898420AD00123084951F8332023
:1011F000824205D00133082BF8D10020704700232C
:10120000014A52F8330070477CE9002080E9002051
:101210000B4B5B68984209D001230A4951F83320EF
:10122000824204D00133082BF8D170470023044ACE
:10123000002142F8331002EBC3035960704700BF2E
:101240007CE9002080E9002038B110B50446FFF7A2
:10125000DFFF2046FFF720F910BD4FF0500383F366
:101260001188BFF36F8FBFF34F8FFEE708B50022E1
:101270000421FFF750FA08BD38B504460D4602F0C8
:1012800043F9A36C23B1002402F060F9204638BD75
:10129000A36B13B9A5640124F6E70024F4E7836C7B
:1012A0008B4201D000207047836B0BB10020704748
:1012B00010B5044602F028F90023A36402F046F9B1
:1012C000012010BD00B583B0002301930A4601A997
:1012D000FFF745FC019803B05DF804FB00B583B04F
:1012E0000022019201A9FFF771FE019803B05DF899
:1012F00004FB00BF00F1080343604FF0FF3282603F
:10130000C3600361002303607047002303617047DB
:1013100043684B609A688A6051609960086103680D
:1013200001330360704730B40D68B5F1FF3F02D060
:1013300000F1080202E0026904E01A4653681C68E2
:10134000AC42FAD953684B6099608A605160086179
:1013500003680133036030BC7047036941688268E9
:101360008A60416851605A68824204BF82685A604C
:10137000002202611A68013A1A6018687047826890
:10138000436813440068181A824298BF801A704755
:10139000F8B504460D4617461E465521284616F058
:1013A000FFFB854208D04FF0500383F31188BFF351
:1013B0006F8FBFF34F8FFEE724220021204616F0E7
:1013C000EFFBA561A760E6609DF818302377F8BDB4
:1013D00042B94FF0500383F31188BFF36F8FBFF30F
:1013E0004F8FFEE72DE9F041174646688368A3EB6F
:1013F0000608904528BF904606EB0802934208D2A3
:101400004FF0500383F31188BFF36F8FBFF34F8FFB
:10141000FEE70D46044680694246304415F072FAF4
:10142000474512D9A7EB0802A3689A4208D94FF0A2
:10143000500383F31188BFF36F8FBFF34F8FFEE725
:1014400005EB0801A06915F05DFA3E44A268B242BE
:1014500098BFB61A66603846BDE8F0812DE9F843BA
:1014600090469A4228BF9846B8F1000F3ED00468D3
:1014700083681F1B474528BF4746BA4208D24FF032
:10148000500383F31188BFF36F8FBFF34F8FFEE7D5
:10149000E519AB4208D24FF0500383F31188BFF334
:1014A0006F8FBFF34F8FFEE791460E460546816969
:1014B0003A462144304615F025FAB84510D9C145C1
:1014C00008D24FF0500383F31188BFF36F8FBFF33F
:1014D0004F8FFEE7A8EB0702A969F01915F012FA81
:1014E0004444AB68A34298BFE41A2C604046BDE870
:1014F000F883F0B583B004460D46012A09D0A8B997
:101500004FF0500383F31188BFF36F8FBFF34F8FFA
:10151000FEE7042808D84FF0500383F31188BFF387
:101520006F8FBFF34F8FFEE7012700E00027AC422B
:1015300008D24FF0500383F31188BFF36F8FBFF3CE
:101540004F8FFEE7002D08BF012504F12500FEF7AF
:1015500041FF064630B100972B46621C00F1240182
:10156000FFF716FF304603B0F0BD08B530B1037F7A
:1015700013F0020F0BD1FEF78FFF08BD4FF05003A1
:1015800083F31188BFF36F8FBFF34F8FFEE72422E1
:10159000002116F005FBF0E768B130B583B00446D2
:1015A000056A01F0B1FF236973B1002401F0CEFF99
:1015B000204603B030BD4FF0500383F31188BFF3D2
:1015C0006F8FBFF34F8FFEE763690BB10024EDE728
:1015D000237F0093E368A268A1692046FFF7D8FE45
:1015E00025620124E2E748B1002908BF0121826891
:1015F0008A4226BFC1600120002070474FF050038F
:1016000083F31188BFF36F8FBFF34F8FFEE702465E
:1016100048B183680068526818440138801A8342D0
:1016200098BFC01A70474FF0500383F31188BFF37F
:101630006F8FBFF34F8FFEE708B510B1FFF79FFE26
:1016400008BD4FF0500383F31188BFF36F8FBFF3D2
:101650004F8FFEE72DE9F04387B0019391B18846A3
:10166000C8B1037F13F0010F1ED002F104094A45EF
:101670001BD34FF0500383F31188BFF36F8FBFF379
:101680004F8FFEE74FF0500383F31188BFF36F8F46
:10169000BFF34F8FFEE74FF0500383F31188BFF382
:1016A0006F8FBFF34F8FFEE7914616460446019BAE
:1016B0007BB304A801F03AFA002701F025FF204689
:1016C000FFF7A5FF0546814520D9384601F08CFE7D
:1016D000636993B901F068FB606101F037FF019B1A
:1016E0003A463946384601F0D9FC676101A904A899
:1016F00001F040FA0028E0D00AE04FF0500383F3F5
:101700001188BFF36F8FBFF34F8FFEE701F01EFF0D
:1017100095B92046FFF77BFF0396054668B900257B
:10172000284607B0BDE8F083A945F8D8042203A9EC
:101730002046FFF74DFE08E00396237F13F0010FCC
:10174000F2D1B54228BF35460395039A414620465B
:10175000FFF73EFE05460028E2D02046FFF70FFEC9
:10176000E3689842DCD300F02DFF23693BB1206988
:1017700000231A46194601F0DDFC0023236100F026
:10178000C3FFCDE7002942D02DE9F04184B00F46D8
:10179000002845D0017F11F0010F14BF02F10408A9
:1017A00090461E4615460446FFF731FF0395024654
:1017B000002840D0237F13F0010F3AD1A84228BF60
:1017C0002A460392039A39462046FFF701FE054652
:1017D00090B32046FFF7D3FDE36898422CD3EFF394
:1017E00011874FF0500383F31188BFF36F8FBFF35E
:1017F0004F8F236943B12069009600231A4619468A
:1018000001F000FD0023236187F3118814E04FF0FD
:10181000500383F31188BFF36F8FBFF34F8FFEE741
:101820004FF0500383F31188BFF36F8FBFF34F8FD7
:10183000FEE7804504D90025284604B0BDE8F081C4
:10184000042203A92046FFF7C3FDBBE719B32DE926
:10185000F04383B0044617469946884620B3057F77
:1018600005F00105AD00002B39D001F04DFE2046FA
:10187000FFF785FD064685424DD3002001F0B4FDFB
:101880002369D3B14FF0500383F31188BFF36F8FF7
:10189000BFF34F8FFEE74FF0500383F31188BFF380
:1018A0006F8FBFF34F8FFEE74FF0500383F3118824
:1018B000BFF36F8FBFF34F8FFEE701F075FA206122
:1018C00001F044FE4B4600221146104601F0E6FBB3
:1018D000002323612046FFF752FD064602E0FFF792
:1018E0004EFD0646AE4298BF002516D8284603B0E6
:1018F000BDE8F083D4F8009033462A4601A920467B
:10190000FFF7ACFD019B761B9F423ABFC4F80090E5
:1019100000271F4603E001F019FE002DEAD13346EF
:101920003A4641462046FFF799FD05460028DDD09E
:1019300000F048FE63693BB1606900231A4619460E
:1019400001F0F8FB0023636100F0DEFECEE748B152
:1019500030B583B00446037F13F0010F0BD1002094
:1019600003B030BD4FF0500383F31188BFF36F8F86
:10197000BFF34F8FFEE7FFF702FD04280AD80028C7
:10198000EED04FF0500383F31188BFF36F8FBFF396
:101990004F8FFEE72568034604220DEB0201204627
:1019A000FFF75CFD01982560DAE7002933D02DE9C7
:1019B000F04385B00F46002836D0984616460446B8
:1019C000037F13F0010F48D1FFF7D9FC054600282B
:1019D00049D032462B4639462046FFF73FFD0546A3
:1019E000002840D0EFF311864FF0500383F31188A5
:1019F000BFF36F8FBFF34F8F63694BB16069CDF851
:101A0000008000231A46194601F0FCFB00236361A5
:101A100086F3118827E04FF0500383F31188BFF35A
:101A20006F8FBFF34F8FFEE74FF0500383F31188A2
:101A3000BFF36F8FBFF34F8FFEE7D4F800902B46B4
:101A4000042203A92046FFF709FD039A043D9642AC
:101A5000C0D2C4F800900022BCE7FFF790FC054616
:101A60000428EAD80025284605B0BDE8F08330B147
:101A700002684068904214BF0020012070474FF078
:101A8000500383F31188BFF36F8FBFF34F8FFEE7CF
:101A900058B110B5047F04F00104A400FFF7B7FDAE
:101AA000A0428CBF0020012010BD4FF0500383F3F3
:101AB0001188BFF36F8FBFF34F8FFEE7E0B130B5F2
:101AC00083B00446EFF311854FF0500383F3118880
:101AD000BFF36F8FBFF34F8F0369B3B100690091FC
:101AE00000231A46194601F08DFB002323610120D3
:101AF00085F3118803B030BD4FF0500383F3118894
:101B0000BFF36F8FBFF34F8FFEE70020F0E7E0B128
:101B100030B583B00446EFF311854FF0500383F3E3
:101B20001188BFF36F8FBFF34F8F4369B3B1406923
:101B3000009100231A46194601F064FB00236361FB
:101B4000012085F3118803B030BD4FF0500383F3BB
:101B50001188BFF36F8FBFF34F8FFEE70020F0E7D0
:101B6000006A704701627047007F00F00100704713
:101B700010B51C20FEF72EFC044620B1002340F8CF
:101B8000043BFFF7B7FB204610BD2DE9F843DDF815
:101B9000209060B1064611F07F4F11D04FF05003F6
:101BA00083F31188BFF36F8FBFF34F8FFEE74FF0C2
:101BB000500383F31188BFF36F8FBFF34F8FFEE79E
:101BC00041B94FF0500383F31188BFF36F8FBFF318
:101BD0004F8FFEE7984617460C4601F0EBF858B9D0
:101BE000B9F1000F08D04FF0500383F31188BFF311
:101BF0006F8FBFF34F8FFEE700F0E4FC3568B8F15C
:101C0000000F0BD12C4214BF0123002363B117B185
:101C100025EA0404346000F077FD2AE034EA050385
:101C20000CBF01230023F1E7B9F1000FF3D0002F1F
:101C30000CBF00214FF08071B8F1000F01D041F0CE
:101C400080614A462143301D00F0C8FE00F05CFD73
:101C500038B9154B4FF080521A60BFF34F8FBFF366
:101C60006F8F01F0C5F9054610F0007F04D025F014
:101C70007F452846BDE8F88301F046FC3568B8F199
:101C8000000F0BD12C4214BF012300231BB117B14D
:101C900025EA0404346001F059FCE8E734EA05035E
:101CA0000CBF01230023F1E704ED00E068B170B53B
:101CB000054611F07F4F11D04FF0500383F3118888
:101CC000BFF36F8FBFF34F8FFEE74FF0500383F3E7
:101CD0001188BFF36F8FBFF34F8FFEE70C4601F003
:101CE00013FC2E6826EA04042C6001F02FFC304619
:101CF00070BDEFF311834FF0500282F31188BFF3F0
:101D00006F8FBFF34F8F006883F311887047F8B56A
:101D100060B1044611F07F4F11D04FF0500383F3B0
:101D20001188BFF36F8FBFF34F8FFEE74FF0500363
:101D300083F31188BFF36F8FBFF34F8FFEE70D461C
:101D400000F10C0600F03EFC206923682B43236061
:101D500086421CD000250FE0216833EA010108D13A
:101D600012F0807F18BF1D43216841F0007100F020
:101D70009FFE3846BE420BD04768026822F07F4380
:101D800012F0806FE8D121680B42E9D1F1E700251C
:101D9000236823EA0503236000F0B6FC2068F8BD41
:101DA00012F07F4F08D04FF0500383F31188BFF338
:101DB0006F8FBFF34F8FFEE742B94FF0500383F3AD
:101DC0001188BFF36F8FBFF34F8FFEE72DE9F0410E
:101DD0001F4616460C46054600F0ECFF50B9002F92
:101DE00045D04FF0500383F31188BFF36F8FBFF3DB
:101DF0004F8FFEE700F0E6FBD5F80080214628462D
:101E0000FFF785FF48EA040436EA040315D0002FE3
:101E100038D03A4646F0A061281D00F0DFFD00F002
:101E200073FC78B101F0E4F8044610F0007F12D0A2
:101E300024F07F442046BDE8F0812B6823EA0603A6
:101E40002B6020E0114B4FF080521A60BFF34F8F90
:101E5000BFF36F8FE6E701F057FB2C6836EA040307
:101E600004BF24EA06062E6001F070FBE0E700F0F4
:101E7000A9FB2F6821462846FFF749FF3C4336EA75
:101E80000403DAD02C6800F03FFCD3E704ED00E057
:101E900070B5044600F096FB6368BBB1206904F19D
:101EA0000C05A84209D04FF00076314600F000FE44
:101EB00063685BB12069A842F7D14FF0500383F308
:101EC0001188BFF36F8FBFF34F8FFEE72046FEF7F9
:101ED000E3FA00F019FC70BD08B5FFF718FF08BD64
:101EE00008B5FFF7E3FE08BD08B180697047002020
:101EF00070478161704700BF28B141690C4A914227
:101F00000AD0002070474FF0500383F31188BFF3CD
:101F10006F8FBFF34F8FFEE7806A02F11403984280
:101F200003D0B0FA80F0400970470020704700BF2E
:101F3000D4E60020074B9B6A1B6823B9054B4FF082
:101F4000FF32DA627047034B9A6AD268D2685268ED
:101F5000DA627047D4E6002080B5134C134F4FF07F
:101F6000805604E03E60BFF34F8FBFF36F8F236B4B
:101F7000002BF7D001F0C8FA236CDD68281DFFF7AD
:101F8000ECF9A36C013BA364236B013B236301F0D9
:101F9000DDFA286BFEF780FA2846FEF77DFA236B00
:101FA000002BE7D1DEE700BFD4E6002004ED00E01F
:101FB00070B504460E461A4BDD6C186D0430FFF701
:101FC000CCF940B9164B196D5A6DC86A0121814090
:101FD00022EA01025A65B4F1FF3F0CD02C44104BA9
:101FE0001B6D5C60A5420ED90D4B986D196D0431C7
:101FF000FFF799F970BD002EF0D00948016D04314A
:10200000FFF786F9F6E7064DA86A296D0431FFF758
:102010008AF9EB6AA34284BF2B46DC62EAE700BF81
:10202000D4E600202DE9F04707460D469846960075
:102030003046FEF7CFF9002800F0C98081465C20C9
:10204000FEF7C8F90446002878D0C0F83090002D7B
:102050007AD03246A521484615F0A2FD043E236BF6
:102060001E4426F007062B7884F8343053B12B46F3
:1020700004F134010F3513F8012F01F8012F0AB1D3
:10208000AB42F8D14FF0000984F84390089D062D2B
:1020900028BF0625E562E564C4F8509004F1040AFF
:1020A0005046FFF732F904F11800FFF72EF92461CA
:1020B000C5F10705A5616462C4F8549084F858908E
:1020C00042463946304601F0E3F92060099B03B1EE
:1020D0001C6001F019FA414B9A6C01329A641B6D35
:1020E000002B3AD03D4BD3F810313BB93B4B1B6D25
:1020F000DA6AE36A9A429CBF384B1C65374DD5F8C3
:1021000014310133C5F814316364E36A696D012247
:102110009A400A436A6505F15C0003EB830351466C
:1021200000EB8300FFF7F4F801F010FAD5F8103156
:10213000002B50D02B461B6D01204AE04846FEF78D
:10214000ABF94FF0FF3044E04FF0500383F31188B8
:10215000BFF36F8FBFF34F8FFEE7204B1C659B6C67
:10216000012BCBD11D4D05F15C00FFF7C3F805F144
:102170007000FFF7BFF805F18400FFF7BBF805F129
:102180009800FFF7B7F805F1AC00FFF7B3F805F1D9
:10219000C000FFF7AFF805F1D400FFF7ABF805F189
:1021A000E8073846FFF7A6F805F1FC063046FFF7CA
:1021B000A1F805F11400FFF79DF805F13400FFF7D1
:1021C00099F82846FFF796F8AF62AE6596E74FF0AC
:1021D000FF30BDE8F0870120FBE700BFD4E6002018
:1021E00070B5044601F090F9002C39D0261D304618
:1021F000FFF7B3F870B9E16A01EB81022A4B03EBF8
:102200008203DB6D33B92848436D01228A4023EAFB
:1022100002034365A36A1BB104F11800FFF79DF8A0
:10222000214BD3F814210132C3F814211B6DA342B2
:1022300019D01D4A936C013B9364206BFEF72CF977
:102240002046FEF729F9FFF775FE01F07FF9164BDE
:10225000D3F810311BB1144B1B6DA3420DD070BDD0
:10226000114B1C6DC2E7104D314605F13400FFF7EC
:102270004FF82B6B01332B63E7E70B4BD3F8183187
:1022800043B14FF0500383F31188BFF36F8FBFF357
:102290004F8FFEE7054B4FF080521A60BFF34F8F10
:1022A000BFF36F8FDBE700BFD4E6002004ED00E052
:1022B000F8B5D8B104461C4B1B6D83422BD001F0FE
:1022C00023F96569184B9F6A9E6D01F03FF9BD4285
:1022D00023D0B54223D0144B9D4210D0134B9D42C6
:1022E0001FD0002D0CBF0420012015E04FF050033B
:1022F00083F31188BFF36F8FBFF34F8FFEE7A36A9D
:102300000BB1022008E094F85830DBB2012B0CBF6F
:102310000220032000E00020F8BD0220FCE702209C
:10232000FAE70420F8E700BFD4E6002008E7002021
:1023300010B5044601F0E8F824B1E46A01F006F9AA
:10234000204610BD014B1C6DF7E700BFD4E600200E
:1023500010B5044601F000FAEFF311834FF050027C
:1023600082F31188BFF36F8FBFF34F8F1CB1E06A08
:1023700083F3118810BD014A146DF8E7D4E60020FC
:10238000062908D94FF0500383F31188BFF36F8FEC
:10239000BFF34F8FFEE770B504460D4601F0B4F869
:1023A00054B1E36C9D421FD009D91F4A126DA2425D
:1023B00007D01D4A126D04E01B4B1C6DF1E71A4A51
:1023C000126DE66AB34208BFE562E564A369002BBB
:1023D000A4BFC5F10705A56106EB8602134B03EB0D
:1023E000820362699A4202D001F0B0F870BD251DE7
:1023F0002846FEF7B2FF38B90B494B6D012202FAAD
:1024000006F623EA06034B65E06A074B596D012285
:1024100082400A435A655C3300EB8000294603EB97
:102420008000FEF775FFDFE7D4E6002030E70020EC
:1024300038B568B10446164B1B6D834207D001F0D6
:1024400063F82046FFF758FD58B901F07FF838BD12
:102450004FF0500383F31188BFF36F8FBFF34F8F9B
:10246000FEE7251D2846FEF778FFE36A084C616DFC
:1024700001229A400A43626504F15C0003EB830386
:10248000294600EB8300FEF743FF236DDDE700BF25
:10249000D4E6002088B32DE9F041044601F05CF950
:1024A000EFF311884FF0500383F31188BFF36F8F60
:1024B000BFF34F8F2046FFF71FFD70B31A4BD3F8C1
:1024C00018311BBB184D2B6DE66ADB6A9E4234BF88
:1024D00000260126271D3846FEF73FFFE06A6A6D99
:1024E0000123834013436B655C3500EB8000394664
:1024F00005EB8000FEF70CFF10E04FF0500383F374
:102500001188BFF36F8FBFF34F8FFEE704F11801FF
:102510000648FEF7FDFE002600E0002688F311883D
:102520003046BDE8F08100BFD4E60020E8E6002098
:1025300000B583B0164B0193002300938022154908
:102540001548FFF76FFD012805D0B0F1FF3F16D009
:1025500003B05DF804FB4FF0500383F31188BFF321
:102560006F8FBFF34F8F0D4B4FF0FF32DA620122B6
:10257000C3F810210022DA6401F066F8E8E74FF0B2
:10258000500383F31188BFF36F8FBFF34F8FFEE7C4
:10259000F0E700208CE30108591F0008D4E6002072
:1025A00008B54FF0500383F31188BFF36F8FBFF36B
:1025B0004F8F034B0022C3F8102100F093FF08BD9A
:1025C000D4E60020034AD2F818310133C2F818319A
:1025D000704700BFD4E60020014BD86C704700BFA5
:1025E000D4E6002008B501F0B7F8014BD86C08BD5F
:1025F000D4E60020014B986C704700BFD4E6002061
:10260000034610B103F134007047064B1B6D002BDD
:10261000F8D14FF0500383F31188BFF36F8FBFF3EE
:102620004F8FFEE7D4E600202DE9F843354BD3F871
:102630001831002B5DD1334BDC6C0134DC64BCB948
:102640009B6A1B6843B14FF0500383F31188BFF3BB
:102650006F8FBFF34F8FFEE72A4B9A6A996D99628D
:102660009A65D3F820210132C3F82021FFF762FCDC
:10267000244BDB6AA34242D8224B9B6A1B6863B19E
:10268000204B9B6ADB68DD686B689C420AD31D4E59
:102690004FF0010806F15C071EE01A4B4FF0FF32C5
:1026A000DA622CE0174AD36229E0E86A726D08FA10
:1026B00000F31343736500EB8000494607EB80008D
:1026C000FEF726FEB36A1B68002BE6D0B36ADB6810
:1026D000DD686B689C42E5D305F104094846FEF7C6
:1026E0003CFEAB6A002BE0D005F11800FEF735FE8A
:1026F000DBE7044AD2F824310133C2F82431002048
:10270000BDE8F883D4E60020314BD3F8183143B943
:102710004FF0500383F31188BFF36F8FBFF34F8FD8
:10272000FEE72DE9F04100F0EFFE294BD3F8182128
:10273000013AC3F81821D3F8183113B9244B9B6C14
:1027400023B900F003FF0020BDE8F0810025204CF4
:10275000012604F15C086369F3B1236ADD6805F1C1
:102760001800FEF7FAFD2F1D3846FEF7F6FDE86A61
:10277000626D06FA00F31343636500EB800039468F
:1027800008EB8000FEF7C4FD236DEA6ADB6A9A421B
:10279000E1D3C4F82861DEE70DB1FFF7CBFB0C4BAA
:1027A000D3F824417CB11E46012501E0013C06D04E
:1027B000FFF73AFF0028F9D0C6F82851F6E7044B96
:1027C0000022C3F82421024BD3F82831B9E700BF17
:1027D000D4E6002010B5B0B104460F4BD3F8183141
:1027E00043B14FF0500383F31188BFF36F8FBFF3F2
:1027F0004F8FFEE7FFF7E6FE00212046FFF7D8FBEC
:10280000FFF782FF38B9054B4FF080521A60BFF3D3
:102810004F8FBFF36F8F10BDD4E6002004ED00E0B2
:102820002C4BD3F8183123B12A4B0122C3F82821AD
:10283000704710B5274B0022C3F828211B6D1B6B76
:102840001A68B2F1A53F03D15A68B2F1A53F1BD077
:10285000204B186D196D3431FDF7B6FD1D4A536DCF
:10286000B3FA83F3DBB2C3F11F0303EB830102EB83
:102870008102D26D8AB94FF0500383F31188BFF300
:102880006F8FBFF34F8FFEE79A68B2F1A53FDFD19C
:10289000DB68B3F1A53FDBD1E0E70E4A9900C81829
:1028A00002EB8000046E64680466194402466432D8
:1028B000944208D0074A03EB830302EB83031B6EA9
:1028C000DB68136510BD6068024A02EB8102106686
:1028D000F0E700BFD4E6002038B5044600F014FE4F
:1028E00084B3251D2846FEF738FD70B9E16A01EB77
:1028F00081022C4B03EB8203DB6D33B92948436D16
:1029000001228A4023EA02034365A36A1BB104F152
:102910001800FEF722FD29462248FEF7F9FC94F83C
:102920005830DBB2012B04BF002384F8583000F08C
:102930000DFE1C4BD3F810313BB91A4B1B6DA34253
:102940000AD038BD174B1C6DCBE700F0DDFDFFF75B
:10295000F1FA00F0FBFDF0E7124BD3F81031ABB108
:10296000104BD3F8183143B14FF0500383F3118863
:10297000BFF36F8FBFF34F8FFEE70B4B4FF08052CB
:102980001A60BFF34F8FBFF36F8FDAE7054B1A68FA
:102990009B6C9A4203D1034B00221A65D1E7FFF7E3
:1029A0003FFFCEE7D4E6002004ED00E058B110B5BB
:1029B0000C46094B196D1831FEF7B5FC0121204674
:1029C000FFF7F6FA10BD4FF0500383F31188BFF301
:1029D0006F8FBFF34F8FFEE7D4E6002068B1034648
:1029E0001348D0F8180188B94FF0500383F31188C9
:1029F000BFF36F8FBFF34F8FFEE74FF0500383F3AA
:102A00001188BFF36F8FBFF34F8FFEE710B51846E5
:102A100014460B46064A116D43F000438B61116D5D
:102A20001831FEF775FC01212046FFF7C1FA10BDF1
:102A3000D4E6002038B5C368DC683CB304F118055F
:102A40002846FEF78AFC184BD3F818313BBB251DEE
:102A50002846FEF782FCE06A134B596D0122824042
:102A60000A435A655C3300EB8000294603EB800083
:102A7000FEF74EFC0C4B1B6DE26ADB6A9A4283BF89
:102A80000120094BC3F82801002038BD4FF0500346
:102A900083F31188BFF36F8FBFF34F8FFEE7294693
:102AA0000248FEF735FCE5E7D4E60020E8E6002022
:102AB0001D4BD3F8183143B94FF0500383F31188FD
:102AC000BFF36F8FBFF34F8FFEE770B541F000414A
:102AD0000160C468F4B1FEF740FC261D3046FEF7E5
:102AE0003CFCE36A104D696D01229A400A436A6515
:102AF00005F15C0003EB8303314600EB8300FEF736
:102B000007FC2B6DE26ADB6A9A4202D90122C5F802
:102B1000282170BD4FF0500383F31188BFF36F8FEE
:102B2000BFF34F8FFEE700BFD4E6002060B110B5C1
:102B3000044600F0E9FC094BD3F820212260DB6C4D
:102B4000636000F003FD10BD4FF0500383F3118864
:102B5000BFF36F8FBFF34F8FFEE700BFD4E60020B7
:102B6000034BD3F820210260DB6C4360704700BF49
:102B7000D4E60020D8B170B5054609B30C4600F084
:102B8000C3FC1B4BD96C2368B3F1FF3F29D06A68A3
:102B90001748D0F820012E68864201D08A4225D9F4
:102BA000881A834215D80023236001241AE04FF0CD
:102BB000500383F31188BFF36F8FBFF34F8FFEE78E
:102BC0004FF0500383F31188BFF36F8FBFF34F8F24
:102BD000FEE75B1A134423602846FFF7C1FF002479
:102BE00000E0002400F0B2FC204670BD0124F9E7AB
:102BF000D4E60020024B0122C3F82821704700BF11
:102C0000D4E6002008B1806C70470020704700B106
:102C10008164704770B50C4616460546D0B12560F4
:102C200005F134026260EA6A22612A6BE2616A6C31
:102C3000A260EA6C62610022A261052B19D0184AD9
:102C4000126DAA4209D02373032B09D0B6B9002311
:102C5000238470BD124A156DE1E700232373F5E765
:102C6000FFF7B0FCAB6A0BB102232373FFF74CFDF7
:102C7000ECE72846FFF71CFB2073E7E72A6B137885
:102C8000A52B0AD11346C2F10102D11813F8010F86
:102C9000A528FAD089082184DBE70021FAE700BFE4
:102CA000D4E600202DE9F84F0B682BB34B685B6826
:102CB0004B6001F10808434504BFCB684B60934665
:102CC0000C464B68D3F80CA0054600264FF00109CE
:102CD00063685B686360984504BF5B6863606368B2
:102CE000DF685B464A4629463846FFF793FF0136C0
:102CF0002435BA45ECD100E000263046BDE8F88F17
:102D00002DE9F84307460C461646FFF75BFC254BBA
:102D10009B6CA34240D8234B03F1D40503F15C081C
:102D200000244FF0010900E01D4604EBC4004A46B0
:102D3000294607EB8000FFF7B5FF0444A5F1140313
:102D40004545F1D1174DA96A04EBC400022207EBF7
:102D50008000FFF7A7FF0444A96D04EBC400022222
:102D600007EB8000FFF79EFF044404EBC40004223D
:102D700005F1340107EB8000FFF794FF044404EBF6
:102D8000C4000322294607EB8000FFF78BFF0444B1
:102D90001EB10023336000E00024FFF7B5FC20469D
:102DA000BDE8F883D4E60020014B186D704700BFE2
:102DB000D4E60020064BD3F810313BB1044BD3F8D6
:102DC0001831002B0CBF02200020704701207047F3
:102DD000D4E60020002850D038B50446C26A2849FD
:102DE000096DC96A8A423FD28169002905DB2449FD
:102DF000096DC96AC1F10701816102EB82022149B3
:102E000001EB82026169914205D01D4A126DD26ABE
:102E1000E262012030E0251D2846FEF79EFA78B9CF
:102E2000E26A02EB8201164B03EB8103DB6D3BB9D7
:102E30001348436D012101FA02F223EA02034365BC
:102E40000F48036DDB6AE362416D012404FA03F26B
:102E50000A4342655C3003EB8303294600EB8300A1
:102E6000FEF756FA204607E0054A126DC06CD36A99
:102E700098422CBF0020012038BD0020704700BFC1
:102E8000D4E6002030E7002000284CD038B50446B6
:102E9000274A126D824208D04FF0500383F3118805
:102EA000BFF36F8FBFF34F8FFEE7026D42B94FF054
:102EB000500383F31188BFF36F8FBFF34F8FFEE78B
:102EC000013A0265C06AE16C88422ED00AB1002046
:102ED00038BD251D2846FEF740FA70B9E16A01EBBE
:102EE0008102134B03EB8203DB6D33B91048436D52
:102EF00001228A4023EA02034365E36CE362C3F1E3
:102F00000702A2610A4A506D012404FA03F1014349
:102F100051655C3203EB8303294602EB8300FEF725
:102F2000F7F92046D4E7002070470020D0E700BF23
:102F3000D4E60020002856D038B50446006D40B9CC
:102F40004FF0500383F31188BFF36F8FBFF34F8FA0
:102F5000FEE7E26C8A4238BF0A46E16A914201D03C
:102F6000012800D038BD2048006DA04232D0E26276
:102F7000A0690028A4BFC2F10702A26101EB810190
:102F80001A4A02EB810162698A42EBD1251D28466B
:102F9000FEF7E3F970B9E16A01EB8102124B03EB32
:102FA0008203DB6D33B91048436D01228A4023EA66
:102FB00002034365E06A0C4B596D012282400A43CB
:102FC0005A655C3300EB8000294603EB8000FEF776
:102FD0009FF9C7E74FF0500383F31188BFF36F8F5A
:102FE000BFF34F8FFEE77047D4E6002030E70020A4
:102FF000044B1A6D9069196D1A6DCB6AC3F1070302
:1030000093617047D4E60020054B1B6D23B1044B40
:103010001A6D136D01331365014B186D704700BFB6
:10302000D4E6002038B505460C4600F06DFA194B81
:103030001B6D5B6D2BB9174B1B6D012283F858205C
:10304000ACB900F083FA00F05FFA124B1B6D5C6DB7
:1030500024B1CDB10F4B1B6D00225A650D4B1B6D7A
:10306000002283F8582000F071FA204638BD11463E
:103070002046FEF79DFF084B4FF080521A60BFF3C9
:103080004F8FBFF36F8FDCE7024B1B6D621E5A65DB
:10309000E4E700BFD4E6002004ED00E0F8B5074601
:1030A0000D4614461E4600F02FFA204B1B6D93F878
:1030B0005830DBB2022B0AD01C4B1A6D506D20EA3F
:1030C000070050651B6D012283F85820CEB900F02F
:1030D0003DFA00F019FA1CB1144B1B6D5B6D2360B7
:1030E000124B1B6D93F85830DBB2022B16D0002424
:1030F0000E4B1B6D002283F8582000F027FA204663
:10310000F8BD11463046FEF753FF094B4FF0805291
:103110001A60BFF34F8FBFF36F8FD8E7034B1A6D61
:10312000536D23EA050555650124E1E7D4E6002047
:1031300004ED00E0F8B5A8B104461F4616460D465A
:1031400000F0E2F90FB1636D3B6094F85830DBB2E8
:10315000022284F85820042E21D8DFE806F00F0C54
:10316000161A1C004FF0500383F31188BFF36F8FC2
:10317000BFF34F8FFEE7626D15436565012B1BD0D2
:10318000012400F0E3F92046F8BD626D013262656A
:10319000F4E76565F2E7022B30D06565EEE7626D16
:1031A000B2F1FF3FEAD04FF0500383F31188BFF331
:1031B0006F8FBFF34F8FFEE7251D2846FEF7CDF832
:1031C000E06A0F4B596D012282400A435A655C3315
:1031D00000EB8000294603EB8000FEF799F8A36A14
:1031E00043B14FF0500383F31188BFF36F8FBFF3E8
:1031F0004F8FFEE7024B1B6D0124C2E70024C0E79E
:10320000D4E600202DE9F843089E18B304469946F9
:1032100090460F4600F0A0FAEFF311854FF05003EF
:1032200083F31188BFF36F8FBFF34F8FB9F1000F96
:1032300002D0636DC9F8003094F85830DBB2022236
:1032400084F85820B8F1040F21D8DFE808F00F0CFB
:10325000161A1C004FF0500383F31188BFF36F8FD1
:10326000BFF34F8FFEE7626D17436765012B1BD0DD
:10327000012085F31188BDE8F883626D0132626533
:10328000F4E76765F2E7022B44D06765EEE7626D0D
:10329000B2F1FF3FEAD04FF0500383F31188BFF340
:1032A0006F8FBFF34F8FFEE7A36A43B14FF0500318
:1032B00083F31188BFF36F8FBFF34F8FFEE7174B78
:1032C000D3F8183103BB271D3846FEF746F8E06AED
:1032D000124B596D012282400A435A655C3300EB60
:1032E0008000394603EB8000FEF712F80B4B1B6D94
:1032F000E26ADB6A9A420FD90EB1012333600120E2
:10330000064BC3F82801B4E704F118010448FDF79F
:10331000FFFFEBE70020ACE70120AAE7D4E600209E
:10332000E8E60020F8B5D8B104460D4600F014FADE
:10333000EFF311874FF0500383F31188BFF36F8FC2
:10334000BFF34F8F94F85830DBB2022284F8582034
:10335000626D01326265012B0BD087F31188F8BDD5
:103360004FF0500383F31188BFF36F8FBFF34F8F7C
:10337000FEE7A36A43B14FF0500383F31188BFF314
:103380006F8FBFF34F8FFEE7154BD3F8183103BB98
:10339000261D3046FDF7E1FFE06A114B596D012211
:1033A00082400A435A655C3300EB8000314603EBF0
:1033B0008000FDF7ADFF0A4B1B6DE26ADB6A9A42A3
:1033C000CBD90DB101232B60054B0122C3F8282175
:1033D000C3E704F118010348FDF79AFFEBE700BFCC
:1033E000D4E60020E8E6002010B5044678B100F0ED
:1033F0008BF894F85830DBB2022B03BF002384F81B
:1034000058300124002400F0A1F8204610BD014BE3
:103410001C6DECE7D4E60020000000000000000076
:1034200082B0002301930D4B1B68B3F1FF3F08D01E
:103430004FF0500383F31188BFF36F8FBFF34F8FAB
:10344000FEE74FF0500383F31188BFF36F8FBFF394
:103450004F8F019B002BFCD002B07047080000206A
:10346000D3480068006880F308884FF0000080F3BC
:10347000148862B661B6BFF34F8FBFF36F8F00DF62
:1034800000BFDFF83003016841F47001016070474C
:103490004FF0807340F8043C21F0010140F8081C13
:1034A000054B40F80C3C40F8202C6FF0020340F82C
:1034B000243C4438704700BF21340008084B196889
:1034C0000868B0E8F04F80F30988BFF36F8F4FF0C2
:1034D000000080F311887047AFF30080AFF30080E5
:1034E00024E70020074B1B68B3F57A7F08D04FF024
:1034F000500383F31188BFF36F8FBFF34F8FFEE745
:10350000704700BF080000204FF0500383F311887C
:10351000BFF36F8FBFF34F8F0A4A136801331360F5
:10352000012B00D07047084B1B6813F0FF0FF9D038
:103530004FF0500383F31188BFF36F8FBFF34F8FAA
:10354000FEE700BF0800002004ED00E0094B1B6807
:1035500043B94FF0500383F31188BFF36F8FBFF36C
:103560004F8FFEE7013B034A13600BB983F31188C9
:10357000704700BF08000020EFF30980BFF36F8F92
:10358000174B1A681EF0100F08BF20ED108A20E9B3
:10359000F04F10602DE909004FF0500080F31188C2
:1035A000BFF34F8FBFF36F8FFFF73AF94FF0000073
:1035B00080F3118809BC19680868B0E8F04F1EF064
:1035C000100F08BFB0EC108A80F30988BFF36F8F2B
:1035D000704700BFAFF30080AFF30080AFF300800F
:1035E00024E7002008B54FF0500383F31188BFF3A0
:1035F0006F8FBFF34F8FFFF717F818B1034B4FF0E2
:1036000080521A60002383F3118808BD04ED00E0A6
:10361000084A0023136008490B60084B1B680849DF
:10362000A1FB03139B09013B06490B6007231360B1
:10363000704700BF10E000E018E000E0EC00002060
:10364000D34D621014E000E03B4B1A683B4B9A42AA
:103650001FD0394B1A683A4B9A4223D010B582B02A
:10366000384B1A78D2B20192FF221A701B78DBB263
:103670008DF803309DF80330334A03F05003137084
:10368000072353609DF8033013F0800F24D00622E7
:1036900012E04FF0500383F31188BFF36F8FBFF335
:1036A0004F8FFEE74FF0500383F31188BFF36F8F06
:1036B000BFF34F8FFEE70A469DF803305B00DBB295
:1036C0008DF803309DF80330511E13F0800FF2D1B6
:1036D0001D4B5A60032A08D04FF0500383F3118822
:1036E000BFF36F8FBFF34F8FFEE7174B4FF440725E
:1036F0005A60019BDBB2134A1370144B1A6842F4F0
:1037000070021A601A6842F070421A60FFF780FF78
:1037100000240F4B1C60FFF7B4FE0E4A136843F001
:1037200040431360FFF79CFEFFF77AF8FFF778FE3F
:10373000204602B010BD00BF00ED00E071C20F4195
:1037400070C20F4100E400E000E8002020ED00E03E
:103750000800002034EF00E0EFF305830F2B0FD9B2
:10376000104A9B5CDBB2104A12789A4208D94FF09B
:10377000500383F31188BFF36F8FBFF34F8FFEE7C2
:103780000A4B1B6803F4E063074A5268934208D966
:103790004FF0500383F31188BFF36F8FBFF34F8F48
:1037A000FEE77047F0E300E000E800200CED00E0E9
:1037B00008ED00E088ED00E038B50A46094B1B68CB
:1037C0005BB1084C25682B68596814F0B9FB686830
:1037D0002060003018BF012038BD024B024919603B
:1037E000EFE700BF08E800200C00002038B590B1DA
:1037F00005460820FCF7EEFD0446A8B1FFF784FE5D
:103800002560002363600D4B9A6854609C60FFF74D
:103810009DFE012038BD4FF0500383F31188BFF3A4
:103820006F8FBFF34F8FFEE74FF0500383F3118884
:10383000BFF36F8FBFF34F8FFEE700BF0C00002078
:103840002DE9F047064689469246314B5B686BB1DD
:103850001B689B683246514648469847034610B954
:103860002B4A002151601846BDE8F087294C284BAF
:103870005C60984609E002462946304614F00EFB8B
:1038800068B16468C8F804408CB127683D68284670
:1038900013F0D6F8335C13F0DF0FF2D1EBE797F9B2
:1038A0000C0000280ADA1A4B5B68002BD0D1524674
:1038B0001949484614F044FB0023D4E733782BB36E
:1038C0003146002214461546012706E04CB9013264
:1038D00052B23C4611F8013F2BB1202BF6D02C46BA
:1038E000F8E73C46F6E774B9094B5B68002BDED07D
:1038F0009042ADD052460949484614F021FB0023BE
:10390000034A5360AFE7013A52B2EDE70022EBE71A
:1039100008E800200C000020ECE3010894E3010813
:103920000048704710E800200023136019B110B45C
:103930000C46002109E01846704710F8013F202B83
:10394000FBD0EBB101318C4209D00378F3B1202BCD
:10395000F3D010F8013FCBB1202BFAD1EDE703787B
:1039600013F0DF0F10D0014613680133136011F814
:10397000014F14F0DF0FF7D1002B08BF002000E04B
:1039800000205DF8044B70470020FAE70378D8E781
:103990002DE9F0438DB0002501954E4B1A6C42F491
:1039A00080421A641A6C02F480420192019A0295D4
:1039B0001A6B42F002021A631A6B02F002020292C0
:1039C000029A03951A6B42F004021A631A6B02F012
:1039D00004020392039A04951A6B42F004021A63DC
:1039E0001A6B02F004020492049A05951A6B42F0D5
:1039F00002021A631A6B02F002020592059A0695FA
:103A00001A6B42F008021A631B6B03F0080306935B
:103A1000069B4FF4806307930226089603230A93BC
:103A2000099605240B94DFF8BC8007A9404609F0ED
:103A300017FF0423079308960A96012709970B940A
:103A4000DFF8A49007A9484609F00AFF0823079366
:103A5000089609960B9407A9484609F001FF1E4CE9
:103A60001E4B23601A6822F040021A604FF48273E2
:103A700063602023E361A56065612561A562E5625D
:103A8000E56025624FF40073A3616562204603F090
:103A900002F92268136843F0400313604FF4805426
:103AA0000794089709970A9607A9404609F0D8FE97
:103AB0004FF400430793089709970A9607A9084807
:103AC00009F0CEFE3A46214640460AF061F80DB0B4
:103AD000BDE8F0830038024074E800200038004060
:103AE000000C0240000402400008024000B587B00C
:103AF0008DF80F00C823009301230DF117020DF17B
:103B00000F01044803F010FA9DF8170007B05DF8A4
:103B100004FB00BF74E8002070B506460D460F4C4C
:103B200000224FF4805120460AF032F8052012F0AE
:103B3000C1FD46F02000FFF7D9FF0A2012F0BAFDC0
:103B40002846FFF7D3FF052012F0B4FD01224FF401
:103B5000805120460AF01CF870BD00BF00040240EE
:103B600038B505460F4C00224FF4805120460AF02C
:103B70000FF8052012F09EFD2846FFF7B7FF0A2038
:103B800012F098FDFF20FFF7B1FF0546052012F067
:103B900091FD01224FF48051204609F0F9FF28469B
:103BA00038BD00BF0004024070B506460C461546FD
:103BB00000224FF48051144809F0EAFF0A2012F065
:103BC00079FD46F02000FFF791FF0A2012F072FD08
:103BD000002D0BDD013C25440A2614F8010FFFF7E8
:103BE00085FF304612F066FDAC42F6D10A2012F095
:103BF00061FD01224FF48051034809F0C9FF0A20FA
:103C000012F058FD70BD00BF0004024010B5FFF770
:103C1000BFFE00224FF40041134809F0B9FF134CD6
:103C2000052221463020FFF7BFFF052221462A202A
:103C3000FFF7BAFF00210120FFF76EFF01210220EC
:103C4000FFF76AFF20211120FFF766FF28210520DA
:103C5000FFF762FF06210846FFF75EFF0221002002
:103C6000FFF75AFF10BD00BF000C024018000020F3
:103C7000F8B506460C46154600224FF4805114480C
:103C800009F086FF0A2012F015FD3046FFF72EFFDF
:103C90000A2012F00FFD002D0DDD013C2544FF2709
:103CA0000A263846FFF722FF04F8010F304612F0CB
:103CB00001FDAC42F5D10A2012F0FCFC01224FF4C8
:103CC0008051034809F064FF0A2012F0F3FCF8BDAC
:103CD0000004024010B504460720FFF741FF10F032
:103CE000400F01D1002010BD0A2012F0E3FC202279
:103CF00021466120FFF7BCFF0A2012F0DBFC002107
:103D0000E220FFF709FF0A2012F0D4FC00224FF452
:103D10000041044809F03CFF70210720FFF7FCFE3A
:103D20000120E0E7000C024010B50446722100209B
:103D3000FFF7F2FE20222146A020FFF735FF144CAA
:103D400000224FF40041204609F022FF142012F017
:103D5000B1FC01224FF40041204609F019FF142064
:103D600012F0A8FC00224FF40041204609F010FF99
:103D700041F2941012F09EFC73210020FFF7CCFE5C
:103D800001224FF40041204609F002FF10BD00BFA0
:103D9000000C024008B503210020FFF7BDFE012200
:103DA0004FF40041014809F0F3FE08BD000C024049
:103DB00008B501224FF40041014809F0E9FE08BDB1
:103DC000000C02400120704708B51720FFF7C8FE1D
:103DD00000F0100008BD08B51720FFF7C1FE00F085
:103DE000010008BD08B5034B00221A60FFF70EFF63
:103DF00008BD00BFCCE8002038B5012811D002284A
:103E000015D018B14FF0FF34204638BD134B1B6856
:103E1000032B01D0012B18D8104B00221A60044646
:103E2000F2E70E4B1C689CB901221A60ECE70B4BC1
:103E30001C6884B91D4602232B600A2012F03AFC4C
:103E4000FFF7A8FF03232B60DEE74FF0FF34DBE72B
:103E50004FF0FF34D8E74FF0FF34D5E7CCE800202F
:103E6000014B1868704700BFCCE8002008B5084B2C
:103E70001B68032B02D04FF0FF3008BDFFF72AFF6D
:103E8000012801D00020F8E7014B00221A60F4E776
:103E9000CCE8002008B5064B1B68012B05D1FFF7C5
:103EA00043FF0020024B186008BD4FF0FF30FBE7D6
:103EB000CCE8002038B50A4B1D686DB914460B4696
:103EC00028B10846FFF74CFE2070284638BD11780F
:103ED0001846FFF721FEF8E74FF0FF35F5E700BF82
:103EE000CCE8002038B50C461146084A156855B98B
:103EF0001A4620B12046FFF7BBFE284638BD2046B3
:103F0000FFF752FEF9E74FF0FF35F6E7CCE8002067
:103F100030B583B0FFF766FF00250195164B1A6C8C
:103F200042F001021A641B6C03F001030193019B30
:103F3000124B1B685B09124AA2FB0323DB09013BFE
:103F40009BB2104C4FF0804222603222E2606360EC
:103F500025616561A56020460FF0D8FF2A460A2139
:103F60001C2004F0ADFD1C2004F0DCFD20460FF009
:103F700084F903B030BD00BF00380240EC000020DF
:103F8000C55A7C0AFCE9002008B502480FF06AFE19
:103F900008BD00BFFCE9002010B5344B1B68032BA3
:103FA00052D8DFE803F0022E104DFFF759FF18B981
:103FB0002E4B02221A6047E02D4812F015FC00201B
:103FC000FFF71AFF40E0FFF74BFF98B90120FFF71A
:103FD00013FFB0F1FF3F06D02648FFF75BFF234BEE
:103FE00000221A6030E0244812F0FEFB64200EF03C
:103FF000D3F929E01E4812F0F7FB0020FFF7FCFE82
:1040000022E0FFF72DFF18B1FFF72AFF032810D198
:104010000220FFF7F1FEB0F1FF3F03D0134B032264
:104020001A6011E0154812F0DFFB64200EF0B4F9BD
:104030000AE0134812F0D8FB0020FFF7DDFE03E092
:10404000FFF70EFF032800D010BD084C201DFFF71E
:104050000DFF012814BF002001200A4B186000202A
:10406000FFF7CAFE00232360EEE700BFD0E8002080
:1040700074E40108E4E900209CE40108C4E40108B8
:10408000F0E4010838EA002008B50368B3F1804F76
:1040900000D008BD074B1B68B3F57A7F04DC054AE6
:1040A000136801331360F4E7FFF776FF014B00223A
:1040B0001A60F4E7BCE9002000B583B08DF8070072
:1040C0000DF1070205210020FFF7F4FE03B05DF8B3
:1040D00004FB10B5034C224605210120FFF7EAFE40
:1040E000207810BDC0E9002008B505230246102144
:1040F0000020FFF7F7FE08BD10B504460523024671
:1041000010210120FFF7EEFE204610BD08B5052363
:1041100002460A210020FFF7E5FE08BD10B504465F
:10412000052302460A210120FFF7DCFE204610BDD0
:10413000F8B5551E084C04F11607084E15F8011F76
:1041400004F8011B304612F04FFBBC42F6D1044B81
:1041500002221A60F8BD00BFE4E9002014E501085E
:10416000D0E8002008B5034B02221A60FFF714FFC5
:1041700008BD00BFD0E80020014B1868704700BFA1
:1041800038EA0020F8B50746441E0E4B03F1200024
:10419000224612F8011F03F8011B8342F9D10A4895
:1041A00012F022FB07F11F06084D14F8011F2846E4
:1041B00012F01AFBB442F8D1054812F015FB38464C
:1041C000F8BD00BFC4E9002018E5010814E50108A6
:1041D000C0E4010808B5074B186840B100231A462F
:1041E0001946FCF7DFFAFFF78FF9FFF7AFF9002068
:1041F00008BD00BF68E9002008B5074B186840B14A
:1042000000231A461946FCF7CDFAFFF77DF9FFF7B0
:104210009DF9002008BD00BF6CE9002010B50A4CD4
:1042200000231A4619462068FCF7BCFA206840B102
:1042300000231A461946FCF7B5FAFFF765F9FFF7B0
:1042400085F9002010BD00BF38E9002010B50A4CE8
:1042500000231A4619462068FCF7A4FA206840B1EA
:1042600000231A461946FCF79DFAFFF74DF9FFF7B0
:104270006DF9002010BD00BF44E9002010B50A4CC4
:1042800000231A4619462068FCF78CFA206840B1D2
:1042900000231A461946FCF785FAFFF735F9FFF7B0
:1042A00055F9002010BD00BF3CE9002000B585B0E5
:1042B000104603AA0121FFF737FB0146684613F0B9
:1042C0008FFD0D4B186830B101230A226946FCF7B7
:1042D00069FA012807D14FF47A70FEF77BFA0020C3
:1042E00005B05DF804FBFFF70FF9044812F07CFA03
:1042F000FFF72CF9EFE700BF60E9002030E5010887
:1043000000B585B0104603AA0121FFF70DFB014659
:10431000684613F065FD0D4B186830B101230A2281
:104320006946FCF73FFA012807D14FF47A70FEF78F
:1043300051FA002005B05DF804FBFFF7E5F80448EA
:1043400012F052FAFFF702F9EFE700BF4CE9002044
:1043500030E5010800B585B0104603AA0121FFF73A
:10436000E3FA0146684613F03BFD0D4B186830B187
:1043700001230A226946FCF715FA012807D14FF4F8
:104380007A70FEF727FA002005B05DF804FBFFF70E
:10439000BBF8044812F028FAFFF7D8F8EFE700BF9F
:1043A00078E9002030E5010810B50C4C00231A46CE
:1043B00019462068FCF7F6F9206840B100231A4638
:1043C0001946FCF7EFF9FFF79FF8FFF7BFF84FF436
:1043D0007A70FEF7FFF9002010BD00BF54E90020FD
:1043E00000B585B0104603AA0121FFF79DFA0146EA
:1043F000684613F0F5FC0D4B186830B100230A2213
:104400006946FCF7CFF9012807D14FF47A70FEF71F
:10441000E1F9002005B05DF804FBFFF775F80448EA
:1044200012F0E2F9FFF792F8EFE700BF48E9002049
:1044300030E5010800B585B0104603AA0121FFF759
:1044400073FA0146684613F0CBFC0D4B186830B187
:1044500001230A226946FCF7A5F9012807D14FF488
:104460007A70FEF7B7F9002005B05DF804FBFFF79E
:104470004BF8044812F0B8F9FFF768F8EFE700BF0F
:1044800040E9002030E5010800B585B0104603AAD8
:104490000121FFF749FA0146684613F0A1FC0D4BD4
:1044A000186830B101230A226946FCF77BF901281C
:1044B00007D14FF47A70FEF78DF9002005B05DF852
:1044C00004FBFFF721F8044812F08EF9FFF73EF8DD
:1044D000EFE700BF64E9002030E5010810B5184C93
:1044E0002046FFF783F904F11000FFF77FF904F18C
:1044F0002000FFF77BF904F13000FFF777F904F1B2
:104500004000FFF773F904F15000FFF76FF904F171
:104510006000FFF76BF904F17000FFF767F904F131
:104520008000FFF763F904F19000FFF75FF904F1F1
:10453000A000FFF75BF904F1B000FFF757F910BDD9
:10454000200000202DE9F04FA1B0FFF7E1FCAA4BBD
:1045500007331293A94D6B1D139363E0A84813F022
:10456000DDFAA84C2060FEF7CFFFFEF7EFFF2078C2
:10457000FFF7A2FDA44B186820B10A21FCF794FBB9
:1045800001285AD0A14B186828B10A22A049FCF78B
:10459000E6FA00285ED19F4B186828B10A21FCF783
:1045A00083FB012800F0D9809B4B186830B10A22A8
:1045B0009A49FCF7D4FA002840F0E780984B186835
:1045C00028B10A21FCF770FB012800F09581954B7A
:1045D000186828B10A21FCF767FB012800F0A581C3
:1045E000914B186828B10A21FCF75EFB012800F006
:1045F0000A828E4B186830B10A228D49FCF7AFFA57
:10460000002840F0ED828B4B186830B10A228A49AD
:10461000FCF7A5FA002840F0DF83884B18680028D3
:1046200040F01485864B18680028A3D00A227449EC
:10463000FCF795FA00289DD090E7FFF74AFD814CE2
:104640002070FEF761FF21787F4812F0CDF8FEF769
:104650007DFF97E76E49684813F0C2FB664B5A1E10
:1046600000204FF0090A4FF008094FF007084FF0FB
:10467000060E4FF0050C042703260224DDF848B08F
:1046800024E010701978332929D11E701978362941
:1046900029D183F800E01978392911D183F800A0D5
:1046A00012E011783229EDD1147019783529EDD145
:1046B00083F800C019783829EDD183F8009003E021
:1046C0001978302908BF18705A4512D001321346A4
:1046D00011783029D5D03129E3D101211170197811
:1046E0003429E2D11F7019783729E3D183F800808B
:1046F000E6E7414C2379617941EA0311A378E27836
:1047000042EA03122078637843EA00132046A47932
:10471000C07940EA04108DF854008DF855108DF8DA
:1047200056208DF8573000238DF85830FEF7ECFEF8
:104730009DF854302B709DF855306B709DF85630B5
:10474000AB709DF85730EB709DF858302B71FEF729
:10475000FDFE15A8FFF7C8FC1DE72846FFF7CCFCB7
:10476000FEF7D2FE394812F03FF82C46384E139F20
:1047700014F8011B304612F037F8A742F8D1FEF7C3
:10478000E5FE344812F030F80EE7334C234920465A
:1047900013F026FB621EE01D00244FF0090B4FF0C2
:1047A000080A4FF007094FF006084FF0050E4FF0CA
:1047B000040C0327022657E01470197833295CD1C2
:1047C0001F70197836295DD183F80080197839294E
:1047D00044D183F800B045E011783229EDD116704C
:1047E00019783529EDD183F800E019783829EDD111
:1047F00083F800A036E000BF7CEA002070E90020CA
:10480000ACEA002008EB00206CE900204CE9002015
:10481000E4EA002054E9002078E90020F0EA0020D2
:1048200038E9002044E900203CE9002048E9002064
:10483000CCEA002040E9002070EA002064E9002072
:1048400060E90020C0E9002064E801087CE8010874
:1048500014E50108C0E4010818EB0020197830299C
:1048600008BF1C70824213D00132134611783029E0
:10487000A2D03129B0D10121117019783429AFD1DA
:1048800083F800C019783729AFD183F80090E5E7A5
:10489000CB4B1A79587940EA02109A78D97841EAD4
:1048A00002111C785A7842EA04129C79DB7943EAB7
:1048B00004138DF854308DF855008DF856108DF88E
:1048C000572000238DF85830FEF71EFEBD4B9DF893
:1048D00054201A709DF855205A709DF856209A70F1
:1048E0009DF85720DA709DF858201A71FEF72EFEB9
:1048F00015A8FFF70BFC61E6B24E3046FFF70EFC41
:10490000FEF702FEB04811F06FFF34460536AF4F98
:1049100014F8011B384611F067FFB442F8D1AC48D7
:1049200011F062FFFEF712FE51E6AA4B03F11601E9
:10493000002203F8012F9942FBD1A74CA123237039
:10494000002000F01FFD83464A2000F01BFD824638
:10495000002000F017FD81464F2000F013FD804637
:10496000002000F00FFD0190492000F00BFD0746EC
:10497000002000F007FD06464E2000F003FD5FFA20
:104980008BFBADF854B05FFA8AFAADF856A05FFA27
:1049900089F9ADF858905FFA88F8ADF85A809DF81B
:1049A0000430ADF85C30FFB2ADF85E70F6B2ADF831
:1049B0006060C0B2ADF862002B7863706B78A37052
:1049C000AB78E370EB7823717E4B1A7862715A787A
:1049D000A2719A78E271DB7823720DF152030934E7
:1049E0000DF1620133F8022F04F8012B9942F9D13D
:1049F000FEF78AFDFEF7AAFD774A2946774B18781D
:104A0000FFF796FBECE5744CA1232370002000F027
:104A1000B9FC8246582000F0B5FC8146002000F029
:104A2000B1FC8046592000F0ADFC0190002000F060
:104A3000A9FC02905A2000F0A5FC0390002000F091
:104A4000A1FC0490302000F09DFC0590002000F0B7
:104A500099FC0690302000F095FC0790002000F0B3
:104A600091FC0890302000F08DFC0990002000F0AF
:104A700089FC0A90302000F085FC0746002000F0F9
:104A800081FC0646302000F07DFC8346002000F0CB
:104A900079FC0B90302000F075FC0C90002000F0A9
:104AA00071FC0D90302000F06DFC0E90002000F0A5
:104AB00069FC0F90302000F065FC5FFA8AFAADF8CF
:104AC00054A05FFA89F9ADF856905FFA88F8ADF80E
:104AD00058809DF80430ADF85A309DF80830ADF894
:104AE0005C309DF80C30ADF85E309DF81030ADF8BC
:104AF00060309DF81430ADF862309DF81830ADF894
:104B000064309DF81C30ADF866309DF82030ADF86B
:104B100068309DF82430ADF86A309DF82830ADF843
:104B20006C30FFB2ADF86E70F6B2ADF870605FFA3F
:104B30008BFBADF872B09DF82C30ADF874309DF859
:104B40003030ADF876309DF83430ADF878309DF8DF
:104B50003830ADF87A309DF83C30ADF87C30C0B2DA
:104B6000ADF87E002B7863706B78A370AB78E37040
:104B7000EB782371134B1A7862715A78A2719A7884
:104B8000E271DB7804F8083F0DF152030DF17E016C
:104B900033F8022F04F8012F9942F9D1FEF7B4FC43
:104BA0001F23013BFDD1FEF7D1FC094811F01CFE8B
:104BB000094A2946094B1878FFF7BAFA19E500BFE8
:104BC00018EB002058E9002090E8010814E50108DE
:104BD000C0E4010887EA002088EA002008EB0020F2
:104BE0008D4C8E49204613F0FBF894F800B08C4BA6
:104BF00083F800B094F801A083F801A094F8029023
:104C000083F8029094F80480864B83F800806779DB
:104C10005F70A6799E70844B1A7801925B7802933C
:104C2000824CA1232370002000F0ACFB039058209D
:104C300000F0A8FB0490002000F0A4FB0590592090
:104C400000F0A0FB0690002000F09CFB07905A208B
:104C500000F098FB0890002000F094FB0990584663
:104C600000F090FB8346002000F08CFB0A90504639
:104C700000F088FB0B90002000F084FB0C9048466D
:104C800000F080FB0D90002000F07CFB0E90404671
:104C900000F078FB0F90002000F074FB1090384675
:104CA00000F070FB1190002000F06CFB8046304655
:104CB00000F068FB8146002000F064FB0746019885
:104CC00000F060FB8246002000F05CFB0646029884
:104CD00000F058FB9DF80C30ADF854309DF81030C2
:104CE000ADF856309DF81430ADF858309DF81830B6
:104CF000ADF85A309DF81C30ADF85C309DF820308E
:104D0000ADF85E309DF82430ADF860305FFA8BFB73
:104D1000ADF862B09DF82830ADF864309DF82C30C5
:104D2000ADF866309DF83030ADF868309DF834301D
:104D3000ADF86A309DF83830ADF86C309DF83C30F5
:104D4000ADF86E309DF84030ADF870309DF84430CD
:104D5000ADF872305FFA88F8ADF874805FFA89F9BF
:104D6000ADF87690FFB2ADF878705FFA8AFAADF8D8
:104D70007AA0F6B2ADF87C60C0B2ADF87E002B78B8
:104D800063706B78A370AB78E370EB782371284B7A
:104D90001A7862715A78A2719A78E271DB7804F815
:104DA000083F0DF152030DF17E0133F8022F04F894
:104DB000012F9942F9D1FEF7A7FB1F23013BFDD13B
:104DC000FEF7C4FB1B4811F00FFD184A29461A4B89
:104DD0001878FFF7ADF916E4184C1949204612F07F
:104DE000FFFF2378722B2DD06C2B2FD1134B5B78C8
:104DF0006F2B2BD1114B9B78772B27D10F4BDB7867
:104E0000652B23D10D4B1B79722B1FD1064B04222E
:104E10001A7000225A7019E03CEA0020CCEA002007
:104E2000B8EA0020A8EA0020C8EA002088EA0020AA
:104E300058E90020C0E4010808EB002014EB002032
:104E400070EA00206378612B00F0EE80CD4B93F880
:104E500000B093F801A093F80290CB4B93F8008038
:104E60005F789E78C94B1A7801925B780293C84CA0
:104E7000A1232370002000F085FA0390582000F051
:104E800081FA0490002000F07DFA0590592000F08E
:104E900079FA0690002000F075FA07905A2000F089
:104EA00071FA0890002000F06DFA0990584600F061
:104EB00069FA8346002000F065FA0A90504600F037
:104EC00061FA0B90002000F05DFA0C90484600F06B
:104ED00059FA0D90002000F055FA0E90404600F06F
:104EE00051FA0F90002000F04DFA1090384600F073
:104EF00049FA1190002000F045FA8046304600F053
:104F000041FA8146002000F03DFA0746019800F082
:104F100039FA8246002000F035FA0646029800F081
:104F200031FA9DF80C30ADF854309DF81030ADF8E2
:104F300056309DF81430ADF858309DF81830ADF863
:104F40005A309DF81C30ADF85C309DF82030ADF83B
:104F50005E309DF82430ADF860305FFA8BFBADF821
:104F600062B09DF82830ADF864309DF82C30ADF873
:104F700066309DF83030ADF868309DF83430ADF8CB
:104F80006A309DF83830ADF86C309DF83C30ADF8A3
:104F90006E309DF84030ADF870309DF84430ADF87B
:104FA00072305FFA88F8ADF874805FFA89F9ADF86D
:104FB0007690FFB2ADF878705FFA8AFAADF87AA011
:104FC000F6B2ADF87C60C0B2ADF87E002B786370AD
:104FD0006B78A370AB78E370EB7823716D4B1A7824
:104FE00062715A78A2719A78E271DB7804F8083F0E
:104FF0000DF152030DF17E0133F8022F04F8012F59
:105000008B42F9D11F23013BFDD1FEF77DFAFEF75C
:105010009DFA614811F0E8FB5D4A29465F4B18781C
:10502000FFF786F8FFF7F9BAA378692B7FF40EAF84
:10503000E378732B7FF40AAF2379652B7FF406AFF7
:10504000524B02221A7000225A70FFE60A2254497B
:10505000FBF785FD00283FF4E5AA524C5049204655
:1050600012F0BEFE23786F2B78D04F4B03F1160160
:10507000002203F8012F9942FBD14C4B93F800809A
:105080005F789E7893F803B0414CA12323700020F1
:1050900000F078F98246404600F074F9814600201D
:1050A00000F070F98046384600F06CF907460020A1
:1050B00000F068F90190304600F064F90290002099
:1050C00000F060F90646584600F05CF95FFA8AFA8B
:1050D000ADF854A05FFA89F9ADF856905FFA88F8F8
:1050E000ADF85880FFB2ADF85A709DF80430ADF8B5
:1050F0005C309DF80830ADF85E30F6B2ADF8606017
:10510000C0B2ADF862002B7863706B78A370AB7897
:10511000E370EB7823711F4B1A7862715A78A27191
:105120009A78E271DB7823720DF1520309340DF1A4
:10513000620133F8022F04F8012B9942F9D1FEF7EE
:10514000E3F9154811F050FBFEF700FA104A294622
:10515000124B1878FEF7ECFFFFF764BA63786E2BFA
:1051600026D0662B81D10F4B9B78662B7FF47DAFC9
:105170000E4B56221A704F225A7046229A70DA70DD
:1051800073E700BFB8EA0020A8EA0020C8EA0020C0
:1051900088EA002058E90020C0E4010808EB00205C
:1051A000D8EA00200CEB002087EA002048EA002023
:1051B000044B56221A704F225A704E229A700022C7
:1051C000DA7052E748EA002008B50D4D0A240D4E6A
:1051D00002E02046FDF7FEFA28680028F9D02146B3
:1051E000FBF762FD0128F4D1FEF78EF90DF0B2F85D
:1051F0000146304611F0F8FAFEF7A8F9E9E700BFDA
:1052000068E90020A4E8010810B582B0354B01938D
:105210000124009400234FF4407233493348FCF7D3
:1052200001FF334B0193009400234FF48062314916
:105230003148FCF7F7FE032200212046FBF76BFA0A
:105240002E4B1860032200212046FBF764FA2C4BFA
:10525000186000220A210846FBF75DFA294B186006
:10526000032200212046FBF756FA274B1860002244
:105270000A210846FBF74FFA244B1860032200214D
:105280002046FBF748FA224B186000220A21084604
:10529000FBF741FA1F4B1860032200212046FBF761
:1052A0003AFA1D4B1860032200212046FBF733FA1F
:1052B0001A4B186000220A210846FBF72CFA184BFB
:1052C000186000220A210846FBF725FA154B1860E2
:1052D00000220A210846FBF71EFA134B186002B0A1
:1052E00010BD00BF34E90020C0E8010845450008B2
:1052F00050E90020C8E80108C951000868E9002009
:105300006CE9002060E9002054E900204CE900200D
:1053100038E9002078E9002044E900203CE9002039
:1053200048E9002040E9002064E9002030B400F0A2
:105330000101C0F34004C0F38002C0F3C003600168
:1053400040EA011040EA821040EAC31084EA0205F4
:105350005D4040EA45004A405A4040EA820081EA06
:105360000402534040EAC3000123002140FA03F243
:1053700002F0010251400133082BF7D10843C0B2BB
:1053800030BC704738B5054600F00F00FFF7CEFF80
:1053900004462809FFF7CAFF44EA002080B238BD5E
:1053A00008B5FFF7EFFF0146024B1880024811F0E5
:1053B0001BFA08BD2EEB0020D4E801082DE9F04FC0
:1053C000C0F3800CC0F3C00E00F0100AC0F300114F
:1053D00000F02008C0F3401600F04009C0F380132D
:1053E00000F0800BC0F3C01481EA060284EA0207D1
:1053F00081EA03056540C0F340005A40904207D05F
:10540000BC4514D0AE4518D0BBFA8BF4640906E055
:10541000BC4504D0AE4502D0BAFA8AF149099800D9
:1054200040EA460040EAC4000843BDE8F08FAE45BC
:10543000F5D0B8FA88F67609F1E7B9FA89F35B098D
:10544000EDE738B50546C0B2FFF7B8FF0446280AB5
:10545000FFF7B4FF44EA0010C0B238BD10B4104CDE
:10546000226922F440722261032912D001290C4AD8
:1054700013690CBF43F0040343F400431361084A6B
:10548000136943EA002343F4803313615DF8044B4E
:105490007047226942F4004242F004022261EEE7C2
:1054A000003C0240624B1B7E012B00F0B18070B5C6
:1054B00004465F4B01221A76036813F0010F6DD08A
:1054C0004368934215D08568C6684CF250300BF0A3
:1054D0007FF90346002862D1564A95423CD0B5F583
:1054E000805F80F09E8054490A881543ADB20D80DC
:1054F00055E08568C6684CF250300BF069F90346F8
:1055000000284CD14B4A954209D0B5F5805F80F018
:10551000828049490A8822EA05050D803FE026F08D
:105520000202012A05D045490A8822EA15350D8074
:1055300004E041490A8802F470420A80032E2ED109
:105540004CF250300BF044F9034640BB3B490A880B
:1055500002F470420A8022E026F00202012A06D0FC
:1055600036490A8842EA1535ADB20D8006E0324967
:105570000A886FEA12326FEA02320A80032E0ED1D5
:105580004CF250300BF024F9034640B92B490A88FD
:105590006FEA12326FEA02320A8000E001232268C9
:1055A00012F0020F0CD1226812F0040F14D12268FD
:1055B00012F0080F21D11E4A00211176184670BD45
:1055C00025694CF250300BF003F903460028EAD16C
:1055D000EDB21B4A1570E6E7257E4CF250300BF019
:1055E000F7F803460028E2D116490A7825F01F058E
:1055F00002F01F0215430D70D9E7207D114B197879
:1056000001F0F30119701A7802431A700023D2E7EF
:1056100002231846704709490A8822EA15350D8089
:10562000BDE706490A8842EA1535ADB20D80B6E7F6
:1056300030EB002000F0FF00163C02401A3C024014
:10564000153C0240143C02400F2303600E4B1B88A4
:1056500083600E4B1B78DBB2CC2B12D00B4B1B782C
:10566000DBB2552B0CBF5523AA230361084B5B69A2
:1056700023F01F030376074B1B7803F00C034361F1
:105680007047CC23F1E700BF163C0240153C0240B6
:10569000003C0240143C0240F8B50446036813F095
:1056A000010F4CD04368012B13D08689C7898568C8
:1056B0004CF250300BF08CF80346002840D125F016
:1056C0000202012A28D02A490A8822EA07070F8005
:1056D00036E08589C78986684CF250300BF078F83F
:1056E000034668BB26F00202012A04D020490A883A
:1056F00017430F8024E01F4A11880D431580032EA5
:105700001ED14CF250300BF063F80346C0B9184A72
:1057100011880F43178013E016490A8822EA06060B
:105720000E80032D0CD14CF250300BF051F8034693
:1057300030B90F490A8822EA07070F8000E00123E9
:10574000226812F0020F01D11846F8BD247C4CF2F9
:1057500050300BF03DF803460028F5D1064A117889
:1057600001F0EF011170117821431170ECE700BFD7
:105770001A3C0240163C0240143C0240044B1B8879
:105780008381044B1B88C381034B1B7803747047D0
:10579000163C02401A3C0240143C0240034A137873
:1057A00043F0800313700020704700BF173C024095
:1057B000034A137803F07F0313700020704700BF83
:1057C000173C0240014B1888704700BF1A3C02404A
:1057D00010B441B1012923D002290CBF4FF4007449
:1057E0004FF4407400E000240B2888BF04300E4BB7
:1057F000196921F4407119611A6922431A611A6901
:1058000022F0F8021A611A6942EAC00242F002026A
:105810001A611A6942F480321A615DF8044B7047CC
:105820004FF48074E0E700BF003C024008B5184B1D
:105830001B7E012B29D0164B01221A76154B1A69B3
:1058400042F080721A611A6942F000721A61F32202
:10585000DA600368012B0DD00D4B01221A70C2686B
:105860005A608268DA60017C19728068FFF7B0FFC5
:10587000002008BD064B02221A7042681A61416876
:10588000007CFFF7EBFD0020F3E70220F1E700BF0B
:1058900030EB0020003C0240164B1B6813F4007FE5
:1058A00010D0144B1A6822F400721A601A6842F47D
:1058B00000621A601A6822F400621A601A6842F4E0
:1058C00000721A600B4B1B6813F4806F10D0094BE9
:1058D0001A6822F480621A601A6842F480521A60D0
:1058E0001A6822F480521A601A6842F480621A60C0
:1058F000704700BF003C02402DE9F843274B1B7E58
:10590000012B47D00F460446244B01221A764CF255
:1059100050300AF05DFF8146002835D14FF0FF334B
:105920003B602368012B1BD0A568E3682B449D4294
:1059300028D24CF250381A4E217C2846FFF748FFF7
:1059400040460AF045FF336923F0FA03336181468C
:10595000B8B90135E368A2681344AB42ECD811E052
:105960006168207CFFF77AFD4CF250300AF030FF7E
:1059700081460B4A136923F4004323F004031361A7
:1059800000E03D60FFF788FF044B00221A7648468E
:10599000BDE8F8834FF00209F9E700BF30EB0020C3
:1059A000003C02400268D36823F49073D36002681D
:1059B000536923F001035361202380F83A30704784
:1059C0002DE9F84304460268136923F44053C16883
:1059D0000B4313610168CA6822F4164222F00C02DC
:1059E00083680069034360690343E0690343134329
:1059F000CB602268536923F44073A1690B43536160
:105A0000E369B3F5004F5ED02368B34A934200F0D8
:105A10000C8102F58062934200F007810CF098FB44
:105A200000EB800000EB800063689B00B0FBF3F3A9
:105A3000AA4FA7FB03235B091D010CF089FB00EBB8
:105A4000800000EB800063689B00B0FBF3F60CF075
:105A50007FFB00EB800000EB800063689B00B0FBE5
:105A6000F3F3A7FB03235B094FF0640909FB1363FE
:105A70001B013233A7FB03235B0903F0F0060CF094
:105A800067FB00EB800000EB800063689B00B0FBCD
:105A9000F3F80CF05DFB226800EB800000EB800067
:105AA00063689B00B0FBF3F3A7FB03135B0909FBDF
:105AB00013831B013233A7FB0313C3F34313334395
:105AC0002B44936005E12368834A934258D002F542
:105AD0008062934254D00CF03BFB00EB800000EB63
:105AE000800063685B00B0FBF3F37C4FA7FB0323EC
