:020000040800F2
:100000000000032019CA0108A5560108C5560108B9
:10001000E5560108055701082557010800000000B2
:1000200000000000000000000000000069CA010894
:10003000455701080000000069CA0108655701081A
:1000400069CA010869CA010869CA010869CA0108C0
:1000500069CA010869CA010869CA010869CA0108B0
:1000600069CA010869CA010869CA010869CA0108A0
:1000700069CA010869CA010869CA010869CA010890
:1000800069CA010869CA010869CA010869CA010880
:1000900069CA010869CA010869CA010869CA010870
:1000A00069CA010869CA010869CA010869CA010860
:1000B00069CA010869CA010869CA010869CA010850
:1000C00069CA010869CA010869CA010869CA010840
:1000D00069CA010869CA010869CA010869CA010830
:1000E00069CA010869CA010869CA010869CA010820
:1000F00069CA010869CA010869CA010869CA010810
:1001000069CA010869CA010869CA010869CA0108FF
:1001100069CA010869CA010869CA010869CA0108EF
:1001200069CA010869CA010869CA010869CA0108DF
:1001300069CA01087157010869CA010869CA01083A
:1001400069CA010869CA010869CA010869CA0108BF
:1001500069CA010869CA010869CA010869CA0108AF
:1001600069CA010869CA010869CA010869CA01089F
:1001700069CA010869CA010869CA010800000000CB
:1001800069CA010869CA010869CA010869CA01087F
:1001900069CA010869CA010869CA010869CA01086F
:0C01A00069CA010869CA010869CA01089F
:1001C000044B05481B1A062B02D9044B03B11847F0
:1001D000704700BFDF080020DC080020000000009E
:1001E00005490648091A891001EBD171491002D05E
:1001F000034B03B118477047DC080020DC080020DF
:100200000000000010B5064C237843B9FFF7D8FF73
:10021000044B13B10448AFF300800123237010BDD9
:10022000DC0800200000000080CA010808B5084B67
:100230001BB108490848AFF300800848036813B9A8
:10024000BDE80840CCE7064B002BF9D09847F7E70C
:1002500000000000E008002080CA0108D808002043
:1002600000000000134B002B08BF114B9D46A3F567
:10027000803A00218B460F461148124A121A15F097
:1002800067FB0D4B002B00D098470C4B002B00D088
:1002900098470020002104000D000B4815F000FBDA
:1002A00015F02EFB2000290000F03CF815F004FBAF
:1002B0000000080000000000000000000000000036
:1002C000DC080020180A0020D958010810B50F4B8F
:1002D0001B68012B08D0022B0FD0B3B900220B4BA7
:1002E0005A6000F0ABF910BD084C01236360084868
:1002F00015F058FA0023236010BD044C02236360FC
:10030000044815F04FFA0023236010BDF8080020C0
:1003100030CC010840CC010808B515F049F900F0CF
:10032000B7FA08BDF8B5FFF7F7FF00240D4F0E4EE2
:100330000EF02AFD001B3228FAD900F07FF900F0F8
:10034000D5F9054600F0E2F904462946384615F08D
:1003500029FA2146304615F025FA0EF015FD04461F
:10036000E6E700BF50CC010868CC010830B58FB07B
:1003700000240094224B5A6C42F001025A645A6CD9
:1003800002F001020092009A01941A6B42F01002EE
:100390001A631B6B03F010030193019B4FF400736E
:1003A000099302230A930B940C930D9409A9154801
:1003B00009F0A8F8144B1B68144AA2FB03239B09FD
:1003C000013B9BB2124D2C606422EA606B602C6191
:1003D0006C61AC60602302930392049405940694CC
:1003E00007940894284610F0BFFA224602A928462E
:1003F00010F0D4FB2146284611F094F90FB030BD1F
:100400000038024000100240100000201F85EB5110
:1004100064090020024B1B685A6B00225A63704724
:1004200064090020014B1B68596370476409002070
:1004300030B400F00105C0F34003C0F38004C0F302
:10044000C00085EA03015A0142EA051242EA841219
:1004500042EAC01284EA010342EA430285EA040345
:10046000434042EA8303484043EAC001012300209D
:1004700041FA03F202F0010250400133082BF7D198
:100480000843C0B230BC704738B5054600F00F00D5
:10049000FFF7CEFF04462809FFF7CAFF44EA002011
:1004A00080B238BD30B4C209C0F38013C0F3401528
:1004B000C0F30014990041EAC201214351EA450109
:1004C00009D15A4085EA0203634000F00100181A7E
:1004D00018BF0120FFE730BC704700BF38B5050AE0
:1004E000C0B2FFF7DFFF04462846FFF7DBFF44EA10
:1004F0000010C0B238BD00BF70B5044601281AD143
:10050000384E00224FF40061304609F0AFF9364D05
:1005100001224FF48041284609F0A8F901224FF446
:100520000051304609F0A2F901224FF4004128465B
:1005300009F09CF939E002281AD12A4D01224FF422
:100540000061284609F092F9274C00224FF48041BF
:10055000204609F08BF901224FF40051284609F09A
:1005600085F901224FF40041204609F07FF970BD62
:1005700003281AD11B4D01224FF40061284609F0CF
:1005800075F9194C01224FF48041204609F06EF9AB
:1005900000224FF40051284609F068F901224FF477
:1005A0000041204609F062F970BD042C19D10D4DAF
:1005B00001224FF40061284609F058F90A4C012243
:1005C0004FF48041204609F051F901224FF40051C7
:1005D000284609F04BF900224FF40041204609F06B
:1005E00045F970BD001002400014024038B5114DAD
:1005F0004FF40051284609F033F904464FF4805176
:10060000284609F02DF918B1B4FA84F4640900E021
:1006100002244FF40041084809F022F9002808BFDD
:1006200003242021034809F01BF9002814BF2046A9
:10063000042038BD00140240000C024008B5284BCD
:100640001B68052B4AD8DFE803F0030A131C252E8C
:100650000122234B1A60234815F0A4F808BD01209D
:10066000214B1860FFF748FF05221D4B1A6008BD9B
:1006700002201D4B1860FFF73FFF0522184B1A6040
:1006800008BD0320184B1860FFF736FF0522144BF6
:100690001A6008BD0420144B1860FFF72DFF0522D7
:1006A0000F4B1A6008BDFFF7A1FF0F4B1B68012B12
:1006B00003D102210A4A11600BE0022B03D103226D
:1006C000074B1A6008BD032B03D10422044B1A60A8
:1006D00008BD042B02D10122014B1A6008BD00BFE6
:1006E000A80900207CCC01080009002008B5FFF70C
:1006F0007DFF18B10122044B1A6002E00022024B78
:100700001A60014B186808BDAC09002008B5FFF756
:100710006DFF0346264A1268012A0CD1012805D034
:1007200002283AD0032815D0002000E00420042B32
:1007300008BF01201FE0022A0ED1012805D002289F
:100740002DD003282FD0002000E00820042B08BF64
:10075000052008BD022000E00020032A0BD1012B58
:1007600004D0022B1DD0032B1FD000E00C20042B43
:1007700008BF092008BD042A18D1012B04D0022B80
:1007800007D0032B07D000E01020042B08BF0D205A
:1007900008BD0F2008BD0E2008BD0320EBE7072091
:1007A00008BD0B2008BD0620E5E70A2008BD00BFF4
:1007B0000009002008B5FFF7A9FF034618B930214A
:1007C0002F4A11700BE0012803D131212C4A1170FE
:1007D0000BE0022803D13221294A11700BE0032BD0
:1007E00003D13321264A11700BE0042B03D13421AD
:1007F000234A11700BE0052B03D13521204A1170DB
:100800000BE0062B03D136211D4A11700BE0072B9C
:1008100003D137211A4A11700BE0082B03D138217C
:10082000174A11700BE0092B03D13921144A1170BA
:100830000BE00A2B03D14121114A11700BE00B2B65
:1008400003D142210E4A11700BE00C2B03D143213E
:100850000B4A11700BE00D2B03D14422084B1A7088
:100860000AE00E2B03D14522054B1A7004E00F2B32
:1008700002D14622024B1A70014B187808BD00BF06
:10088000A40900200022014B1A607047A80900202B
:100890002DE9F04F89B000260096544B1A6B42F0B8
:1008A00010021A631A6B02F010020092009A01966D
:1008B0001A6B42F020021A631A6B02F020020192B6
:1008C000019A02961A6B42F010021A631A6B02F038
:1008D00010020292029A03961A6B42F020021A63E7
:1008E0001A6B02F020020392039A04961A6B42F0EC
:1008F00020021A631A6B02F020020492049A0596F1
:100900001A6B42F008021A631A6B02F00802059291
:10091000059A06961A6B42F020021A631A6B02F0CF
:1009200020020692069A07961A6B42F020021A637A
:100930001B6B03F020030793079B2D4C4FF40049DA
:10094000C4F80090012767600225A560E560DFF824
:10095000A8802146404608F0D5FD4FF4005AC4F85F
:1009600000A06760A560E560DFF890B021465846BA
:1009700008F0C8FD4FF4804323606760A560E56020
:100980002146404608F0BEFD4FF4006323606760D7
:10099000A560E5602146584608F0B4FDC4F800A003
:1009A0006660A760E5602146404608F0ABFD4FF465
:1009B000805323606660A760E5602146404608F0EA
:1009C000A1FDC4F800906660A760E5602146094873
:1009D00008F098FD202323606660A760E56021464B
:1009E000404608F08FFD09B0BDE8F08F00380240A6
:1009F00050090020000C0240001402400010024088
:100A00000622014B1A607047A80900200268D368CB
:100A100023F49073D3600268536923F00103536198
:100A2000202380F83A3070472DE9F04704460168EA
:100A30000B6923F44052C36813430B610068C2681A
:100A4000A1682369194363691943E369194322F4CF
:100A5000164323F00C030B43C36021684B6923F456
:100A60004072A36913434B61E369B3F5004F40F053
:100A7000B780276803F1804303F510439F4203D0FA
:100A800003F580639F4255D10DF058FA00EB8000CA
:100A900000EB800066687600B0FBF6F6DFF8AC820B
:100AA000A8FB0636760936010DF048FA00EB800007
:100AB00000EB800065686D00B0FBF5F50DF03EFAC7
:100AC00000EB800000EB800063685B00B0FBF3F399
:100AD000A8FB03235B094FF0640A0AFB1355ED00E2
:100AE0003235A8FB05352D0905F4F8750DF026FA09
:100AF00000EB800000EB800063685B00B0FBF3F963
:100B00000DF01CFA00EB800000EB800063685B00D6
:100B1000B0FBF3F3A8FB03235B090AFB1393DB0091
:100B20003233A8FB0323C3F3421333441D44BD6097
:100B3000BDE8F0870DF0F2F900EB800000EB8000DB
:100B400066687600B0FBF6F6DFF80082A8FB063692
:100B5000760936010DF0E2F900EB800000EB800031
:100B600065686D00B0FBF5F50DF0D8F900EB80007D
:100B700000EB800063685B00B0FBF3F3A8FB03238A
:100B80005B094FF0640A0AFB1355ED003235A8FBF0
:100B900005352D0905F4F8750DF0C0F900EB80005E
:100BA00000EB800063685B00B0FBF3F90DF0B6F971
:100BB00000EB800000EB800063685B00B0FBF3F3A8
:100BC000A8FB03235B090AFB1393DB003233A8FB6A
:100BD0000323C3F3421333441D44BD60BDE8F087D3
:100BE0002768594B9F4203D003F580639F4255D13C
:100BF0000DF0A4F900EB800000EB80006668B60001
:100C0000B0FBF6F6DFF84481A8FB0636760936011C
:100C10000DF094F900EB800000EB80006568AD00FA
:100C2000B0FBF5F50DF08AF900EB800000EB8000D9
:100C300063689B00B0FBF3F3A8FB03235B094FF051
:100C4000640A0AFB13552D013235A8FB05356D09E1
:100C500005F0F0050DF072F900EB800000EB80006C
:100C600063689B00B0FBF3F90DF068F900EB8000BE
:100C700000EB800063689B00B0FBF3F3A8FB032349
:100C80005B090AFB13931B013233A8FB0323C3F355
:100C900043131D442E44BE60BDE8F0870DF03EF9BD
:100CA00000EB800000EB80006668B600B0FBF6F653
:100CB000DFF89880A8FB0636760936010DF02EF98C
:100CC00000EB800000EB80006568AD00B0FBF5F53F
:100CD0000DF024F900EB800000EB800063689B00BE
:100CE000B0FBF3F0A8FB003040094FF0640A0AFBA8
:100CF00010552D013235A8FB05356D0905F0F005BD
:100D00000DF00CF900EB800000EB800063689B00A5
:100D1000B0FBF3F90DF002F900EB800000EB80006E
:100D200063689B00B0FBF3F3A8FB03235B090AFB9A
:100D300013931B013233A8FB0323C3F343131D4456
:100D40002E44BE60BDE8F087001001401F85EB51C6
:100D50002DE9F04107460E4615469846069C1EE0D2
:100D6000B4F1FF3F1CD02CB10EF00EF8C8EB000020
:100D7000844214D23A68D36823F4D073D3603A68BB
:100D8000536923F001035361202387F8393087F832
:100D90003A30002387F838300320BDE8F0813A6804
:100DA000136836EA03030CBF01230023AB42D7D0FC
:100DB0000020BDE8F08100BF704700BF68B310B5E8
:100DC000044690F8393013F0FF0F04D1002380F867
:100DD0003830FFF7F1FF242384F839302268D368D4
:100DE00023F40053D3602046FFF71EFE22681369E8
:100DF00023F4904313612268536923F02A0353615B
:100E00002268D36843F40053D3600020E0632023BA
:100E100084F8393084F83A3010BD0120704700BFA3
:100E2000002832D010B5044690F8393013F0FF0F87
:100E300004D1002380F83830FFF7BEFF242384F864
:100E400039302268D36823F40053D3602046FFF77B
:100E5000EBFD2268136923F4904313612268536900
:100E600023F0220353612268536943F0080353615E
:100E70002268D36843F40053D3600020E06320234A
:100E800084F8393084F83A3010BD0120704700BF33
:100E900000283CD038B504460D4690F8393013F0A0
:100EA000FF0F04D1002380F83830FFF785FF24239B
:100EB00084F839302268D36823F40053D360204685
:100EC000FFF7B2FD2268136923F4006313612268FF
:100ED000536923F02A0353612268136943F4804362
:100EE00013612268136923F02003136123681969D1
:100EF0000D431D612268D36843F40053D360002082
:100F0000E063202384F8393084F83A3038BD01207A
:100F1000704700BF002841D070B5044615460E4604
:100F200090F8393013F0FF0F04D1002380F83830E7
:100F3000FFF742FF242384F839302268D36823F472
:100F40000053D3602046FFF76FFD2268136923F436
:100F5000904313612268536923F02A035361226886
:100F6000136923F00F031361236819690E431E618F
:100F70002268D36823F40063D3602368DA681543DA
:100F8000DD602268D36843F40053D3600020E0633F
:100F9000202384F8393084F83A3070BD012070473E
:100FA000704700BFA0B110B50446242380F8393043
:100FB0000268D36823F40053D360FFF7F1FF0020E9
:100FC000E06384F8390084F83A0084F8380010BDF2
:100FD000012070472DE9F04383B01E4690F8393068
:100FE000DBB2202B59D104460D469046002956D03D
:100FF000002A56D090F83830012B54D0012380F8C5
:1010000038300023C363212380F839300DF0BCFE53
:101010000746A4F82480A4F826804FF000094FF07A
:10102000800826E0E38C013B9BB2E384A368B3F520
:10103000805F12D100963B464A4641462046FFF764
:1010400087FE90BB22682B88C3F308035360236993
:101050000BB902350DE001350BE000963B464A46E0
:1010600041462046FFF774FE08BB23682A785A6081
:101070000135E38C9BB2002BD4D100963B46002275
:1010800040212046FFF764FE034690B9202284F8F1
:101090003920002284F838200CE002230AE00123E2
:1010A00008E0012306E0022304E0032302E0032317
:1010B00000E00323184603B0BDE8F0832DE9F043B8
:1010C00083B01E4690F83A30DBB2202B5BD1044649
:1010D0000D461746002958D0002A58D090F83830CD
:1010E000012B56D0012380F838300023C36322231C
:1010F00080F83A300DF048FE8146A785E7854FF02D
:101100000008202734E0E38D013B9BB2E385A36810
:10111000B3F5805F17D100964B46424639462046CC
:10112000FFF716FE002836D1236933B923685B68C0
:10113000C3F3080325F8023B1AE023685B68DBB2BF
:1011400025F8013B14E000964B46424639462046BE
:10115000FFF7FEFD08BB236923B923685B682B708A
:10116000013505E023685B6803F07F032B700135D0
:10117000E38D9BB2002BC6D1202384F83A300020A7
:1011800084F838000AE0022008E0012006E001208F
:1011900004E0022002E0032000E0032003B0BDE8E9
:1011A000F08300BF90F83930DBB2202B16D1B9B1F3
:1011B000C2B190F83830012B16D001628284C2840B
:1011C0000023C363212280F8392080F83830016879
:1011D000CA6842F08002CA60184670470220704711
:1011E00001207047012070470220704790F83A3084
:1011F000DBB2202B20D109B312B390F83830012B89
:1012000020D081628285C2850023C363222280F8B8
:101210003A2080F838300168CA6842F48072CA60A7
:1012200001684A6942F001024A610168CA6842F0F5
:101230002002CA601846704702207047012070479C
:10124000012070470220704738B590F83940E4B269
:10125000202C31D1002931D0002A31D090F83830FB
:10126000012B2FD013460446012280F8382001625A
:101270008384C3840025C563212280F83920026B52
:101280001148D063226B11481064226B1048D0645F
:10129000226B156522680432206B0AF0B1FB2368CB
:1012A0006FF040021A6084F838502268536943F0A6
:1012B00080035361284638BD022038BD012038BD67
:1012C000012038BD022038BD051600083916000877
:1012D0003917000830B583B090F83A40E4B2202CBA
:1012E0003DD100293DD0002A3DD090F83830012B67
:1012F0003BD013460A460446012180F8381082622A
:1013000083850025C563222180F83A10416B184877
:10131000C863616B17480864616B1748C864616BE8
:101320000D6521680431606B0AF06AFB0195236842
:101330001A6801925A680192019A84F83850DA6862
:1013400042F48072DA602268536943F0010353610A
:101350002268536943F040035361284606E00220A7
:1013600004E0012002E0012000E0022003B030BDD3
:1013700049160008291700083917000890F8383076
:10138000012B2DD0012380F838300268516990F884
:101390003930DBB2212B06D111F0800F03D0536915
:1013A00023F0800353610268516990F83A30DBB250
:1013B000222B10D111F0400F0DD0D36823F480738D
:1013C000D3600268536923F00103536102685369D3
:1013D00023F040035361002380F8383018467047EB
:1013E0000220704790F83830012B2DD0012380F86F
:1013F000383090F83930DBB2212B04D102685369C0
:1014000043F08003536190F83A30DBB2222B1FD1B6
:1014100082B00023019303681A6801925A6801920E
:10142000019ADA6842F48072DA600268536943F024
:10143000010353610268536943F040035361002381
:1014400080F83830184601E00220704702B070473B
:10145000002380F838301846704700BF10B50446A6
:101460000268516990F83930DBB2212B12D111F0AA
:10147000800F0FD0536923F080035361006B08B1D4
:101480000AF008FB2268D36823F0C003D36020234E
:1014900084F839302268516994F83A30DBB2222B53
:1014A0000DD111F0400F0AD0536923F0400353616E
:1014B000606B08B10AF0EEFA2046FFF7A7FA0020A9
:1014C00010BD00BF10B504460268D36823F4F07362
:1014D000D3600268536923F00103536103685A69BA
:1014E00012F0800F14D05A6922F080025A61036B07
:1014F00073B100221A65006B0AF0CCFA40B1206B80
:101500000AF012FD202803D11023E363032010BD4D
:1015100023685A6912F0400F14D05A6922F0400231
:101520005A61636B73B100221A65606B0AF0B2FAFC
:1015300040B1606B0AF0F8FC202803D11023E3636C
:10154000032010BD0020E084E085E063202384F8C0
:101550003A3084F8393010BD10B504460268D368BB
:1015600023F0C003D36003685A6912F0800F14D0CF
:101570005A6922F080025A61036B73B100221A6526
:10158000006B0AF087FA40B1206B0AF0CDFC2028EE
:1015900003D11023E363032010BD0020E084202347
:1015A00084F8393010BD00BF10B504460268D36816
:1015B00023F49073D3600268536923F001035361ED
:1015C00003685A6912F0400F14D05A6922F04002A1
:1015D0005A61436B73B100221A65406B0AF05AFAE4
:1015E00040B1606B0AF0A0FC202803D11023E36314
:1015F000032010BD0020E085202384F83A3010BD80
:10160000704700BF08B5836B0268126812F4807FD0
:101610000CD10022DA8419684A6922F080024A61FA
:101620001A68D36843F04003D36008BD1846FFF73B
:10163000E7FF08BD704700BF08B5806BFFF7FAFFF2
:1016400008BD00BF704700BF08B5836B0268126811
:1016500012F4807F13D10022DA851968CA6822F457
:101660008072CA6019684A6922F001024A611968E9
:101670004A6922F040024A61202283F83A20184643
:10168000FFF7E0FF08BD00BF08B590F83A30DBB2C5
:10169000222B43D18368B3F5805F13D1826A03693B
:1016A00043B903685B68C3F308031380836A02339A
:1016B000836218E003685B68DBB21380836A0133DE
:1016C000836210E0036933B9836A5A1C826202683C
:1016D00052681A7007E0826A531C836203685B6871
:1016E00003F07F031370C38D013B9BB2C385BBB96D
:1016F0000268D36823F02003D3600268D36823F420
:101700008073D3600268536923F00103536120237F
:1017100080F83A30FFF796FF002008BD022008BD90
:10172000002008BD704700BF08B5806BFFF7FAFFC7
:1017300008BD00BF704700BF10B5846B22685169B7
:1017400094F83930DBB2212B0BD111F0800F08D087
:101750000023E384D36823F0C003D360202384F8FC
:10176000393023685A6994F83A30DBB2222B07D11A
:1017700012F0400F04D00023E3852046FFF746F91E
:10178000E36B43F01003E3632046FFF7D3FF10BD84
:1017900010B5044602681368D068516913F00F0F42
:1017A00009D113F0200F75D010F0200F72D0204611
:1017B000FFF76AFF10BD11F0010102D110F4907F14
:1017C00068D013F0010F06D010F4807F03D0E26BD5
:1017D00042F00102E26313F0040F0AD0002900F086
:1017E0009D80E26B42F00202E26313F0020F04D12B
:1017F00099E013F0020F08D079B1E26B42F00402D5
:10180000E26313F0080F04D107E013F0080F04D0CF
:1018100019B1E26B42F00802E263E26B002A00F0C9
:10182000878013F0200F05D010F0200F02D0204643
:10183000FFF72AFF23685A69E36B13F0080F02D100
:1018400012F0400F20D02046FFF7E0F823685A69D5
:1018500012F0400F14D05A6922F040025A61636BB3
:1018600053B1344A1A65606B0AF05EF900285FD004
:10187000606B036D984710BD2046FFF75BFF10BDFE
:101880002046FFF757FF10BD2046FFF753FF002308
:10189000E36310BD13F0800F2FD010F0800F2CD019
:1018A00094F83930DBB2212B42D1A368B3F5805FC5
:1018B0000ED1236A1B88C3F30803536023691BB945
:1018C000236A0233236208E0236A0133236204E0BF
:1018D000236A591C21621B785360E38C013B9BB245
:1018E000E3842BBB2268D36823F08003D360226893
:1018F000D36843F04003D36010BD13F0400F17D0FE
:1019000010F0400F14D0D36823F04003D36020239D
:1019100084F839302046FFF773FE10BD13F0020F34
:101920007FF47BAF71E713F0080F7FF472AF74E7B9
:1019300010BD00BF3919000808B5806B0023C385AE
:10194000C384FFF7F7FE08BD704700BF10B504461B
:101950000268D36823F4F073D3600268536923F0FC
:1019600001035361036B3BB10268526912F0800FAF
:1019700014BF274A00221A65636B3BB12268526983
:1019800012F0400F14BF234A00221A6523685A69D7
:1019900012F0800F1FD05A6922F080025A61206B2A
:1019A000C8B10AF0C1F8E0B1236B00221A6512E059
:1019B0000AF0BAF850B3636B00221A650023E3847F
:1019C000E385E363202384F8393084F83A302046F5
:1019D000FFF7BAFF1AE023685A6912F0400F06D1E8
:1019E000ECE723685A6912F0400F0FD007E05A69FC
:1019F00022F040025A61606B0028D9D1DEE75A69B3
:101A000022F040025A61606B0028D1D1002010BD45
:101A1000451A0008191A000808B5806B436B0022AC
:101A20001A65036B0BB11B6D53B90023C384C385C7
:101A3000C363202380F8393080F83A30FFF784FF01
:101A400008BD00BF08B5806B036B00221A65436BAD
:101A50000BB11B6D53B90023C384C385C36320231B
:101A600080F8393080F83A30FFF76EFF08BD00BFCC
:101A7000704700BF10B504460268D36823F0C00366
:101A8000D36003685A6912F0800F17D05A6922F0A8
:101A900080025A61036B4BB10D4A1A65006B0AF064
:101AA00043F890B1206B036D98470EE00023C38488
:101AB000202380F83930FFF7DBFF06E00023C384E2
:101AC000202380F83930FFF7D3FF002010BD00BF7E
:101AD000D51A000808B5806B0023C384202380F842
:101AE0003930FFF7C5FF08BD704700BF10B5044689
:101AF0000268D36823F49073D3600268536923F0BB
:101B00000103536103685A6912F0400F17D05A69F4
:101B100022F040025A61436B4BB10D4A1A65406B8B
:101B20000AF002F890B1606B036D98470EE0002355
:101B3000C385202380F83A30FFF7D6FF06E0002364
:101B4000C385202380F83A30FFF7CEFF002010BD78
:101B5000551B000808B5806B0023C385202380F83F
:101B60003A30FFF7C1FF08BD90F83830012B12D092
:101B7000012380F83830242380F839300268D36894
:101B800043F00103D360202380F83930002380F82C
:101B90003830184670470220704700BF90F8383040
:101BA000012B12D0012380F83830242380F83930FB
:101BB0000268D36843F00203D360202380F83930F1
:101BC000002380F83830184670470220704700BF65
:101BD00090F83830012B12D0012380F838302423BC
:101BE00080F839300268D36823F00203D3602023E1
:101BF00080F83930002380F83830184670470220CA
:101C0000704700BF90F83830012B14D0012380F8C2
:101C10003830242380F839300268D36823F00C036D
:101C200043F00803D360202380F83930002380F884
:101C30003830184670470220704700BF90F838309F
:101C4000012B14D0012380F83830242380F8393058
:101C50000268D36823F00C0343F00403D36020230D
:101C600080F83930002380F8383018467047022059
:101C7000704700BF90F8393090F83A001843704729
:101C8000C06B704782B0154B1B68154AA2FB03233B
:101C90005B0A642202FB03F30193019B23B9436DAA
:101CA00043F04003436507E0019B013B0193036858
:101CB0009B6813F0020FF0D00268136823F0400312
:101CC00013600268536823F0E00353600368DB6825
:101CD000072380F8513002B0704700BF1000002089
:101CE000F11976050268536823F080035360026897
:101CF000136823F040031360072380F851307047C6
:101D0000F8B507460E4615461C4634E0B4F1FF3FD1
:101D100032D00DF039F8069BC01A844200D954BB6A
:101D20003A68536823F0E00353607B68B3F5827F21
:101D30000BD1BB68B3F5004F02D0B3F5806F04D16F
:101D40003A68136823F040031360BB6AB3F5005F81
:101D500009D13A68136823F4005313603A68136892
:101D600043F400531360012387F85130002387F8B0
:101D700050300320F8BD3A68936836EA03030CBF7D
:101D800001230023AB42C1D10020F8BD10B582B0C1
:101D9000044600920B4600228021FFF7B1FF034664
:101DA00020B1636D43F0200363650323184602B03E
:101DB00010BD00BF10B582B004460B464168B1F5B6
:101DC000827F0BD18168B1F5004F02D0B1F5806FF1
:101DD00004D12068016821F04001016000920022D6
:101DE00080212046FFF78CFF034620B1636D43F04E
:101DF000200363650323184602B010BD704700BF7F
:101E0000002841D010B5044690F8513013F0FF0F70
:101E100004D1002380F85030FFF7F0FF022384F84C
:101E200051302268136823F0400313602168626810
:101E3000A3681A43E3681A4323691A4363691A4380
:101E4000E3691A43236A1A43A36A1A43A36903F492
:101E5000007313430B602168638B03F00402636A11
:101E600013434B60A36AB3F5005F02D12368E26AB3
:101E70001A612268D36923F40063D361002060658E
:101E8000012384F8513010BD01207047704700BF16
:101E900090B110B50446022380F8513002681368EF
:101EA00023F040031360FFF7F1FF0020606584F822
:101EB000510084F8500010BD012070472DE9F04119
:101EC00082B090F85040012C00F0DB801D46174690
:101ED00088460446012380F850300CF055FF064632
:101EE00094F85130DBB2012B40F0B780B8F1000F0D
:101EF00000F0B580002F00F0B480032384F8513047
:101F000000236365C4F83080A786E786A363A387B0
:101F1000E38763642364A368B3F5004F04D12268A8
:101F2000136843F480431360A36AB3F5005F09D1DB
:101F30002268136823F4005313602268136843F483
:101F40000053136023681A6812F0400F03D11A6817
:101F500042F040021A60E368B3F5006F2FD1636866
:101F60000BB1012F26D12368226B1288DA60236B14
:101F700002332363E38E013B9BB2E3861AE02368BE
:101F80009A6812F0020F0AD0226B1288DA60236B73
:101F900002332363E38E013B9BB2E3860AE00CF03D
:101FA000F3FE801BA84203D3B5F1FF3F02D05AE0F5
:101FB000002D5AD0E38E9BB2002BE0D12EE0636857
:101FC0000BB1012F26D12368226B12781A73236B71
:101FD00001332363E38E013B9BB2E3861AE023685F
:101FE0009A6812F0020F0AD0226B12781A73236BD0
:101FF00001332363E28E013A92B2E2860AE00CF0EA
:10200000C3FE801B854203D8B5F1FF3F02D02EE00E
:10201000002D2ED0E28E92B2002AE0D1A36AB3F551
:10202000005F04D12268136843F480531360324682
:1020300029462046FFF7AAFE08B120236365A3685E
:1020400033B901932368DA6801929B680193019B7D
:10205000606D003018BF01200CE002200AE0012072
:1020600008E0012006E0032004E0032002E0032052
:1020700000E00320012384F85130002384F850301D
:1020800000E0022002B0BDE8F08100BF2DE9F0437E
:1020900085B00C9E90F85040012C00F062811D46E6
:1020A00091460F460446012380F850300CF06CFE38
:1020B000804694F85130DBB2012B0BD06268B2F548
:1020C000827F40F03581A268002A40F03381042BE2
:1020D00040F03281002F00F03181B9F1000F00F0A3
:1020E0002F81002D00F02E8194F85130DBB2042BAB
:1020F0001CBF052384F8513000236365C4F8389071
:10210000E587A5872763E586A58623646364A36ABC
:10211000B3F5005F09D12268136823F400531360FC
:102120002268136843F40053136023681A6812F09E
:10213000400F03D11A6842F040021A60E368B3F519
:10214000006F5DD163680BB1012D0AD12368226B4A
:102150001288DA60236B02332363E38E013B9BB268
:10216000E38601254FF000092F4640E023689A6876
:1021700012F0020F1ED0E28E92B2DAB1D5B1226B0C
:102180001288DA60236B02332363E38E013B9BB238
:10219000E386E38E9BB253B9A36AB3F5005F08D11F
:1021A0002268136843F4805313604D4602E04D46A5
:1021B00000E04D4623689A6812F0010F0DD0E28FBF
:1021C00092B252B1A26BDB681380A36B0233A3639C
:1021D000E38F013B9BB2E3873D460CF0D5FDC8EB96
:1021E0000000B04203D3B6F1FF3F40F0AD80E38E74
:1021F0009BB2002BBAD1E38F9BB2002BB6D15FE02C
:1022000063680BB1012D4FD12368226B12781A73CA
:10221000236B01332363E38E013B9BB2E38643E0F0
:1022200023689A6812F0020F1FD0E28E92B2E2B1D8
:10223000012D1AD1226B12781A73236B0133236399
:10224000E38E013B9BB2E386E38E9BB253B9A36A54
:10225000B3F5005F08D12268136843F4805313601C
:102260004D4602E04D4600E04D4623689A6812F064
:10227000010F0DD0E28F92B252B1A26BDB681370E6
:10228000A36B0133A363E38F013B9BB2E3873D461E
:102290000CF07AFDC8EB0000864203D8B6F1FF3F90
:1022A00006D053E026B953E001254FF000092F4630
:1022B000E38E9BB2002BB3D1E38F9BB2002BAFD147
:1022C000A36AB3F5005F10D1CDF800803346012238
:1022D00011462046FFF714FD28B1636D43F0020359
:1022E0006365032535E02368DB6823689A6812F08C
:1022F000100F08D0626D42F0020262654FF6EF7275
:102300009A60012500E00025424631462046FFF74D
:102310003DFD18B12023636501251AE0A368C3B908
:1023200003932368DA6803929B680393039B10E08E
:1023300002250EE002250CE002250AE0012508E056
:10234000012506E0012504E0032502E0032500E065
:102350000325012384F85130002384F850302846A7
:1023600000E0022005B0BDE8F08300BF2DE9F04198
:1023700082B004460F4690461D464368B3F5827FFF
:102380000AD1836843B9042380F85130009513467D
:102390000A46FFF77BFEE8E094F85030012B00F08E
:1023A000E380012384F850300CF0EEFC064694F8EC
:1023B0005130DBB2012B40F0C180002F00F0C08013
:1023C000B8F1000F00F0BE80042384F851300023E0
:1023D0006365A763A4F83C80A4F83E802363A386CA
:1023E000E38623646364A36AB3F5005F0DD12268BA
:1023F000136823F4005313602268136843F40053F6
:102400001360E38F013B9BB2E387A368B3F5004FF2
:1024100004D12268136823F48043136023681A6888
:1024200012F0400F03D11A6842F040021A60E368CC
:10243000DBB13AE023689A6812F0010F0AD0A26B70
:102440001B7B1370A36B0133A363E38F013B9BB230
:10245000E3870AE00CF098FC801B854203D8B5F1B5
:10246000FF3F02D070E0002D70D0E38F9BB2002BB5
:10247000E0D11EE023689A6812F0010F0AD0A26B27
:10248000DB681380A36B0233A363E38F013B9BB232
:10249000E3870AE00CF078FC801B854203D8B5F195
:1024A000FF3F02D054E0002D54D0E38F9BB2002BAD
:1024B000E0D1A36AB3F5005F27D12268136843F423
:1024C0008053136000962B46012211462046FFF7E9
:1024D00017FC002840D1E368B3F5006FA36B2268B6
:1024E00007BFD2681A80127B1A7000962B46012211
:1024F00011462046FFF704FC28B1636D43F0020348
:102500006365032029E02368DB68324629462046BC
:10251000FFF750FC08B12023636523689A6812F026
:10252000100F06D0626D42F0020262654FF6EF7244
:102530009A60606D003018BF01200EE002200CE0B0
:1025400001200AE0012008E0032006E0032004E067
:10255000032002E0032000E00320012384F851302F
:10256000002384F8503000E0022002B0BDE8F08182
:1025700090F85030012B51D0012380F850300029C1
:1025800040D0002A40D090F85130DBB2012B3DD131
:10259000032380F851300023436501638286C2869D
:1025A00083638387C3870364C36813B11C4B43648D
:1025B00001E01C4B43648368B3F5004F04D102680B
:1025C000136843F480431360836AB3F5005F09D155
:1025D0000268136823F4005313600268136843F41D
:1025E000005313600268536843F0A003536003680C
:1025F0001A6812F0400F0BD11A6842F040021A60BC
:10260000002306E0012304E0012302E0022300E0AE
:102610000023002280F8502018467047022070479F
:10262000392E0008012E000830B490F85040012CDB
:1026300061D0012480F8504090F85140E4B2012C60
:1026400008D04568B5F5827F43D18568002D42D119
:10265000042C42D1002942D0002A42D0002B42D083
:1026600090F85140E4B2042C1CBF052480F851407E
:102670000024446501638386C38682638387C3879E
:10268000C36823B11D4B03641D4B436403E01D4B22
:1026900003641D4B4364836AB3F5005F09D102688C
:1026A000136823F4005313600268136843F4005363
:1026B00013600268536843F0E003536003681A68CC
:1026C00012F0400F11D11A6842F040021A60002344
:1026D0000CE002230AE0022308E0022306E00123C3
:1026E00004E0012302E0012300E00023002280F83F
:1026F0005020184600E0022030BC7047A13100088D
:102700004D310008E93000089530000838B585687B
:102710005DB94368B3F5827F07D11346042280F880
:1027200051200A46FFF780FF38BD90F85040012C39
:1027300050D0012380F8503090F85140E4B29C42D0
:102740003CD100293CD0002A3CD0042380F85130F1
:102750000023436581638287C28703638386C386C0
:102760004364C36813B11C4B036401E01B4B036457
:10277000B5F5004F04D10268136823F48043136059
:10278000836AB3F5005F09D10268136823F400532C
:1027900013600268136843F40053136002685368BF
:1027A00043F06003536003681A6812F0400F0BD1C6
:1027B0001A6842F040021A60002306E0022304E097
:1027C000012302E0012300E00023002280F85020D2
:1027D000184638BD022038BD512F0008E92E0008E8
:1027E00090F85030012B6CD010B50446012380F8CE
:1027F000503090F85130DBB2012B59D1002959D01B
:10280000002A59D0032380F8513000234365016327
:102810008286C2868363436403648387C387836835
:10282000B3F5004F04D10268136843F4804313608A
:10283000A36AB3F5005F09D12268136823F400533B
:1028400013602268136843F400531360A36C1E4A9C
:102850001A64A36C1D4ADA63A36C1D4ADA64A36C84
:1028600000221A65E38E22689BB20C32216BA06CA9
:1028700009F0C6F838B1636D43F0100363650120B9
:1028800084F8510019E023681A6812F0400F03D150
:102890001A6842F040021A602268536843F020032D
:1028A00053602268536843F002035360002004E041
:1028B000022002E0012000E00120002384F85030D3
:1028C00010BD0220704700BF412D000821320008D2
:1028D000FD31000838B590F85040012C00F0AA8076
:1028E0000446012084F8500094F85100C0B2012839
:1028F0000BD06568B5F5827F40F08D80A568002D0E
:1029000040F08B80042840F08A80002900F0898004
:10291000002A00F08880002B00F0878094F8510096
:10292000C0B204281CBF052084F851000020606557
:102930002163A386E386A263A387E38720646064A0
:10294000A36AB3F5005F09D12268136823F400532A
:1029500013602268136843F40053136094F85130F5
:10296000DBB2042B06D1E36C334A1A64E36C334ABE
:10297000DA6305E0E36C324A1A64E36C314ADA63E5
:10298000E36C314ADA64E36C00221A65E38F216854
:102990009BB2A26B0C31E06C09F032F838B1636D78
:1029A00043F010036365012084F851003EE0226883
:1029B000536843F001035360A26C00231364A26CBC
:1029C000D363A26CD364A26C1365E38E22689BB2BE
:1029D0000C32216BA06C09F013F838B1636D43F031
:1029E00010036365012084F851001FE023681A6812
:1029F00012F0400F03D11A6842F040021A602268B8
:102A0000536843F0200353602268536843F0020385
:102A1000536000200AE0022008E0022006E00220C5
:102A200004E0012002E0012000E00120002384F8FE
:102A3000503038BD022038BD512D000891320008B9
:102A4000612D000829330008FD31000838B504461F
:102A500085685DB94368B3F5827F07D1042380F8A8
:102A6000513013460A46FFF735FF38BD94F8500041
:102A7000012868D0012384F8503094F85100C0B286
:102A8000984257D1002957D0002A57D0042384F800
:102A9000513000236365A163A287E28723646364E6
:102AA000A386E386B5F5004F04D12268136823F4AA
:102AB00080431360A36AB3F5005F09D122681368ED
:102AC00023F4005313602268136843F40053136027
:102AD000E36C1E4A1A64E36C1D4ADA63E36C1D4A18
:102AE000DA64E36C00221A65E38F21689BB2A26B63
:102AF0000C31E06C08F084FF38B1636D43F01003D3
:102B00006365012084F8510019E023681A6812F007
:102B1000400F03D11A6842F040021A6022685368DD
:102B200043F0200353602268536843F0010353606D
:102B3000002004E0022002E0012000E00120002348
:102B400084F8503038BD022038BD00BF512D000838
:102B500091320008FD31000810B584B004464A4B9C
:102B60001B684A4AA2FB03235B0A642202FB03F3AD
:102B70000293029B03930268536823F0200353607F
:102B80000268536813F0800F12D0414B4364039BDB
:102B900023B9636D43F04003636507E0039B013B8A
:102BA000039394F85130DBB2072BF0D1029B0393CF
:102BB000536813F0400F12D0364B2364039B23B9A4
:102BC000636D43F04003636507E0039B013B0393A0
:102BD00094F85130DBB2072BF0D1029B039353687A
:102BE00013F0020F1DD0A36CDBB100221A65A06C9C
:102BF00008F050FF08B1402363652268536823F052
:102C000002035360039B23B9636D43F04003636584
:102C100007E0039B013B039323689B6813F0020FBB
:102C2000F0D023685B6813F0010F13D0E36C8BB115
:102C300000221A65E06C08F02DFF08B1402363659F
:102C40002268136823F0400313602268536823F05E
:102C5000010353600023E387E386636D402B1ABFB3
:102C6000002060650120002200922368D96800914D
:102C700099680091009901929B680193019B01233F
:102C800084F8513004B010BD10000020F119760511
:102C9000E51C0008851C000890F85030012B0CD072
:102CA000012380F850300268536823F00303536017
:102CB000002380F85030184670470220704700BF4C
:102CC00090F85030012B0CD0012380F8503002686E
:102CD000536843F003035360002380F850301846D4
:102CE00070470220704700BF38B50446806C40B181
:102CF00008F0D0FE38B1636D43F010036365012521
:102D000002E0002500E00025E06C38B108F0C2FECA
:102D100020B1636D43F01003636501252268536899
:102D200023F003035360012384F85130284638BD53
:102D3000704700BF704700BF704700BF704700BFBB
:102D400008B5806BFFF7FAFF08BD00BF704700BFF2
:102D500008B5806BFFF7FAFF08BD00BF704700BFE2
:102D600008B5806BFFF7FAFF08BD00BF704700BFD2
:102D700010B582B00446204B1B68204AA2FB0323F7
:102D80005B0A642202FB03F301930BF0FDFF024692
:102D9000019B23B9636D43F02003636507E0019B4A
:102DA000013B019323689B6813F0020FF0D0216868
:102DB0004B6823F0A0034B6064212046FEF7E6FF3A
:102DC00018B1636D43F020036365A36833B90093C2
:102DD0002368DA6800929B680093009B012384F8C3
:102DE0005130636D1BB12046FFF7C0FF02E0204663
:102DF000FFF79EFF02B010BD10000020F11976050C
:102E000008B50368026B12781A73036B013303630E
:102E1000C38E013B9BB2C386C38E9BB253B9836AF8
:102E2000B3F5005F04D10268136843F48053136064
:102E3000FFF79EFF08BD00BF08B50368026B12884C
:102E4000DA60036B02330363C38E013B9BB2C3861C
:102E5000C38E9BB253B9836AB3F5005F04D1026895
:102E6000136843F480531360FFF782FF08BD00BF6F
:102E700010B582B004460268536823F060035360C3
:102E80000BF082FF024664212046FEF793FF18B143
:102E9000636D43F020036365A36833B9019323682E
:102EA000DA6801929B680193019B012384F85130F9
:102EB00023689A6812F0100F0AD0626D42F0020285
:102EC00062654FF6EF729A602046FFF74FFF08E009
:102ED000636D1BB92046FFF72DFF02E02046FFF788
:102EE00045FF02B010BD00BF08B5836B0268127BBE
:102EF0001A70836B01338363C38F013B9BB2C3871B
:102F0000C38F9BB2012B08D1836AB3F5005F11D147
:102F10000268136843F480531360C38F9BB26BB98C
:102F2000836AB3F5005F02D1054B036408BDFFF768
:102F30009FFF08BDC38F9BB2002BF8D008BD00BF18
:102F4000452F000808B503681B7BFFF791FF08BDFC
:102F500008B5836B0268D2681A80836B023383637F
:102F6000C38F013B9BB2C387C38F9BB2012B08D198
:102F7000836AB3F5005F11D10268136843F480538C
:102F80001360C38F9BB26BB9836AB3F5005F02D144
:102F9000054B036408BDFFF76BFF08BDC38F9BB2F1
:102FA000002BF8D008BD00BFAD2F000808B503689E
:102FB000DA685A6822F060025A60FFF759FF08BDCC
:102FC00010B582B00446314B1B68314AA2FB032383
:102FD0005B0A642202FB03F301930BF0D5FE024669
:102FE00021684B6823F020034B60019B23B9636D7C
:102FF00043F02003636507E0019B013B01932368D5
:103000009B6813F0020FF0D064212046FEF7BEFE4D
:1030100018B1636D43F020036365A36833B900936F
:103020002368DA6800929B680093009B23689A6883
:1030300012F0100F0DD0012284F85120626D42F081
:10304000020262654FF6EF729A602046FFF78EFE2D
:103050001AE0636D93B994F85130DBB2042B06D1BA
:10306000012384F851302046FFF764FE0CE0012371
:1030700084F851302046FFF75FFE05E0012384F815
:1030800051302046FFF772FE02B010BD1000002044
:10309000F119760508B50368026B12781A73036B91
:1030A00001330363C38E013B9BB2C386C38E9BB2C5
:1030B000C3B9836AB3F5005F0AD10268136843F4A9
:1030C000805313600268536823F08003536008BD87
:1030D0000268536823F080035360C38F9BB20BB91F
:1030E000FFF76EFF08BD00BF08B5836B0268127B57
:1030F0001A70836B01338363C38F013B9BB2C38719
:10310000C38F9BB283B9836AB3F5005F02D1074BCB
:10311000036408BD0268536823F060035360C38EE4
:103120009BB20BB9FFF74CFF08BD00BF313100085F
:1031300008B503681A7B5A6822F060025A60C38E91
:103140009BB20BB9FFF73CFF08BD00BF08B5036891
:10315000026B1288DA60036B02330363C38E013B98
:103160009BB2C386C38E9BB2C3B9836AB3F5005FBB
:103170000AD10268136843F48053136002685368ED
:1031800023F08003536008BD0268536823F0800376
:103190005360C38F9BB20BB9FFF712FF08BD00BF8E
:1031A00008B5836B0268D2681A80836B023383632D
:1031B000C38F013B9BB2C387C38F9BB283B9836A22
:1031C000B3F5005F02D1074B036408BD0268536882
:1031D00023F040035360C38E9BB20BB9FFF7F0FEA0
:1031E00008BD00BFE931000808B50368DA685A680D
:1031F00022F040025A60FFF7E3FE08BD08B5806B7D
:103200000268536823F003035360436D43F01003D7
:103210004365012380F85130FFF7A8FD08BD00BFCA
:1032200030B583B00546846B0BF0AEFD2B681B6890
:1032300013F4807F27D12268536823F02003536062
:103240002268536823F0020353600246642120463B
:10325000FEF79CFD18B1636D43F020036365A3681E
:1032600033B901932368DA6801929B680193019B4B
:103270000023E386012384F85130636D1BB120469F
:10328000FFF774FD02E02046FFF752FD03B030BDAA
:1032900070B582B00546846B0BF076FD2B681B6819
:1032A00013F4807F3BD106462268536823F0200345
:1032B0005360A36AB3F5005F0DD10090642301222F
:1032C00011462046FEF71CFD18B1636D43F0020362
:1032D00063652368DB682268536823F00303536047
:1032E000324664212046FEF765FD08B12023636560
:1032F0000023E387012384F8513023689A6812F091
:10330000100F06D0626D42F0020262654FF6EF7256
:103310009A60636D1BB12046FFF728FD02E020464E
:10332000FFF708FD02B070BD70B582B00546846B32
:103330000BF02AFD2B681B6813F4807F3ED10646F4
:103340002268536823F020035360A36AB3F5005F3B
:103350000DD100906423012211462046FEF7D0FCD7
:1033600018B1636D43F0020363652368DB6832467E
:1033700064212046FEF70AFD18B1636D43F0200377
:1033800063652268536823F0030353600023E386D8
:10339000E387012384F8513023689A6812F0100FF4
:1033A00006D0626D42F0020262654FF6EF729A60DB
:1033B000636D1BB12046FFF7D9FC02E02046FFF702
:1033C000BBFC02B070BD00BF10B584B004460268FB
:1033D0005168936803F04100012806D111F0400FB5
:1033E00003D0236C2046984776E013F0020F06D0F6
:1033F00011F0800F03D0636C204698476CE013F403
:10340000B07F69D011F0200F66D013F0400F18D0B4
:1034100094F85100C0B203280BD0606D40F0040056
:10342000606500200090D06800909068009000983F
:1034300007E000230193D368019393680193019BF4
:103440004AE013F0200F0CD0606D40F00100606581
:103450000020029090680290106820F040001060F8
:10346000029A13F4807F09D0636D43F0080363650B
:103470000023039323689B680393039B636D5BB3F3
:103480002268536823F0E0035360012384F851302D
:1034900011F0030F1DD02268536823F0030353601B
:1034A000E36C4BB10D4A1A65E06C08F03DFB18B1B6
:1034B000636D43F040036365A36C6BB1074A1A6503
:1034C000A06C08F031FB38B1636D43F040036365D5
:1034D00002E02046FFF74AFC04B010BDE1340008CA
:1034E00008B5806B0023C387C386FFF73FFC08BD88
:1034F000704700BF30B585B00446544B1B68544A32
:10350000A2FB03235B0A642202FB03F30293029BE8
:1035100003930268536823F02003536002685368E2
:1035200013F0800F12D04B4B4364039B23B9636DA0
:1035300043F04003636507E0039B013B039394F86A
:103540005130DBB2072BF0D1029B0393536813F089
:10355000400F12D0404B2364039B23B9636D43F0AB
:103560004003636507E0039B013B039394F85130EC
:10357000DBB2072BF0D1029B0393A36C33B15268EB
:1035800012F0020F14BF354A00221A65E36C3BB1FA
:103590002268526812F0010F14BF314A00221A65E6
:1035A00023685B6813F0020F36D0A06C002833D07C
:1035B00008F0BAFA002835D0A36C00221A6540231F
:1035C000636529E0002508F0AFFA08B3E36C002238
:1035D0001A6540236365EDB10023E387E386636DDD
:1035E000402B1ABF00256565012500220092236843
:1035F000D968009199680091009901929B680193A4
:10360000019B012384F851302046FFF771FF19E038
:10361000002517E0002515E023685B6813F0010F13
:1036200007D1D9E723685B6813F0010F06D10025A5
:1036300008E0E06C01250028C5D1CDE7E06C00284A
:10364000C0D10025284605B030BD00BF10000020C5
:10365000F1197605E51C0008851C0008DD36000818
:103660006536000810B582B0846B2268136823F0B9
:1036700040031360E36C00221A652268536823F04C
:10368000010353600BF080FB024664212046FEF7E5
:103690007DFB18B1636D43F040036365A36C0BB110
:1036A0001B6DCBB90023E387E386636D402B1CBF02
:1036B00000236365002200922368D968009199680D
:1036C0000091009901929B680193019B012384F86A
:1036D00051302046FFF70CFF02B010BD00B585B099
:1036E000806B836C00221A651E4B1B681E4AA2FB6E
:1036F00003235B0A642202FB03F30393026853680B
:1037000023F002035360039B23B9436D43F040034E
:10371000436507E0039B013B039303689B6813F039
:10372000020FF0D0C36C0BB11B6DC3B90023C3876C
:10373000C386436D402B1CBF0023436500220192CA
:103740000368D968019199680191019902929B6877
:103750000293029B012380F85130FFF7C9FE05B0A8
:103760005DF804FB10000020F119760590F8510077
:10377000704700BF406D704770B40D6850F8252049
:10378000184B13408E684A6846EA0204CA6814431C
:103790000A6914434A6914438A691443CA69144381
:1037A0000A6A14434A6A14438A6A1443CA6A14436D
:1037B000CA6B14430A6B14434A6B22431343082E0B
:1037C00008BF43F0400340F825304B6BB3F5801F32
:1037D00005D10B681BB1036843F48013036000201C
:1037E00070BC70478000E0FF10B400EB820450F81A
:1037F000223023F0010340F822301AB943F2DB03F0
:10380000036003E043F2D20340F822306FF07043CC
:10381000636041F82230002010BC704770B400EBA8
:103820008202536803F040460C688B6923434C685E
:1038300043EA04148D6844EA0524CD6844EA05454A
:103840000B69013B45EA03544B69023B44EA0363BD
:1038500033435360036813F4801F07D0436823F495
:1038600070020B69013B42EA03534360002070BCC5
:10387000704700BFB3F5804F14D130B450F82230F8
:103880000D4D1D400C688B6923434C6843EA0413BB
:103890008C6843EA0424CB6844EA03432B4340F892
:1038A000223005E06FF0704340F82230002070476E
:1038B000002030BC704700BF0000F0CF50F821302E
:1038C00043F4805340F821300020704750F82130F5
:1038D00023F4805340F821300020704730B40D6845
:1038E000102D0CBF0368036A0C4C1C404B688A689F
:1038F0001A4342F00802CB681A430B6913434A6922
:1039000043EA42228B6942EA43332343102D0CBF22
:1039100003600362002030BC704700BF8101F0FFEC
:10392000102A0CD183684B688A68120442EA032289
:103930000B681343CA6843EA026383600BE0836A3F
:103940004B688A68120442EA03220B681343CA6870
:1039500043EA026383620020704700BF102A0CD143
:10396000C3684B688A68120442EA03220B68134357
:10397000CA6843EA0263C3600BE0C36A4B688A68A3
:10398000120442EA03220B681343CA6843EA026343
:10399000C3620020704700BF10290CD1036823F0D8
:1039A0000403036018230360402343604FF0FC339B
:1039B0008360C3600BE0036A23F0040303621823EF
:1039C0000362402343624FF0FC338362C3620020F2
:1039D000704700BF102904D1036843F0400303601F
:1039E00003E0036A43F0400303620020704700BF16
:1039F000102904D1036823F04003036003E0036A45
:103A000023F0400303620020704700BF2DE9F0411E
:103A100004460F4615461E460BF0B6F9804609E0EF
:103A2000B6F1FF3F06D0BEB10BF0AEF9C8EB000017
:103A3000864214D3102D0CBF6368636A83F0400381
:103A4000C3F38013002BEBD1102D0CBF6369636BA4
:103A50003B600020BDE8F0810320BDE8F081032039
:103A6000BDE8F08110B402680B6843F0100422F442
:103A7000FF3323F03A0323434A6843EA42238A6828
:103A800043EA42330360002010BC704783684B68F0
:103A90008A68120442EA03220B681343CA6843EAA5
:103AA0000263836000207047C3684B688A68120411
:103AB00042EA03220B681343CA6843EA0263C36005
:103AC0000020704703694B688A68120442EA0322A7
:103AD0000B681343CA6843EA02630361002070471E
:103AE0000346026822F004020260182202600020ED
:103AF00058604FF0FC329A60DA601A61704700BF7C
:103B000030B40B68012B18D0036823F4FF4323F073
:103B10007F034C688A681443CA6814430A691443D3
:103B20004A6914438A691443CA6914430A6A1443EC
:103B30004A6A2243134303601BE0026822F4F843FD
:103B4000CC690A6A14434A6A22431A43436823F43D
:103B5000FF4323F07F034D688C682543CC682543E1
:103B60000C6925434C692C43896921430B4302604E
:103B70004360002030BC7047F0B4012A1FD0876832
:103B80000B685A1E07F070431A434E68013E42EA22
:103B900006138D68013D43EA0526CC68013C46EAE0
:103BA00004350A69013A45EA02444B69013B44EA9B
:103BB00003528B69013B42EA0363836026E0846819
:103BC00024F4700424F47044CB685D1E4B69013BFF
:103BD0001A0542EA053343EA0407C3680D68013D4C
:103BE00003F0704345EA03064C68013C46EA0415BD
:103BF0008A68013A45EA02240B69013B44EA034220
:103C00008B69013B42EA03638760C3600020F0BC1C
:103C1000704700BF034600EB81024FF4347043F855
:103C200021006FF070419160002018615861986127
:103C3000704700BF50F8213043F4007340F8213042
:103C40000020704750F8213023F4007340F82130F1
:103C50000020704770B582B00446154600230193DA
:103C60000A684B681343CA6843EA42238A68013AE8
:103C700043EA42130193019B03610BF085F806466A
:103C800008E0B5F1FF3F05D055B10BF07DF8801B82
:103C9000854207D3A36913F0200FF2D1002002E080
:103CA000032000E0032002B070BD00BF436943EA77
:103CB0004101416100207047036943EA41110161FC
:103CC0000020704719B9806900F0060070478069CC
:103CD000800800F006007047074AD36823F4E063C9
:103CE0001B041B0C43F0BF6343F40033000200F4D9
:103CF000E0600343D360704700ED00E030B4164B42
:103D0000DB68C3F30223C3F10704042C28BF042497
:103D10001D1D062D8CBF033B0023012505FA04F46D
:103D2000013C0C409C4005FA03F3013B1A4022433E
:103D3000002808DB1201D2B200F1604000F56140BA
:103D400080F8002305E000F00F001201D2B2034B0F
:103D50001A5430BC704700BF00ED00E014ED00E0E5
:103D6000002808DB420900F01F00012303FA00F0DD
:103D7000014B43F82200704700E100E000280DDB12
:103D8000430900F01F00012202FA00F02033044A28
:103D900042F82300BFF34F8FBFF36F8F704700BF10
:103DA00000E100E0BFF34F8F0549CA6802F4E0620A
:103DB000044B1343CB60BFF34F8F00BFFDE700BF41
:103DC00000ED00E00400FA050138B0F1807F0AD26E
:103DD000064B5860F021064A82F8231000209860B4
:103DE00007221A6070470120704700BF10E000E012
:103DF00000ED00E0BFF35F8F044A536A23F4803381
:103E000053620022024B5A60704700BF00ED00E091
:103E100090ED00E040F00100054B5860054A536A00
:103E200043F480335362BFF34F8FBFF36F8F7047FC
:103E300090ED00E000ED00E04278154B9A600378C9
:103E4000F3B110B443681249CB60047BC27A130605
:103E500043EA047203781343827A43EAC243427B03
:103E600043EA8243827B43EA4243C27B43EA024302
:103E7000427A43EA0223027A43EA42030B6104E0F6
:103E8000034B0022DA601A61704710BC704700BF14
:103E900090ED00E0024BD868C0F30220704700BFED
:103EA00000ED00E070B4002807DB00F1604000F591
:103EB000614090F80043240904E000F00F000F4C2B
:103EC000245C240901F00701C1F10700042828BF80
:103ED00004200D1D062D8CBF03390021012505FA94
:103EE00000F0013824FA01F63040106005FA01F1C3
:103EF00001392140196070BC704700BF14ED00E02B
:103F0000002809DB430900F01F00012202FA00F03B
:103F10004033024A42F82300704700BF00E100E04E
:103F200000280BDB43094033054A52F8233000F0E8
:103F30001F0023FA00F000F00100704700207047D6
:103F400000E100E0002809DB430900F01F00012226
:103F500002FA00F06033024A42F82300704700BFC3
:103F600000E100E000280BDB43098033054A52F8EA
:103F7000233000F01F0023FA00F000F0010070472A
:103F80000020704700E100E00428044A13680CBFD9
:103F900043F0040323F004031360704710E000E0D3
:103FA000704700BF08B5FFF7FBFF08BD03685A69FB
:103FB00012F4806F11D06FF480625A6100230363A2
:103FC000202280F83D2080F83E30026C42F004024E
:103FD000026480F83C30012070470020704700BF29
:103FE0002DE9F04106460C4690461D46C1F30747B1
:103FF00019E0B5F1FF3F16D00AF0C6FE069BC01AC5
:10400000854200D37DB900233363202286F83D200A
:1040100086F83E30326C42F02002326486F83C3042
:104020000120BDE8F081012F33680CBF5B699B69FB
:10403000DB439BB223420CBF012300234345D8D06E
:104040000020BDE8F08100BF2DE9F04104460D4697
:1040500017469846C1F3074636E023685A6912F4BA
:10406000806F17D01A6842F400721A6023686FF4E8
:1040700080625A6100232363202284F83D2084F863
:104080003E30226C42F00402226484F83C3001206D
:10409000BDE8F081B7F1FF3F16D00AF075FEC8EB1E
:1040A0000000874200D37FB900232363202284F8D5
:1040B0003D2084F83E30226C42F02002226484F8D5
:1040C0003C300120BDE8F081012E23680CBF5B6904
:1040D0009B69DB439BB22B4214BF01230023002BBF
:1040E000BBD10020BDE8F08170B504460D461646F0
:1040F0001BE02046FFF75AFFF0B9B5F1FF3F14D09F
:104100000AF042FE801B854200D375B90023236369
:10411000202284F83D2084F83E30226C42F02002B8
:10412000226484F83C30012070BD23685B6913F081
:10413000800FDED0002070BD012070BD2DE9F04160
:1041400084B004460E46174698460B9D02681368D5
:1041500043F48073136000950A9B00224FF0011115
:10416000FFF73EFF002843D1236806F0FE061E61DC
:104170002B460A9A24492046FFF766FF002839D1CA
:104180000023039323685A6903929B690393039B5B
:104190002A460A992046FFF7A7FF034648B1236C39
:1041A000042B29D12268136843F4007313600123A0
:1041B00025E0B8F1010F03D12268FFB217611EE0BC
:1041C00023683A0A1A612A460A992046FFF78CFFAB
:1041D000034648B1236C042B10D12268136843F4C2
:1041E0000073136001230AE02268FFB2176106E042
:1041F000012304E0012302E0012300E0012318462B
:1042000004B0BDE8F08100BF020001002DE9F041DB
:1042100084B004460E46174698460B9D0268136804
:1042200043F4806313600268136843F4807313607F
:1042300000950A9B00224FF00111FFF7D1FE0028E4
:104240006DD12368F6B206F0FE021A612B460A9A77
:104250003A492046FFF7F8FE002862D10023039375
:1042600023685A6903929B690393039B2A460A9920
:104270002046FFF739FF48B1236C042B53D1226845
:10428000136843F400731360012053E0B8F1010F89
:1042900003D12368FFB21F6115E023683A0A1A614F
:1042A0002A460A992046FFF71FFF48B1236C042BCA
:1042B0003BD12268136843F400731360012039E096
:1042C0002368FFB21F612A460A992046FFF70CFFB8
:1042D00048B1236C042B2AD12268136843F400737D
:1042E0001360012026E02268136843F48073136092
:1042F00000950A9B00224FF001112046FFF770FE47
:10430000B8B9236846F001061E612B460A9A0B498C
:104310002046FFF799FE003018BF01200AE0012077
:1043200008E0012006E0012004E0012002E0012075
:1043300000E0012004B0BDE8F08100BF02000100F0
:1043400070B504460D4616461BE02046FFF72EFECC
:10435000F0B9B5F1FF3F14D00AF016FD801B85427D
:1043600000D375B900232363202284F83D2084F80C
:104370003E30226C42F02002226484F83C3001205E
:1043800070BD23685B6913F0040FDED0002070BDA0
:10439000012070BD70B505460C46164628E05A69E6
:1043A00012F0100F0FD06FF010025A6100232B6330
:1043B000202285F83D2085F83E302A6C2A6485F855
:1043C0003C30012070BD0AF0DFFC801BA04200D809
:1043D00074B900232B63202285F83D2085F83E30F8
:1043E0002A6C42F020022A6485F83C30012070BD1E
:1043F0002B685A6912F0400FD1D0002070BD00BF69
:10440000704700BF002800F0A58070B5044690F802
:104410003D3013F0FF0F04D1002380F83C30FFF74C
:10442000EFFF242384F83D302268136823F0010352
:10443000136009F073FD6268484B9A4294BF484B81
:10444000484B98428CBF00230123002B40F084800E
:10445000454BA3FB00239B0C21684A6822F03F02D6
:104460001A434A6025682A6A22F03F0266683B497F
:104470008E4201D8013308E04FF4967101FB03F33B
:104480003A49A1FB03139B09013313432B622568AF
:10449000E96921F44F4121F0FF0166682F4B9E42EC
:1044A0000AD8431E7000B3FBF0F00130C0F30B00DC
:1044B000042838BF042020E0A3684BB9421E06EB55
:1044C0004603B2FBF3F30133C3F30B0393B10BE0E9
:1044D000421E06EB860303EB8303B2FBF3F30133C7
:1044E000C3F30B0343B102E043F4004005E043F49F
:1044F000404002E0012000E001200843E86121681B
:104500000B68E069226A024323F0C00313430B6087
:10451000206882682169E368194322F4034323F089
:10452000FF030B4383602168CB686069A269024383
:1045300023F0FF031343CB602268136843F00103A9
:10454000136000202064202384F83D30206384F829
:104550003E0070BD01207047012070BDA0860100A3
:104560007F841E00FF083D0083DE1B43D34D621095
:10457000704700BFA8B110B50446242380F83D3031
:104580000268136823F001031360FFF7F1FF0020B6
:10459000206484F83D00206384F83E0084F83C00E9
:1045A00010BD0120704700BF2DE9F04184B00446E2
:1045B0000D4690461F460AF0E7FB94F83D30DBB20B
:1045C000202B18BF022540F0DD80064600901923FD
:1045D00001226E492046FFF703FD002840F0C78006
:1045E00094F83C30012B00F0C480012384F83C3067
:1045F00023681A6812F0010F03D11A6842F0010211
:104600001A602268136823F400631360212384F87E
:104610003D30102384F83E3000232364C4F8248006
:104620006785638D23855A4BE362E36A082B04D0C8
:10463000012B02D013F5803F05D12268136843F4A3
:104640008073136007E0236B122B04D12268136878
:1046500043F48073136000960A9B00224FF001110F
:104660002046FFF7BDFC002840F08B802369B3F59E
:10467000804F04D1236805F0FE051D6111E022681A
:10468000EB1103F0060343F0F003136133460A9A7B
:1046900040492046FFF7D8FC002872D12368EDB2CC
:1046A0001D6133460A9A3C492046FFF7CDFC051CA4
:1046B00018BF0125002D5ED10023039323685A699A
:1046C00003929B690393039B40E032460A9920467C
:1046D000FFF70AFD48B1236C042B4ED12268136802
:1046E00043F40073136001254CE02368626A12787A
:1046F0001A61616A4B1C6362638D013B9BB26385E7
:10470000238D013B9BB223852268506910F0040F72
:104710000CD05BB14B781361636A01336362638DC4
:10472000013B9BB26385238D013B238532460A9969
:104730002046FFF705FE48B1236C042B1FD12268E9
:10474000136843F40073136001251BE0238D002BD5
:10475000BBD12268136843F400731360202384F8EC
:104760003D30002384F83E3084F83C300AE00225D6
:1047700008E0022506E0012504E0012502E001250C
:1047800000E00125284604B0BDE8F08102001000D9
:104790000000FFFF08000100020001002DE9F041C8
:1047A00088B004460D4690461F460AF0EDFA94F88C
:1047B0003D30DBB2202B18BF022540F0C7810646F2
:1047C00000901923012297492046FFF709FC002891
:1047D00040F0AB8194F83C30012B00F0A88101231C
:1047E00084F83C3023681A6812F0010F03D11A686C
:1047F00042F001021A602268136823F40063136018
:10480000222384F83D30102384F83E3000232364B3
:10481000C4F824806785638D2385834BE362E26A55
:1048200021680B6843F480630B60082A04D0012AD6
:1048300002D012F5803F05D12268136843F48073DB
:10484000136007E0236B112B04D12268136843F433
:104850008073136000960E9B00224FF001112046DA
:10486000FFF7BEFB002840F070812369B3F5804F4D
:1048700005D1226845F00103DBB2136135E02368FE
:10488000EF1107F0060747F0F0021A6133460E9A5F
:1048900066492046FFF7D8FB002840F05681236880
:1048A000EDB21D6133460E9A61492046FFF7CCFBFD
:1048B000002840F04A810022079223685969079135
:1048C000996907910799196841F4807119600096F8
:1048D0000E9B4FF001112046FFF782FB002840F0AD
:1048E0003481236847F0F1071F6133460E9A50491F
:1048F0002046FFF7A9FB051C18BF0125002D40F03D
:104900001881238D5BB9039323685A6903929A69CE
:104910000392039A1A6842F400721A6027E0012B8E
:1049200011D12268136823F4806313600023049379
:1049300023685A6904929A690492049A1A6842F4A4
:1049400000721A6013E0022B15D12268136823F459
:10495000806313602268136843F4006313600023CC
:10496000059323685A6905929B690593059BDFF8B7
:10497000C4800027CCE02268136843F4806313608E
:104980000023069323685A6906929B690693069B47
:10499000EDE7032B00F29680012B16D132460E99DB
:1049A0002046FFF7F7FC002840F0C580636A2268C4
:1049B00012691A70636A01336362238D013B238598
:1049C000638D013B9BB26385A2E0022B34D100963C
:1049D0000E9B3A4641462046FFF702FB002840F076
:1049E000AC802268136843F400731360636A226822
:1049F00012691A70626A531C6362238D013B23851E
:104A0000638D013B9BB2638523681B695370636AA6
:104A100001336362238D013B2385638D013B9BB290
:104A2000638575E0020010000000FFFF0800010030
:104A3000020001000400010000960E9B3A46414628
:104A40002046FFF7CDFA002879D12268136823F4B5
:104A500080631360636A226812691A70636A0133A3
:104A60006362238D013B2385638D013B9BB263858C
:104A700000960E9B3A4641462046FFF7B1FA0028C1
:104A80005FD12268136843F400731360636A22687D
:104A900012691A70626A531C6362238D013B23857D
:104AA000638D013B9BB2638523681B695370636A06
:104AB00001336362238D013B2385638D013B9BB2F0
:104AC000638525E032460E992046FFF763FC0028F7
:104AD00039D1636A226812691A70626A531C636270
:104AE000238D013B2385638D013B9BB26385236846
:104AF000596911F0040F0BD01B695370636A0133BD
:104B00006362238D013B2385638D013B9BB26385EB
:104B1000238D002B7FF43DAF202384F83D3000230C
:104B200084F83E3084F83C3010E002250EE0022587
:104B30000CE001250AE0012508E0012506E0012539
:104B400004E0012502E0012500E00125284608B027
:104B5000BDE8F0812DE9F04184B004460F4690464F
:104B60001D460AF011F994F83D30DBB2202B40F0DD
:104B7000A5800646002F00F0A380B8F1000F00F0DA
:104B8000A18094F83C30012B00F09E80012384F832
:104B90003C3023681A6812F0010F03D11A6842F002
:104BA00001021A602268136823F400631360212352
:104BB00084F83D30202384F83E300022226467626E
:104BC000A4F82A80638D2385454BE36221680B6836
:104BD00043F480630B6000962B4642492046FFF762
:104BE000FFF9002872D10023029323685A690292C8
:104BF0009B690293029B2369B3F5404F3FD1009616
:104C00002B46002237492046FFF7EAF900285FD1FA
:104C10000023039323685A6903929B690393039BC0
:104C20002DE0324629462046FFF75EFA30B1226871
:104C3000136823F48063136001234CE02368626AE5
:104C400012781A61616A4B1C6362638D013B9BB2EF
:104C50006385238D013B9BB223852268506910F048
:104C6000040F0CD05BB14B781361636A013363624C
:104C7000638D013B9BB26385238D013B2385238D8F
:104C8000002BCED100962B4600224FF482312046D5
:104C9000FFF7A6F90346E8B922686FF48061516115
:104CA00021680A6822F480620A60202284F83D208C
:104CB000002284F83E2084F83C200CE002230AE025
:104CC000012308E0012306E0022304E0012302E0BF
:104CD000012300E00123184604B0BDE8F08100BFC5
:104CE0000000FFFF020001002DE9F04184B00446FE
:104CF0000D4690461E460AF047F894F83D30DBB268
:104D0000202B40F094800746002D00F09280B8F1EF
:104D1000000F00F0908094F83C30012B00F08D8063
:104D2000012384F83C3023681A6812F0010F03D184
:104D30001A6842F001021A602268136823F40063C3
:104D40001360222384F83D30202384F83E30002273
:104D500022646562A4F82A80638D2385494BE3624F
:104D600021680B6843F480630B6000973346464923
:104D70002046FFF735F90546002860D1002302934D
:104D800023685A6902929B690293029B2DE03A467E
:104D900031462046FFF7FEFA30B12268136823F44B
:104DA00080631360012568E0636A226812691A70E3
:104DB000616A4B1C6362238D013B9BB22385628D2C
:104DC000013A92B262852268506910F0040F0CD04B
:104DD0005BB113694B70636A01336362238D013BDE
:104DE0002385638D013B9BB26385238D002BCED140
:104DF00017E02046FFF7DAF818BB09F0C5FFC01B23
:104E0000864200D36EB900232363202284F83D201C
:104E100084F83E30226C42F02002226484F83C3058
:104E20000FE023685A6912F0100FE2D010E002255B
:104E300023E0012521E001251FE002251DE00125D9
:104E40001BE02268136823F480631360012514E0DB
:104E50000022039259690391196841F00101196018
:104E6000039B21680B6823F480630B60202384F884
:104E70003D3084F83E2084F83C20284604B0BDE84C
:104E8000F08100BF0000FFFF0200010030B482B0DB
:104E90000024019490F83D40E4B2202C55D12E4CD2
:104EA0002468E4082D4DA5FB0454240A04EB840473
:104EB00004EB84040194019C013C0194019C74B9AD
:104EC00000230363202280F83D2080F83E30026CEE
:104ED00042F02002026480F83C30012038E004688F
:104EE000A56915F0020FE6D190F83C50012D2ED0A7
:104EF000012580F83C50256815F0010F03D1256885
:104F000045F00105256005682C6824F400642C60D8
:104F1000212480F83D40102480F83E4000240464A1
:104F200042624385438D03850D4BC3624164026831
:104F3000136843F48073136080F83C400268536840
:104F400043F4E0635360204602E0022000E00220C8
:104F500002B030BC704700BF1000002089B5F814C3
:104F60000000FFFF30B482B00024019490F83D406F
:104F7000E4B2202C5AD1304C2468E4082F4DA5FB14
:104F80000454240A04EB840404EB84040194019C7B
:104F9000013C0194019C74B900230363202280F832
:104FA0003D2080F83E30026C42F02002026480F81E
:104FB0003C3001203DE00468A56915F0020FE6D100
:104FC00090F83C50012D33D0012580F83C502568E5
:104FD00015F0010F03D1256845F00105256005682E
:104FE0002C6824F400642C60222480F83D401024B6
:104FF00080F83E400024046442624385438D03856B
:105000000F4BC36241640268136843F4806313600A
:105010000268136843F48073136080F83C400268B0
:10502000536843F4E0635360204602E0022000E04E
:10503000022002B030BC70471000002089B5F8147F
:105040000000FFFF90F83D30DBB2202B35D1002966
:1050500035D0002A35D090F83C30012B33D010B435
:10506000012380F83C3003681C6814F0010F03D161
:105070001C6844F001041C600468236823F4006386
:105080002360212380F83D30202380F83E30002328
:10509000036441624285428D02850D4AC262016805
:1050A0000A6842F480620A6080F83C3001684A680D
:1050B00042F4E0624A60184607E00220704701208F
:1050C0007047012070470220704710BC704700BF36
:1050D0000000FFFF90F83D30DBB2202B35D10029D6
:1050E00035D0002A35D090F83C30012B33D010B4A5
:1050F000012380F83C3003681C6814F0010F03D1D1
:105100001C6844F001041C600468236823F40063F5
:105110002360222380F83D30202380F83E30002396
:10512000036441624285428D02850D4AC262016874
:105130000A6842F480620A6080F83C3001684A687C
:1051400042F4E0624A60184607E0022070470120FE
:105150007047012070470220704710BC704700BFA5
:105160000000FFFF30B583B00024019490F83D406B
:10517000E4B2202C40F09C80504C2468E408504D50
:10518000A5FB0454240A04EB840404EB8404019476
:10519000019C013C0194019C74B90023036320220B
:1051A00080F83D2080F83E30026C42F0200202641C
:1051B00080F83C3001207EE00468A56915F0020FFC
:1051C000E6D190F83C50012D74D0012580F83C5078
:1051D000256815F0010F03D1256845F0010525600C
:1051E00005682C6824F400642C60212480F83D407C
:1051F000102480F83E400024046442624385438DBD
:105200009BB203852F4AC2624164002B3CD0044606
:10521000436B2D4ADA63436B2C4ADA64426B0023FA
:105220001364426B5364426B9364426B1365026870
:10523000038D1032416A406B06F0E2FBB0B9226880
:10524000136843F4806313602268136843F4807327
:10525000136084F83C002268536843F44073536041
:105260002268536843F40063536024E0202384F8E9
:105270003D30002284F83E20236C43F01003236469
:1052800084F83C20012016E00268136843F4806330
:1052900013600268136843F480731360002380F87E
:1052A0003C3001684A6842F4E0624A60184602E015
:1052B000022000E0022003B030BD00BF100000203B
:1052C00089B5F8140000FFFFFD6B0008BD6B0008F6
:1052D00030B583B00024019490F83D40E4B2202C16
:1052E00040F09C80504C2468E408504DA5FB0454C9
:1052F000240A04EB840404EB84040194019C013C23
:105300000194019C74B900230363202280F83D209E
:1053100080F83E30026C42F02002026480F83C309B
:1053200001207EE00468A56915F0020FE6D190F82F
:105330003C50012D74D0012580F83C50256815F0B3
:10534000010F03D1256845F00105256005682C682B
:1053500024F400642C60222480F83D40102480F85E
:105360003E400024046442624385438D9BB2038522
:105370002F4AC2624164002B3CD00446836B2D4A05
:10538000DA63836B2C4ADA64826B00231364826BCA
:105390005364826B9364826B13650168038D426A68
:1053A0001031806B06F02CFBB0B92268136843F40F
:1053B000806313602268136843F48073136084F879
:1053C0003C002268536843F440735360226853687A
:1053D00043F40063536024E0202384F83D3000222E
:1053E00084F83E20236C43F01003236484F83C20AF
:1053F000012016E00268136843F4806313600268BA
:10540000136843F480731360002380F83C30016814
:105410004A6842F4E0624A60184602E0022000E076
:10542000022003B030BD00BF1000002089B5F81481
:105430000000FFFFFD6B0008BD6B000890F83D30D9
:10544000DBB2202B5ED100295ED0002A5ED090F81E
:105450003C30012B5CD010B5012380F83C30036850
:105460001C6814F0010F03D11C6844F001041C6097
:1054700004460068036823F400630360212384F872
:105480003D30202384F83E3000232364616262852E
:10549000628D22851F4AE262626B1F49D163626B93
:1054A0001E49D164626B1364626B5364626B9364D4
:1054B000626B13652268238D1032616A606B06F09F
:1054C0009FFA88B92268136843F48063136084F8F4
:1054D0003C002268536843F4407353602268536869
:1054E00043F40063536010BD202384F83D30002254
:1054F00084F83E20236C43F01003236484F83C209E
:10550000012010BD02207047012070470120704724
:10551000022070470000FFFFFD6B0008BD6B000814
:1055200090F83D30DBB2202B5ED100295ED0002AFE
:105530005ED090F83C30012B5CD010B5012380F890
:105540003C3003681C6814F0010F03D11C6844F060
:1055500001041C6004460068036823F400630360D0
:10556000222384F83D30202384F83E300023236436
:1055700061626285628D22851F4AE262A26B1F49C9
:10558000D163A26B1E49D164A26B1364A26B5364F6
:10559000A26B9364A26B13652168238D626A10313C
:1055A000A06B06F02DFA88B92268136843F4806373
:1055B000136084F83C002268536843F440735360DE
:1055C0002268536843F40063536010BD202384F8BD
:1055D0003D30002284F83E20236C43F01003236406
:1055E00084F83C20012010BD022070470120704744
:1055F00001207047022070470000FFFFFD6B00088C
:10560000BD6B00082DE9F04182B004460E461746F6
:10561000984609F0B9FB94F83D30DBB2202B18BF57
:10562000022340F09A8005460090192301224D493B
:105630002046FEF7D5FC002840F0868094F83C30E8
:10564000012B00F08380012384F83C3023681A6822
:1056500012F0010F03D11A6842F001021A602268A9
:10566000136823F400631360212384F83D30402342
:1056700084F83E3000232364089B6362BDF8243025
:105680006385638D2385384BE36201950A9B009304
:1056900043463A4631462046FEF750FD002831D0B9
:1056A00056E02A460A992046FEF71EFD48B1236CB3
:1056B000042B4FD12268136843F400731360012355
:1056C0004BE02368626A12781A61616A4B1C63625C
:1056D000238D013B9BB22385628D013A92B2628594
:1056E0002268506910F0040F0CD05BB14B78136145
:1056F000636A01336362238D013B2385638D013B24
:105700009BB26385238D002BCBD12A460A99204674
:10571000FEF716FE034648B1236C042B1CD1226809
:10572000136843F400731360012316E021680A68CC
:1057300042F400720A60202284F83D20002284F89E
:105740003E2084F83C2008E0022306E0022304E027
:10575000012302E0012300E00123184602B0BDE866
:10576000F08100BF020010000000FFFF2DE9F041B2
:1057700086B004460D461746984609F005FB94F896
:105780003D30DBB2202B18BF022540F05A8106467F
:10579000009019230122A1492046FEF721FC002890
:1057A00040F03A8194F83C30012B00F03D81012318
:1057B00084F83C3023681A6812F0010F03D11A688C
:1057C00042F001021A602268136823F40063136038
:1057D000222384F83D30402384F83E3000232364A4
:1057E0000C9B6362BDF834306385638D23858C4BDD
:1057F000E36201960E9B009343463A4629462046B3
:10580000FEF704FD0546002840F01081238D5BB9AA
:10581000029323685A6902929A690292029A1A685C
:1058200042F400721A6027E0012B11D1226813683C
:1058300023F4806313600023039323685A6903925F
:105840009A690392039A1A6842F400721A6013E08C
:10585000022B15D12268136823F480631360226839
:10586000136843F4006313600023049323685A69A8
:1058700004929B690493049BDFF8A8810027BEE093
:105880000023059323685A6905929B690593059B3C
:10589000F2E7032B00F28D80012B16D132460E99D0
:1058A0002046FEF777FD002840F0C280636A226838
:1058B00012691A70636A01336362238D013B238589
:1058C000638D013B9BB2638599E0022B2AD1009640
:1058D0000E9B3A4641462046FEF782FB002840F0E8
:1058E000A9802268136843F400731360636A226816
:1058F00012691A70626A531C6362238D013B23850F
:10590000638D013B9BB2638523681B695370636A97
:1059100001336362238D013B2385638D013B9BB281
:1059200063856CE000960E9B3A4641462046FEF7A2
:1059300057FB002840F080802268136823F48063BE
:105940001360636A226812691A70636A01336362C2
:10595000238D013B2385638D013B9BB263850096BC
:105960000E9B3A4641462046FEF73AFB002865D199
:105970002268136843F400731360636A2268126933
:105980001A70626A531C6362238D013B2385638D09
:10599000013B9BB2638523681B695370636A0133C3
:1059A0006362238D013B2385638D013B9BB263853D
:1059B00025E032460E992046FEF7ECFC00283FD148
:1059C000636A226812691A70626A531C6362238DCB
:1059D000013B2385638D013B9BB263852368596935
:1059E00011F0040F0BD01B695370636A01336362BB
:1059F000238D013B2385638D013B9BB26385238D02
:105A0000002B7FF446AF202384F83D30002384F838
:105A10003E3084F83C3014E0022512E00200100011
:105A20000000FFFF0400010002250AE0012508E054
:105A3000012506E0012504E0012502E0012500E042
:105A40000125284606B0BDE8F08100BF30B482B021
:105A50000024019490F83D40E4B2202C5BD1314CFD
:105A60002468E408304DA5FB0454240A04EB8404A4
:105A700004EB84040194019C013C0194019C74B9E1
:105A800000230363202280F83D2080F83E30026C22
:105A900042F02002026480F83C3001203EE00468BD
:105AA000A56915F0020FE6D190F83C50012D34D0D5
:105AB000012580F83C50256815F0010F03D12568B9
:105AC00045F00105256005682C6824F400642C600D
:105AD000212480F83D40402480F83E4000240464A6
:105AE000049D4562BDF814504585458D05850F4DD3
